{
	"contracts/RentalContract.sol": {
		"Rental": {
			"abi": [
				{
					"anonymous": false,
					"inputs": [
						{
							"indexed": true,
							"internalType": "address",
							"name": "_user",
							"type": "address"
						},
						{
							"components": [
								{
									"components": [
										{
											"internalType": "address",
											"name": "id",
											"type": "address"
										},
										{
											"internalType": "string",
											"name": "fullName",
											"type": "string"
										}
									],
									"internalType": "struct Rental.Hirer",
									"name": "hirer",
									"type": "tuple"
								},
								{
									"components": [
										{
											"internalType": "string",
											"name": "name",
											"type": "string"
										}
									],
									"internalType": "struct Rental.Property",
									"name": "property",
									"type": "tuple"
								},
								{
									"internalType": "string",
									"name": "subject",
									"type": "string"
								},
								{
									"internalType": "string",
									"name": "message",
									"type": "string"
								},
								{
									"internalType": "uint256",
									"name": "createdDate",
									"type": "uint256"
								}
							],
							"indexed": false,
							"internalType": "struct Rental.Report",
							"name": "report",
							"type": "tuple"
						}
					],
					"name": "SendReport",
					"type": "event"
				},
				{
					"inputs": [
						{
							"internalType": "uint256",
							"name": "",
							"type": "uint256"
						}
					],
					"name": "agreementIds",
					"outputs": [
						{
							"internalType": "uint256",
							"name": "",
							"type": "uint256"
						}
					],
					"stateMutability": "view",
					"type": "function"
				},
				{
					"inputs": [
						{
							"internalType": "uint256",
							"name": "",
							"type": "uint256"
						}
					],
					"name": "agreements",
					"outputs": [
						{
							"internalType": "uint256",
							"name": "id",
							"type": "uint256"
						},
						{
							"components": [
								{
									"components": [
										{
											"internalType": "address",
											"name": "id",
											"type": "address"
										},
										{
											"internalType": "string",
											"name": "fullName",
											"type": "string"
										}
									],
									"internalType": "struct Rental.Hirer",
									"name": "hirer",
									"type": "tuple"
								},
								{
									"internalType": "address",
									"name": "tenancyAddress",
									"type": "address"
								},
								{
									"components": [
										{
											"internalType": "address",
											"name": "id",
											"type": "address"
										},
										{
											"internalType": "string",
											"name": "fullName",
											"type": "string"
										}
									],
									"internalType": "struct Rental.Renter",
									"name": "renter",
									"type": "tuple"
								}
							],
							"internalType": "struct Rental.Tenancy",
							"name": "tenancy",
							"type": "tuple"
						},
						{
							"internalType": "uint256",
							"name": "startDate",
							"type": "uint256"
						},
						{
							"internalType": "uint256",
							"name": "endDate",
							"type": "uint256"
						}
					],
					"stateMutability": "view",
					"type": "function"
				},
				{
					"inputs": [
						{
							"internalType": "string",
							"name": "propertyName",
							"type": "string"
						}
					],
					"name": "enterProperty",
					"outputs": [],
					"stateMutability": "nonpayable",
					"type": "function"
				},
				{
					"inputs": [
						{
							"internalType": "uint256",
							"name": "agreementId",
							"type": "uint256"
						}
					],
					"name": "finishRent",
					"outputs": [],
					"stateMutability": "nonpayable",
					"type": "function"
				},
				{
					"inputs": [
						{
							"internalType": "address",
							"name": "",
							"type": "address"
						}
					],
					"name": "propertiesOfUsers",
					"outputs": [
						{
							"internalType": "string",
							"name": "name",
							"type": "string"
						}
					],
					"stateMutability": "view",
					"type": "function"
				},
				{
					"inputs": [
						{
							"components": [
								{
									"internalType": "uint256",
									"name": "id",
									"type": "uint256"
								},
								{
									"components": [
										{
											"components": [
												{
													"internalType": "address",
													"name": "id",
													"type": "address"
												},
												{
													"internalType": "string",
													"name": "fullName",
													"type": "string"
												}
											],
											"internalType": "struct Rental.Hirer",
											"name": "hirer",
											"type": "tuple"
										},
										{
											"internalType": "address",
											"name": "tenancyAddress",
											"type": "address"
										},
										{
											"components": [
												{
													"internalType": "address",
													"name": "id",
													"type": "address"
												},
												{
													"internalType": "string",
													"name": "fullName",
													"type": "string"
												}
											],
											"internalType": "struct Rental.Renter",
											"name": "renter",
											"type": "tuple"
										}
									],
									"internalType": "struct Rental.Tenancy",
									"name": "tenancy",
									"type": "tuple"
								},
								{
									"internalType": "uint256",
									"name": "startDate",
									"type": "uint256"
								},
								{
									"internalType": "uint256",
									"name": "endDate",
									"type": "uint256"
								}
							],
							"internalType": "struct Rental.Agreement",
							"name": "agreement",
							"type": "tuple"
						}
					],
					"name": "rent",
					"outputs": [],
					"stateMutability": "nonpayable",
					"type": "function"
				},
				{
					"inputs": [
						{
							"components": [
								{
									"components": [
										{
											"internalType": "address",
											"name": "id",
											"type": "address"
										},
										{
											"internalType": "string",
											"name": "fullName",
											"type": "string"
										}
									],
									"internalType": "struct Rental.Hirer",
									"name": "hirer",
									"type": "tuple"
								},
								{
									"components": [
										{
											"internalType": "string",
											"name": "name",
											"type": "string"
										}
									],
									"internalType": "struct Rental.Property",
									"name": "property",
									"type": "tuple"
								},
								{
									"internalType": "string",
									"name": "subject",
									"type": "string"
								},
								{
									"internalType": "string",
									"name": "message",
									"type": "string"
								},
								{
									"internalType": "uint256",
									"name": "createdDate",
									"type": "uint256"
								}
							],
							"internalType": "struct Rental.Report",
							"name": "report",
							"type": "tuple"
						}
					],
					"name": "sendReportToRenter",
					"outputs": [],
					"stateMutability": "nonpayable",
					"type": "function"
				}
			],
			"devdoc": {
				"kind": "dev",
				"methods": {},
				"version": 1
			},
			"evm": {
				"assembly": "    /* \"contracts/RentalContract.sol\":71:2074  contract Rental{... */\n  mstore(0x40, 0x80)\n  callvalue\n  dup1\n  iszero\n  tag_1\n  jumpi\n  0x00\n  dup1\n  revert\ntag_1:\n  pop\n  dataSize(sub_0)\n  dup1\n  dataOffset(sub_0)\n  0x00\n  codecopy\n  0x00\n  return\nstop\n\nsub_0: assembly {\n        /* \"contracts/RentalContract.sol\":71:2074  contract Rental{... */\n      mstore(0x40, 0x80)\n      callvalue\n      dup1\n      iszero\n      tag_1\n      jumpi\n      0x00\n      dup1\n      revert\n    tag_1:\n      pop\n      jumpi(tag_2, lt(calldatasize, 0x04))\n      shr(0xe0, calldataload(0x00))\n      dup1\n      0x9405a7ba\n      gt\n      tag_10\n      jumpi\n      dup1\n      0x9405a7ba\n      eq\n      tag_6\n      jumpi\n      dup1\n      0x9c315c71\n      eq\n      tag_7\n      jumpi\n      dup1\n      0xbd14de96\n      eq\n      tag_8\n      jumpi\n      dup1\n      0xbd64c361\n      eq\n      tag_9\n      jumpi\n      jump(tag_2)\n    tag_10:\n      dup1\n      0x37cf4c12\n      eq\n      tag_3\n      jumpi\n      dup1\n      0x5b915a93\n      eq\n      tag_4\n      jumpi\n      dup1\n      0x805fd26e\n      eq\n      tag_5\n      jumpi\n    tag_2:\n      0x00\n      dup1\n      revert\n        /* \"contracts/RentalContract.sol\":1161:1361  function enterProperty(string memory propertyName) isRenter public{... */\n    tag_3:\n      tag_11\n      0x04\n      dup1\n      calldatasize\n      sub\n      dup2\n      add\n      swap1\n      tag_12\n      swap2\n      swap1\n      tag_13\n      jump\t// in\n    tag_12:\n      tag_14\n      jump\t// in\n    tag_11:\n      stop\n        /* \"contracts/RentalContract.sol\":1923:2071  function sendReportToRenter(Report memory report) isHirer public{... */\n    tag_4:\n      tag_15\n      0x04\n      dup1\n      calldatasize\n      sub\n      dup2\n      add\n      swap1\n      tag_16\n      swap2\n      swap1\n      tag_17\n      jump\t// in\n    tag_16:\n      tag_18\n      jump\t// in\n    tag_15:\n      stop\n        /* \"contracts/RentalContract.sol\":209:261  mapping (address=>Property) public propertiesOfUsers */\n    tag_5:\n      tag_19\n      0x04\n      dup1\n      calldatasize\n      sub\n      dup2\n      add\n      swap1\n      tag_20\n      swap2\n      swap1\n      tag_21\n      jump\t// in\n    tag_20:\n      tag_22\n      jump\t// in\n    tag_19:\n      mload(0x40)\n      tag_23\n      swap2\n      swap1\n      tag_24\n      jump\t// in\n    tag_23:\n      mload(0x40)\n      dup1\n      swap2\n      sub\n      swap1\n      return\n        /* \"contracts/RentalContract.sol\":1532:1915  function finishRent(uint agreementId) isRenter  public{... */\n    tag_6:\n      tag_25\n      0x04\n      dup1\n      calldatasize\n      sub\n      dup2\n      add\n      swap1\n      tag_26\n      swap2\n      swap1\n      tag_27\n      jump\t// in\n    tag_26:\n      tag_28\n      jump\t// in\n    tag_25:\n      stop\n        /* \"contracts/RentalContract.sol\":322:348  uint[] public agreementIds */\n    tag_7:\n      tag_29\n      0x04\n      dup1\n      calldatasize\n      sub\n      dup2\n      add\n      swap1\n      tag_30\n      swap2\n      swap1\n      tag_27\n      jump\t// in\n    tag_30:\n      tag_31\n      jump\t// in\n    tag_29:\n      mload(0x40)\n      tag_32\n      swap2\n      swap1\n      tag_33\n      jump\t// in\n    tag_32:\n      mload(0x40)\n      dup1\n      swap2\n      sub\n      swap1\n      return\n        /* \"contracts/RentalContract.sol\":271:314  mapping (uint=>Agreement) public agreements */\n    tag_8:\n      tag_34\n      0x04\n      dup1\n      calldatasize\n      sub\n      dup2\n      add\n      swap1\n      tag_35\n      swap2\n      swap1\n      tag_27\n      jump\t// in\n    tag_35:\n      tag_36\n      jump\t// in\n    tag_34:\n      mload(0x40)\n      tag_37\n      swap5\n      swap4\n      swap3\n      swap2\n      swap1\n      tag_38\n      jump\t// in\n    tag_37:\n      mload(0x40)\n      dup1\n      swap2\n      sub\n      swap1\n      return\n        /* \"contracts/RentalContract.sol\":1369:1524  function rent(Agreement memory agreement) isRenter  public{... */\n    tag_9:\n      tag_39\n      0x04\n      dup1\n      calldatasize\n      sub\n      dup2\n      add\n      swap1\n      tag_40\n      swap2\n      swap1\n      tag_41\n      jump\t// in\n    tag_40:\n      tag_42\n      jump\t// in\n    tag_39:\n      stop\n        /* \"contracts/RentalContract.sol\":1161:1361  function enterProperty(string memory propertyName) isRenter public{... */\n    tag_14:\n        /* \"contracts/RentalContract.sol\":1238:1263  Property memory _property */\n      tag_45\n      tag_46\n      jump\t// in\n    tag_45:\n        /* \"contracts/RentalContract.sol\":1289:1301  propertyName */\n      dup2\n        /* \"contracts/RentalContract.sol\":1274:1283  _property */\n      dup2\n        /* \"contracts/RentalContract.sol\":1274:1288  _property.name */\n      0x00\n      add\n        /* \"contracts/RentalContract.sol\":1274:1301  _property.name=propertyName */\n      dup2\n      swap1\n      mstore\n      pop\n        /* \"contracts/RentalContract.sol\":1344:1353  _property */\n      dup1\n        /* \"contracts/RentalContract.sol\":1312:1329  propertiesOfUsers */\n      0x00\n        /* \"contracts/RentalContract.sol\":1312:1341  propertiesOfUsers[msg.sender] */\n      dup1\n        /* \"contracts/RentalContract.sol\":1330:1340  msg.sender */\n      caller\n        /* \"contracts/RentalContract.sol\":1312:1341  propertiesOfUsers[msg.sender] */\n      0xffffffffffffffffffffffffffffffffffffffff\n      and\n      0xffffffffffffffffffffffffffffffffffffffff\n      and\n      dup2\n      mstore\n      0x20\n      add\n      swap1\n      dup2\n      mstore\n      0x20\n      add\n      0x00\n      keccak256\n        /* \"contracts/RentalContract.sol\":1312:1353  propertiesOfUsers[msg.sender] = _property */\n      0x00\n      dup3\n      add\n      mload\n      dup2\n      0x00\n      add\n      swap1\n      dup2\n      tag_47\n      swap2\n      swap1\n      tag_48\n      jump\t// in\n    tag_47:\n      pop\n      swap1\n      pop\n      pop\n        /* \"contracts/RentalContract.sol\":1227:1361  {... */\n      pop\n        /* \"contracts/RentalContract.sol\":1161:1361  function enterProperty(string memory propertyName) isRenter public{... */\n      pop\n      jump\t// out\n        /* \"contracts/RentalContract.sol\":1923:2071  function sendReportToRenter(Report memory report) isHirer public{... */\n    tag_18:\n        /* \"contracts/RentalContract.sol\":2014:2024  msg.sender */\n      caller\n        /* \"contracts/RentalContract.sol\":2003:2032  SendReport(msg.sender,report) */\n      0xffffffffffffffffffffffffffffffffffffffff\n      and\n      0x37c8bcda6e873896d322e49030ebc0ea81155fb8b0251659d7b34a673bdd0cfb\n        /* \"contracts/RentalContract.sol\":2025:2031  report */\n      dup3\n        /* \"contracts/RentalContract.sol\":2003:2032  SendReport(msg.sender,report) */\n      mload(0x40)\n      tag_51\n      swap2\n      swap1\n      tag_52\n      jump\t// in\n    tag_51:\n      mload(0x40)\n      dup1\n      swap2\n      sub\n      swap1\n      log2\n        /* \"contracts/RentalContract.sol\":2043:2050  reports */\n      0x03\n        /* \"contracts/RentalContract.sol\":2056:2062  report */\n      dup2\n        /* \"contracts/RentalContract.sol\":2043:2063  reports.push(report) */\n      swap1\n      dup1\n      0x01\n      dup2\n      sload\n      add\n      dup1\n      dup3\n      sstore\n      dup1\n      swap2\n      pop\n      pop\n      0x01\n      swap1\n      sub\n      swap1\n      0x00\n      mstore\n      keccak256(0x00, 0x20)\n      swap1\n      0x06\n      mul\n      add\n      0x00\n      swap1\n      swap2\n      swap1\n      swap2\n      swap1\n      swap2\n      pop\n      0x00\n      dup3\n      add\n      mload\n      dup2\n      0x00\n      add\n      0x00\n      dup3\n      add\n      mload\n      dup2\n      0x00\n      add\n      exp(0x0100, 0x00)\n      dup2\n      sload\n      dup2\n      0xffffffffffffffffffffffffffffffffffffffff\n      mul\n      not\n      and\n      swap1\n      dup4\n      0xffffffffffffffffffffffffffffffffffffffff\n      and\n      mul\n      or\n      swap1\n      sstore\n      pop\n      0x20\n      dup3\n      add\n      mload\n      dup2\n      0x01\n      add\n      swap1\n      dup2\n      tag_54\n      swap2\n      swap1\n      tag_48\n      jump\t// in\n    tag_54:\n      pop\n      pop\n      pop\n      0x20\n      dup3\n      add\n      mload\n      dup2\n      0x02\n      add\n      0x00\n      dup3\n      add\n      mload\n      dup2\n      0x00\n      add\n      swap1\n      dup2\n      tag_55\n      swap2\n      swap1\n      tag_48\n      jump\t// in\n    tag_55:\n      pop\n      pop\n      pop\n      0x40\n      dup3\n      add\n      mload\n      dup2\n      0x03\n      add\n      swap1\n      dup2\n      tag_56\n      swap2\n      swap1\n      tag_48\n      jump\t// in\n    tag_56:\n      pop\n      0x60\n      dup3\n      add\n      mload\n      dup2\n      0x04\n      add\n      swap1\n      dup2\n      tag_57\n      swap2\n      swap1\n      tag_48\n      jump\t// in\n    tag_57:\n      pop\n      0x80\n      dup3\n      add\n      mload\n      dup2\n      0x05\n      add\n      sstore\n      pop\n      pop\n        /* \"contracts/RentalContract.sol\":1923:2071  function sendReportToRenter(Report memory report) isHirer public{... */\n      pop\n      jump\t// out\n        /* \"contracts/RentalContract.sol\":209:261  mapping (address=>Property) public propertiesOfUsers */\n    tag_22:\n      mstore(0x20, 0x00)\n      dup1\n      0x00\n      mstore\n      keccak256(0x00, 0x40)\n      0x00\n      swap2\n      pop\n      swap1\n      pop\n      dup1\n      0x00\n      add\n      dup1\n      sload\n      tag_58\n      swap1\n      tag_59\n      jump\t// in\n    tag_58:\n      dup1\n      0x1f\n      add\n      0x20\n      dup1\n      swap2\n      div\n      mul\n      0x20\n      add\n      mload(0x40)\n      swap1\n      dup2\n      add\n      0x40\n      mstore\n      dup1\n      swap3\n      swap2\n      swap1\n      dup2\n      dup2\n      mstore\n      0x20\n      add\n      dup3\n      dup1\n      sload\n      tag_60\n      swap1\n      tag_59\n      jump\t// in\n    tag_60:\n      dup1\n      iszero\n      tag_61\n      jumpi\n      dup1\n      0x1f\n      lt\n      tag_62\n      jumpi\n      0x0100\n      dup1\n      dup4\n      sload\n      div\n      mul\n      dup4\n      mstore\n      swap2\n      0x20\n      add\n      swap2\n      jump(tag_61)\n    tag_62:\n      dup3\n      add\n      swap2\n      swap1\n      0x00\n      mstore\n      keccak256(0x00, 0x20)\n      swap1\n    tag_63:\n      dup2\n      sload\n      dup2\n      mstore\n      swap1\n      0x01\n      add\n      swap1\n      0x20\n      add\n      dup1\n      dup4\n      gt\n      tag_63\n      jumpi\n      dup3\n      swap1\n      sub\n      0x1f\n      and\n      dup3\n      add\n      swap2\n    tag_61:\n      pop\n      pop\n      pop\n      pop\n      pop\n      swap1\n      pop\n      dup2\n      jump\t// out\n        /* \"contracts/RentalContract.sol\":1532:1915  function finishRent(uint agreementId) isRenter  public{... */\n    tag_28:\n        /* \"contracts/RentalContract.sol\":1604:1614  agreements */\n      0x01\n        /* \"contracts/RentalContract.sol\":1604:1627  agreements[agreementId] */\n      0x00\n        /* \"contracts/RentalContract.sol\":1615:1626  agreementId */\n      dup3\n        /* \"contracts/RentalContract.sol\":1604:1627  agreements[agreementId] */\n      dup2\n      mstore\n      0x20\n      add\n      swap1\n      dup2\n      mstore\n      0x20\n      add\n      0x00\n      keccak256\n      0x00\n        /* \"contracts/RentalContract.sol\":1597:1627  delete agreements[agreementId] */\n      dup1\n      dup3\n      add\n      0x00\n      swap1\n      sstore\n      0x01\n      dup3\n      add\n      0x00\n      dup1\n      dup3\n      add\n      0x00\n      dup1\n      dup3\n      add\n      exp(0x0100, 0x00)\n      dup2\n      sload\n      swap1\n      0xffffffffffffffffffffffffffffffffffffffff\n      mul\n      not\n      and\n      swap1\n      sstore\n      0x01\n      dup3\n      add\n      0x00\n      tag_66\n      swap2\n      swap1\n      tag_67\n      jump\t// in\n    tag_66:\n      pop\n      pop\n      0x02\n      dup3\n      add\n      exp(0x0100, 0x00)\n      dup2\n      sload\n      swap1\n      0xffffffffffffffffffffffffffffffffffffffff\n      mul\n      not\n      and\n      swap1\n      sstore\n      0x03\n      dup3\n      add\n      0x00\n      dup1\n      dup3\n      add\n      exp(0x0100, 0x00)\n      dup2\n      sload\n      swap1\n      0xffffffffffffffffffffffffffffffffffffffff\n      mul\n      not\n      and\n      swap1\n      sstore\n      0x01\n      dup3\n      add\n      0x00\n      tag_68\n      swap2\n      swap1\n      tag_67\n      jump\t// in\n    tag_68:\n      pop\n      pop\n      pop\n      pop\n      0x06\n      dup3\n      add\n      0x00\n      swap1\n      sstore\n      0x07\n      dup3\n      add\n      0x00\n      swap1\n      sstore\n      pop\n      pop\n        /* \"contracts/RentalContract.sol\":1653:1659  uint i */\n      0x00\n        /* \"contracts/RentalContract.sol\":1648:1908  for (uint i = 0; i < agreementIds.length; i++) {... */\n    tag_69:\n        /* \"contracts/RentalContract.sol\":1669:1681  agreementIds */\n      0x02\n        /* \"contracts/RentalContract.sol\":1669:1688  agreementIds.length */\n      dup1\n      sload\n      swap1\n      pop\n        /* \"contracts/RentalContract.sol\":1665:1666  i */\n      dup2\n        /* \"contracts/RentalContract.sol\":1665:1688  i < agreementIds.length */\n      lt\n        /* \"contracts/RentalContract.sol\":1648:1908  for (uint i = 0; i < agreementIds.length; i++) {... */\n      iszero\n      tag_70\n      jumpi\n        /* \"contracts/RentalContract.sol\":1733:1744  agreementId */\n      dup2\n        /* \"contracts/RentalContract.sol\":1714:1726  agreementIds */\n      0x02\n        /* \"contracts/RentalContract.sol\":1727:1728  i */\n      dup3\n        /* \"contracts/RentalContract.sol\":1714:1729  agreementIds[i] */\n      dup2\n      sload\n      dup2\n      lt\n      tag_72\n      jumpi\n      tag_73\n      tag_74\n      jump\t// in\n    tag_73:\n    tag_72:\n      swap1\n      0x00\n      mstore\n      keccak256(0x00, 0x20)\n      add\n      sload\n        /* \"contracts/RentalContract.sol\":1714:1744  agreementIds[i] == agreementId */\n      sub\n        /* \"contracts/RentalContract.sol\":1710:1897  if (agreementIds[i] == agreementId) {... */\n      tag_76\n      jumpi\n        /* \"contracts/RentalContract.sol\":1783:1795  agreementIds */\n      0x02\n        /* \"contracts/RentalContract.sol\":1818:1819  1 */\n      0x01\n        /* \"contracts/RentalContract.sol\":1796:1808  agreementIds */\n      0x02\n        /* \"contracts/RentalContract.sol\":1796:1815  agreementIds.length */\n      dup1\n      sload\n      swap1\n      pop\n        /* \"contracts/RentalContract.sol\":1796:1819  agreementIds.length - 1 */\n      tag_77\n      swap2\n      swap1\n      tag_78\n      jump\t// in\n    tag_77:\n        /* \"contracts/RentalContract.sol\":1783:1820  agreementIds[agreementIds.length - 1] */\n      dup2\n      sload\n      dup2\n      lt\n      tag_79\n      jumpi\n      tag_80\n      tag_74\n      jump\t// in\n    tag_80:\n    tag_79:\n      swap1\n      0x00\n      mstore\n      keccak256(0x00, 0x20)\n      add\n      sload\n        /* \"contracts/RentalContract.sol\":1765:1777  agreementIds */\n      0x02\n        /* \"contracts/RentalContract.sol\":1778:1779  i */\n      dup3\n        /* \"contracts/RentalContract.sol\":1765:1780  agreementIds[i] */\n      dup2\n      sload\n      dup2\n      lt\n      tag_82\n      jumpi\n      tag_83\n      tag_74\n      jump\t// in\n    tag_83:\n    tag_82:\n      swap1\n      0x00\n      mstore\n      keccak256(0x00, 0x20)\n      add\n        /* \"contracts/RentalContract.sol\":1765:1820  agreementIds[i] = agreementIds[agreementIds.length - 1] */\n      dup2\n      swap1\n      sstore\n      pop\n        /* \"contracts/RentalContract.sol\":1839:1851  agreementIds */\n      0x02\n        /* \"contracts/RentalContract.sol\":1839:1857  agreementIds.pop() */\n      dup1\n      sload\n      dup1\n      tag_85\n      jumpi\n      tag_86\n      tag_87\n      jump\t// in\n    tag_86:\n    tag_85:\n      0x01\n      swap1\n      sub\n      dup2\n      dup2\n      swap1\n      0x00\n      mstore\n      keccak256(0x00, 0x20)\n      add\n      0x00\n      swap1\n      sstore\n      swap1\n      sstore\n        /* \"contracts/RentalContract.sol\":1876:1881  break */\n      jump(tag_70)\n        /* \"contracts/RentalContract.sol\":1710:1897  if (agreementIds[i] == agreementId) {... */\n    tag_76:\n        /* \"contracts/RentalContract.sol\":1690:1693  i++ */\n      dup1\n      dup1\n      tag_89\n      swap1\n      tag_90\n      jump\t// in\n    tag_89:\n      swap2\n      pop\n      pop\n        /* \"contracts/RentalContract.sol\":1648:1908  for (uint i = 0; i < agreementIds.length; i++) {... */\n      jump(tag_69)\n    tag_70:\n      pop\n        /* \"contracts/RentalContract.sol\":1532:1915  function finishRent(uint agreementId) isRenter  public{... */\n      pop\n      jump\t// out\n        /* \"contracts/RentalContract.sol\":322:348  uint[] public agreementIds */\n    tag_31:\n      0x02\n      dup2\n      dup2\n      sload\n      dup2\n      lt\n      tag_91\n      jumpi\n      0x00\n      dup1\n      revert\n    tag_91:\n      swap1\n      0x00\n      mstore\n      keccak256(0x00, 0x20)\n      add\n      0x00\n      swap2\n      pop\n      swap1\n      pop\n      sload\n      dup2\n      jump\t// out\n        /* \"contracts/RentalContract.sol\":271:314  mapping (uint=>Agreement) public agreements */\n    tag_36:\n      mstore(0x20, 0x01)\n      dup1\n      0x00\n      mstore\n      keccak256(0x00, 0x40)\n      0x00\n      swap2\n      pop\n      swap1\n      pop\n      dup1\n      0x00\n      add\n      sload\n      swap1\n      dup1\n      0x01\n      add\n      mload(0x40)\n      dup1\n      0x60\n      add\n      0x40\n      mstore\n      swap1\n      dup2\n      0x00\n      dup3\n      add\n      mload(0x40)\n      dup1\n      0x40\n      add\n      0x40\n      mstore\n      swap1\n      dup2\n      0x00\n      dup3\n      add\n      0x00\n      swap1\n      sload\n      swap1\n      0x0100\n      exp\n      swap1\n      div\n      0xffffffffffffffffffffffffffffffffffffffff\n      and\n      0xffffffffffffffffffffffffffffffffffffffff\n      and\n      0xffffffffffffffffffffffffffffffffffffffff\n      and\n      dup2\n      mstore\n      0x20\n      add\n      0x01\n      dup3\n      add\n      dup1\n      sload\n      tag_93\n      swap1\n      tag_59\n      jump\t// in\n    tag_93:\n      dup1\n      0x1f\n      add\n      0x20\n      dup1\n      swap2\n      div\n      mul\n      0x20\n      add\n      mload(0x40)\n      swap1\n      dup2\n      add\n      0x40\n      mstore\n      dup1\n      swap3\n      swap2\n      swap1\n      dup2\n      dup2\n      mstore\n      0x20\n      add\n      dup3\n      dup1\n      sload\n      tag_94\n      swap1\n      tag_59\n      jump\t// in\n    tag_94:\n      dup1\n      iszero\n      tag_95\n      jumpi\n      dup1\n      0x1f\n      lt\n      tag_96\n      jumpi\n      0x0100\n      dup1\n      dup4\n      sload\n      div\n      mul\n      dup4\n      mstore\n      swap2\n      0x20\n      add\n      swap2\n      jump(tag_95)\n    tag_96:\n      dup3\n      add\n      swap2\n      swap1\n      0x00\n      mstore\n      keccak256(0x00, 0x20)\n      swap1\n    tag_97:\n      dup2\n      sload\n      dup2\n      mstore\n      swap1\n      0x01\n      add\n      swap1\n      0x20\n      add\n      dup1\n      dup4\n      gt\n      tag_97\n      jumpi\n      dup3\n      swap1\n      sub\n      0x1f\n      and\n      dup3\n      add\n      swap2\n    tag_95:\n      pop\n      pop\n      pop\n      pop\n      pop\n      dup2\n      mstore\n      pop\n      pop\n      dup2\n      mstore\n      0x20\n      add\n      0x02\n      dup3\n      add\n      0x00\n      swap1\n      sload\n      swap1\n      0x0100\n      exp\n      swap1\n      div\n      0xffffffffffffffffffffffffffffffffffffffff\n      and\n      0xffffffffffffffffffffffffffffffffffffffff\n      and\n      0xffffffffffffffffffffffffffffffffffffffff\n      and\n      dup2\n      mstore\n      0x20\n      add\n      0x03\n      dup3\n      add\n      mload(0x40)\n      dup1\n      0x40\n      add\n      0x40\n      mstore\n      swap1\n      dup2\n      0x00\n      dup3\n      add\n      0x00\n      swap1\n      sload\n      swap1\n      0x0100\n      exp\n      swap1\n      div\n      0xffffffffffffffffffffffffffffffffffffffff\n      and\n      0xffffffffffffffffffffffffffffffffffffffff\n      and\n      0xffffffffffffffffffffffffffffffffffffffff\n      and\n      dup2\n      mstore\n      0x20\n      add\n      0x01\n      dup3\n      add\n      dup1\n      sload\n      tag_98\n      swap1\n      tag_59\n      jump\t// in\n    tag_98:\n      dup1\n      0x1f\n      add\n      0x20\n      dup1\n      swap2\n      div\n      mul\n      0x20\n      add\n      mload(0x40)\n      swap1\n      dup2\n      add\n      0x40\n      mstore\n      dup1\n      swap3\n      swap2\n      swap1\n      dup2\n      dup2\n      mstore\n      0x20\n      add\n      dup3\n      dup1\n      sload\n      tag_99\n      swap1\n      tag_59\n      jump\t// in\n    tag_99:\n      dup1\n      iszero\n      tag_100\n      jumpi\n      dup1\n      0x1f\n      lt\n      tag_101\n      jumpi\n      0x0100\n      dup1\n      dup4\n      sload\n      div\n      mul\n      dup4\n      mstore\n      swap2\n      0x20\n      add\n      swap2\n      jump(tag_100)\n    tag_101:\n      dup3\n      add\n      swap2\n      swap1\n      0x00\n      mstore\n      keccak256(0x00, 0x20)\n      swap1\n    tag_102:\n      dup2\n      sload\n      dup2\n      mstore\n      swap1\n      0x01\n      add\n      swap1\n      0x20\n      add\n      dup1\n      dup4\n      gt\n      tag_102\n      jumpi\n      dup3\n      swap1\n      sub\n      0x1f\n      and\n      dup3\n      add\n      swap2\n    tag_100:\n      pop\n      pop\n      pop\n      pop\n      pop\n      dup2\n      mstore\n      pop\n      pop\n      dup2\n      mstore\n      pop\n      pop\n      swap1\n      dup1\n      0x06\n      add\n      sload\n      swap1\n      dup1\n      0x07\n      add\n      sload\n      swap1\n      pop\n      dup5\n      jump\t// out\n        /* \"contracts/RentalContract.sol\":1369:1524  function rent(Agreement memory agreement) isRenter  public{... */\n    tag_42:\n        /* \"contracts/RentalContract.sol\":1465:1474  agreement */\n      dup1\n        /* \"contracts/RentalContract.sol\":1438:1448  agreements */\n      0x01\n        /* \"contracts/RentalContract.sol\":1438:1462  agreements[agreement.id] */\n      0x00\n        /* \"contracts/RentalContract.sol\":1449:1458  agreement */\n      dup4\n        /* \"contracts/RentalContract.sol\":1449:1461  agreement.id */\n      0x00\n      add\n      mload\n        /* \"contracts/RentalContract.sol\":1438:1462  agreements[agreement.id] */\n      dup2\n      mstore\n      0x20\n      add\n      swap1\n      dup2\n      mstore\n      0x20\n      add\n      0x00\n      keccak256\n        /* \"contracts/RentalContract.sol\":1438:1474  agreements[agreement.id] = agreement */\n      0x00\n      dup3\n      add\n      mload\n      dup2\n      0x00\n      add\n      sstore\n      0x20\n      dup3\n      add\n      mload\n      dup2\n      0x01\n      add\n      0x00\n      dup3\n      add\n      mload\n      dup2\n      0x00\n      add\n      0x00\n      dup3\n      add\n      mload\n      dup2\n      0x00\n      add\n      exp(0x0100, 0x00)\n      dup2\n      sload\n      dup2\n      0xffffffffffffffffffffffffffffffffffffffff\n      mul\n      not\n      and\n      swap1\n      dup4\n      0xffffffffffffffffffffffffffffffffffffffff\n      and\n      mul\n      or\n      swap1\n      sstore\n      pop\n      0x20\n      dup3\n      add\n      mload\n      dup2\n      0x01\n      add\n      swap1\n      dup2\n      tag_105\n      swap2\n      swap1\n      tag_48\n      jump\t// in\n    tag_105:\n      pop\n      pop\n      pop\n      0x20\n      dup3\n      add\n      mload\n      dup2\n      0x02\n      add\n      exp(0x0100, 0x00)\n      dup2\n      sload\n      dup2\n      0xffffffffffffffffffffffffffffffffffffffff\n      mul\n      not\n      and\n      swap1\n      dup4\n      0xffffffffffffffffffffffffffffffffffffffff\n      and\n      mul\n      or\n      swap1\n      sstore\n      pop\n      0x40\n      dup3\n      add\n      mload\n      dup2\n      0x03\n      add\n      0x00\n      dup3\n      add\n      mload\n      dup2\n      0x00\n      add\n      exp(0x0100, 0x00)\n      dup2\n      sload\n      dup2\n      0xffffffffffffffffffffffffffffffffffffffff\n      mul\n      not\n      and\n      swap1\n      dup4\n      0xffffffffffffffffffffffffffffffffffffffff\n      and\n      mul\n      or\n      swap1\n      sstore\n      pop\n      0x20\n      dup3\n      add\n      mload\n      dup2\n      0x01\n      add\n      swap1\n      dup2\n      tag_106\n      swap2\n      swap1\n      tag_48\n      jump\t// in\n    tag_106:\n      pop\n      pop\n      pop\n      pop\n      pop\n      0x40\n      dup3\n      add\n      mload\n      dup2\n      0x06\n      add\n      sstore\n      0x60\n      dup3\n      add\n      mload\n      dup2\n      0x07\n      add\n      sstore\n      swap1\n      pop\n      pop\n        /* \"contracts/RentalContract.sol\":1485:1497  agreementIds */\n      0x02\n        /* \"contracts/RentalContract.sol\":1503:1512  agreement */\n      dup2\n        /* \"contracts/RentalContract.sol\":1503:1515  agreement.id */\n      0x00\n      add\n      mload\n        /* \"contracts/RentalContract.sol\":1485:1516  agreementIds.push(agreement.id) */\n      swap1\n      dup1\n      0x01\n      dup2\n      sload\n      add\n      dup1\n      dup3\n      sstore\n      dup1\n      swap2\n      pop\n      pop\n      0x01\n      swap1\n      sub\n      swap1\n      0x00\n      mstore\n      keccak256(0x00, 0x20)\n      add\n      0x00\n      swap1\n      swap2\n      swap1\n      swap2\n      swap1\n      swap2\n      pop\n      sstore\n        /* \"contracts/RentalContract.sol\":1369:1524  function rent(Agreement memory agreement) isRenter  public{... */\n      pop\n      jump\t// out\n    tag_46:\n      mload(0x40)\n      dup1\n      0x20\n      add\n      0x40\n      mstore\n      dup1\n      0x60\n      dup2\n      mstore\n      pop\n      swap1\n      jump\t// out\n    tag_67:\n      pop\n      dup1\n      sload\n      tag_108\n      swap1\n      tag_59\n      jump\t// in\n    tag_108:\n      0x00\n      dup3\n      sstore\n      dup1\n      0x1f\n      lt\n      tag_110\n      jumpi\n      pop\n      jump(tag_109)\n    tag_110:\n      0x1f\n      add\n      0x20\n      swap1\n      div\n      swap1\n      0x00\n      mstore\n      keccak256(0x00, 0x20)\n      swap1\n      dup2\n      add\n      swap1\n      tag_111\n      swap2\n      swap1\n      tag_112\n      jump\t// in\n    tag_111:\n    tag_109:\n      pop\n      jump\t// out\n    tag_112:\n    tag_113:\n      dup1\n      dup3\n      gt\n      iszero\n      tag_114\n      jumpi\n      0x00\n      dup2\n      0x00\n      swap1\n      sstore\n      pop\n      0x01\n      add\n      jump(tag_113)\n    tag_114:\n      pop\n      swap1\n      jump\t// out\n        /* \"#utility.yul\":7:82   */\n    tag_115:\n        /* \"#utility.yul\":40:46   */\n      0x00\n        /* \"#utility.yul\":73:75   */\n      0x40\n        /* \"#utility.yul\":67:76   */\n      mload\n        /* \"#utility.yul\":57:76   */\n      swap1\n      pop\n        /* \"#utility.yul\":7:82   */\n      swap1\n      jump\t// out\n        /* \"#utility.yul\":88:205   */\n    tag_116:\n        /* \"#utility.yul\":197:198   */\n      0x00\n        /* \"#utility.yul\":194:195   */\n      dup1\n        /* \"#utility.yul\":187:199   */\n      revert\n        /* \"#utility.yul\":211:328   */\n    tag_117:\n        /* \"#utility.yul\":320:321   */\n      0x00\n        /* \"#utility.yul\":317:318   */\n      dup1\n        /* \"#utility.yul\":310:322   */\n      revert\n        /* \"#utility.yul\":334:451   */\n    tag_118:\n        /* \"#utility.yul\":443:444   */\n      0x00\n        /* \"#utility.yul\":440:441   */\n      dup1\n        /* \"#utility.yul\":433:445   */\n      revert\n        /* \"#utility.yul\":457:574   */\n    tag_119:\n        /* \"#utility.yul\":566:567   */\n      0x00\n        /* \"#utility.yul\":563:564   */\n      dup1\n        /* \"#utility.yul\":556:568   */\n      revert\n        /* \"#utility.yul\":580:682   */\n    tag_120:\n        /* \"#utility.yul\":621:627   */\n      0x00\n        /* \"#utility.yul\":672:674   */\n      0x1f\n        /* \"#utility.yul\":668:675   */\n      not\n        /* \"#utility.yul\":663:665   */\n      0x1f\n        /* \"#utility.yul\":656:661   */\n      dup4\n        /* \"#utility.yul\":652:666   */\n      add\n        /* \"#utility.yul\":648:676   */\n      and\n        /* \"#utility.yul\":638:676   */\n      swap1\n      pop\n        /* \"#utility.yul\":580:682   */\n      swap2\n      swap1\n      pop\n      jump\t// out\n        /* \"#utility.yul\":688:868   */\n    tag_121:\n        /* \"#utility.yul\":736:813   */\n      0x4e487b7100000000000000000000000000000000000000000000000000000000\n        /* \"#utility.yul\":733:734   */\n      0x00\n        /* \"#utility.yul\":726:814   */\n      mstore\n        /* \"#utility.yul\":833:837   */\n      0x41\n        /* \"#utility.yul\":830:831   */\n      0x04\n        /* \"#utility.yul\":823:838   */\n      mstore\n        /* \"#utility.yul\":857:861   */\n      0x24\n        /* \"#utility.yul\":854:855   */\n      0x00\n        /* \"#utility.yul\":847:862   */\n      revert\n        /* \"#utility.yul\":874:1155   */\n    tag_122:\n        /* \"#utility.yul\":957:984   */\n      tag_183\n        /* \"#utility.yul\":979:983   */\n      dup3\n        /* \"#utility.yul\":957:984   */\n      tag_120\n      jump\t// in\n    tag_183:\n        /* \"#utility.yul\":949:955   */\n      dup2\n        /* \"#utility.yul\":945:985   */\n      add\n        /* \"#utility.yul\":1087:1093   */\n      dup2\n        /* \"#utility.yul\":1075:1085   */\n      dup2\n        /* \"#utility.yul\":1072:1094   */\n      lt\n        /* \"#utility.yul\":1051:1069   */\n      0xffffffffffffffff\n        /* \"#utility.yul\":1039:1049   */\n      dup3\n        /* \"#utility.yul\":1036:1070   */\n      gt\n        /* \"#utility.yul\":1033:1095   */\n      or\n        /* \"#utility.yul\":1030:1118   */\n      iszero\n      tag_184\n      jumpi\n        /* \"#utility.yul\":1098:1116   */\n      tag_185\n      tag_121\n      jump\t// in\n    tag_185:\n        /* \"#utility.yul\":1030:1118   */\n    tag_184:\n        /* \"#utility.yul\":1138:1148   */\n      dup1\n        /* \"#utility.yul\":1134:1136   */\n      0x40\n        /* \"#utility.yul\":1127:1149   */\n      mstore\n        /* \"#utility.yul\":917:1155   */\n      pop\n        /* \"#utility.yul\":874:1155   */\n      pop\n      pop\n      jump\t// out\n        /* \"#utility.yul\":1161:1290   */\n    tag_123:\n        /* \"#utility.yul\":1195:1201   */\n      0x00\n        /* \"#utility.yul\":1222:1242   */\n      tag_187\n      tag_115\n      jump\t// in\n    tag_187:\n        /* \"#utility.yul\":1212:1242   */\n      swap1\n      pop\n        /* \"#utility.yul\":1251:1284   */\n      tag_188\n        /* \"#utility.yul\":1279:1283   */\n      dup3\n        /* \"#utility.yul\":1271:1277   */\n      dup3\n        /* \"#utility.yul\":1251:1284   */\n      tag_122\n      jump\t// in\n    tag_188:\n        /* \"#utility.yul\":1161:1290   */\n      swap2\n      swap1\n      pop\n      jump\t// out\n        /* \"#utility.yul\":1296:1604   */\n    tag_124:\n        /* \"#utility.yul\":1358:1362   */\n      0x00\n        /* \"#utility.yul\":1448:1466   */\n      0xffffffffffffffff\n        /* \"#utility.yul\":1440:1446   */\n      dup3\n        /* \"#utility.yul\":1437:1467   */\n      gt\n        /* \"#utility.yul\":1434:1490   */\n      iszero\n      tag_190\n      jumpi\n        /* \"#utility.yul\":1470:1488   */\n      tag_191\n      tag_121\n      jump\t// in\n    tag_191:\n        /* \"#utility.yul\":1434:1490   */\n    tag_190:\n        /* \"#utility.yul\":1508:1537   */\n      tag_192\n        /* \"#utility.yul\":1530:1536   */\n      dup3\n        /* \"#utility.yul\":1508:1537   */\n      tag_120\n      jump\t// in\n    tag_192:\n        /* \"#utility.yul\":1500:1537   */\n      swap1\n      pop\n        /* \"#utility.yul\":1592:1596   */\n      0x20\n        /* \"#utility.yul\":1586:1590   */\n      dup2\n        /* \"#utility.yul\":1582:1597   */\n      add\n        /* \"#utility.yul\":1574:1597   */\n      swap1\n      pop\n        /* \"#utility.yul\":1296:1604   */\n      swap2\n      swap1\n      pop\n      jump\t// out\n        /* \"#utility.yul\":1610:1756   */\n    tag_125:\n        /* \"#utility.yul\":1707:1713   */\n      dup3\n        /* \"#utility.yul\":1702:1705   */\n      dup2\n        /* \"#utility.yul\":1697:1700   */\n      dup4\n        /* \"#utility.yul\":1684:1714   */\n      calldatacopy\n        /* \"#utility.yul\":1748:1749   */\n      0x00\n        /* \"#utility.yul\":1739:1745   */\n      dup4\n        /* \"#utility.yul\":1734:1737   */\n      dup4\n        /* \"#utility.yul\":1730:1746   */\n      add\n        /* \"#utility.yul\":1723:1750   */\n      mstore\n        /* \"#utility.yul\":1610:1756   */\n      pop\n      pop\n      pop\n      jump\t// out\n        /* \"#utility.yul\":1762:2187   */\n    tag_126:\n        /* \"#utility.yul\":1840:1845   */\n      0x00\n        /* \"#utility.yul\":1865:1931   */\n      tag_195\n        /* \"#utility.yul\":1881:1930   */\n      tag_196\n        /* \"#utility.yul\":1923:1929   */\n      dup5\n        /* \"#utility.yul\":1881:1930   */\n      tag_124\n      jump\t// in\n    tag_196:\n        /* \"#utility.yul\":1865:1931   */\n      tag_123\n      jump\t// in\n    tag_195:\n        /* \"#utility.yul\":1856:1931   */\n      swap1\n      pop\n        /* \"#utility.yul\":1954:1960   */\n      dup3\n        /* \"#utility.yul\":1947:1952   */\n      dup2\n        /* \"#utility.yul\":1940:1961   */\n      mstore\n        /* \"#utility.yul\":1992:1996   */\n      0x20\n        /* \"#utility.yul\":1985:1990   */\n      dup2\n        /* \"#utility.yul\":1981:1997   */\n      add\n        /* \"#utility.yul\":2030:2033   */\n      dup5\n        /* \"#utility.yul\":2021:2027   */\n      dup5\n        /* \"#utility.yul\":2016:2019   */\n      dup5\n        /* \"#utility.yul\":2012:2028   */\n      add\n        /* \"#utility.yul\":2009:2034   */\n      gt\n        /* \"#utility.yul\":2006:2118   */\n      iszero\n      tag_197\n      jumpi\n        /* \"#utility.yul\":2037:2116   */\n      tag_198\n      tag_119\n      jump\t// in\n    tag_198:\n        /* \"#utility.yul\":2006:2118   */\n    tag_197:\n        /* \"#utility.yul\":2127:2181   */\n      tag_199\n        /* \"#utility.yul\":2174:2180   */\n      dup5\n        /* \"#utility.yul\":2169:2172   */\n      dup3\n        /* \"#utility.yul\":2164:2167   */\n      dup6\n        /* \"#utility.yul\":2127:2181   */\n      tag_125\n      jump\t// in\n    tag_199:\n        /* \"#utility.yul\":1846:2187   */\n      pop\n        /* \"#utility.yul\":1762:2187   */\n      swap4\n      swap3\n      pop\n      pop\n      pop\n      jump\t// out\n        /* \"#utility.yul\":2207:2547   */\n    tag_127:\n        /* \"#utility.yul\":2263:2268   */\n      0x00\n        /* \"#utility.yul\":2312:2315   */\n      dup3\n        /* \"#utility.yul\":2305:2309   */\n      0x1f\n        /* \"#utility.yul\":2297:2303   */\n      dup4\n        /* \"#utility.yul\":2293:2310   */\n      add\n        /* \"#utility.yul\":2289:2316   */\n      slt\n        /* \"#utility.yul\":2279:2401   */\n      tag_201\n      jumpi\n        /* \"#utility.yul\":2320:2399   */\n      tag_202\n      tag_118\n      jump\t// in\n    tag_202:\n        /* \"#utility.yul\":2279:2401   */\n    tag_201:\n        /* \"#utility.yul\":2437:2443   */\n      dup2\n        /* \"#utility.yul\":2424:2444   */\n      calldataload\n        /* \"#utility.yul\":2462:2541   */\n      tag_203\n        /* \"#utility.yul\":2537:2540   */\n      dup5\n        /* \"#utility.yul\":2529:2535   */\n      dup3\n        /* \"#utility.yul\":2522:2526   */\n      0x20\n        /* \"#utility.yul\":2514:2520   */\n      dup7\n        /* \"#utility.yul\":2510:2527   */\n      add\n        /* \"#utility.yul\":2462:2541   */\n      tag_126\n      jump\t// in\n    tag_203:\n        /* \"#utility.yul\":2453:2541   */\n      swap2\n      pop\n        /* \"#utility.yul\":2269:2547   */\n      pop\n        /* \"#utility.yul\":2207:2547   */\n      swap3\n      swap2\n      pop\n      pop\n      jump\t// out\n        /* \"#utility.yul\":2553:3062   */\n    tag_13:\n        /* \"#utility.yul\":2622:2628   */\n      0x00\n        /* \"#utility.yul\":2671:2673   */\n      0x20\n        /* \"#utility.yul\":2659:2668   */\n      dup3\n        /* \"#utility.yul\":2650:2657   */\n      dup5\n        /* \"#utility.yul\":2646:2669   */\n      sub\n        /* \"#utility.yul\":2642:2674   */\n      slt\n        /* \"#utility.yul\":2639:2758   */\n      iszero\n      tag_205\n      jumpi\n        /* \"#utility.yul\":2677:2756   */\n      tag_206\n      tag_116\n      jump\t// in\n    tag_206:\n        /* \"#utility.yul\":2639:2758   */\n    tag_205:\n        /* \"#utility.yul\":2825:2826   */\n      0x00\n        /* \"#utility.yul\":2814:2823   */\n      dup3\n        /* \"#utility.yul\":2810:2827   */\n      add\n        /* \"#utility.yul\":2797:2828   */\n      calldataload\n        /* \"#utility.yul\":2855:2873   */\n      0xffffffffffffffff\n        /* \"#utility.yul\":2847:2853   */\n      dup2\n        /* \"#utility.yul\":2844:2874   */\n      gt\n        /* \"#utility.yul\":2841:2958   */\n      iszero\n      tag_207\n      jumpi\n        /* \"#utility.yul\":2877:2956   */\n      tag_208\n      tag_117\n      jump\t// in\n    tag_208:\n        /* \"#utility.yul\":2841:2958   */\n    tag_207:\n        /* \"#utility.yul\":2982:3045   */\n      tag_209\n        /* \"#utility.yul\":3037:3044   */\n      dup5\n        /* \"#utility.yul\":3028:3034   */\n      dup3\n        /* \"#utility.yul\":3017:3026   */\n      dup6\n        /* \"#utility.yul\":3013:3035   */\n      add\n        /* \"#utility.yul\":2982:3045   */\n      tag_127\n      jump\t// in\n    tag_209:\n        /* \"#utility.yul\":2972:3045   */\n      swap2\n      pop\n        /* \"#utility.yul\":2768:3055   */\n      pop\n        /* \"#utility.yul\":2553:3062   */\n      swap3\n      swap2\n      pop\n      pop\n      jump\t// out\n        /* \"#utility.yul\":3068:3185   */\n    tag_128:\n        /* \"#utility.yul\":3177:3178   */\n      0x00\n        /* \"#utility.yul\":3174:3175   */\n      dup1\n        /* \"#utility.yul\":3167:3179   */\n      revert\n        /* \"#utility.yul\":3191:3308   */\n    tag_129:\n        /* \"#utility.yul\":3300:3301   */\n      0x00\n        /* \"#utility.yul\":3297:3298   */\n      dup1\n        /* \"#utility.yul\":3290:3302   */\n      revert\n        /* \"#utility.yul\":3314:3440   */\n    tag_130:\n        /* \"#utility.yul\":3351:3358   */\n      0x00\n        /* \"#utility.yul\":3391:3433   */\n      0xffffffffffffffffffffffffffffffffffffffff\n        /* \"#utility.yul\":3384:3389   */\n      dup3\n        /* \"#utility.yul\":3380:3434   */\n      and\n        /* \"#utility.yul\":3369:3434   */\n      swap1\n      pop\n        /* \"#utility.yul\":3314:3440   */\n      swap2\n      swap1\n      pop\n      jump\t// out\n        /* \"#utility.yul\":3446:3542   */\n    tag_131:\n        /* \"#utility.yul\":3483:3490   */\n      0x00\n        /* \"#utility.yul\":3512:3536   */\n      tag_214\n        /* \"#utility.yul\":3530:3535   */\n      dup3\n        /* \"#utility.yul\":3512:3536   */\n      tag_130\n      jump\t// in\n    tag_214:\n        /* \"#utility.yul\":3501:3536   */\n      swap1\n      pop\n        /* \"#utility.yul\":3446:3542   */\n      swap2\n      swap1\n      pop\n      jump\t// out\n        /* \"#utility.yul\":3548:3670   */\n    tag_132:\n        /* \"#utility.yul\":3621:3645   */\n      tag_216\n        /* \"#utility.yul\":3639:3644   */\n      dup2\n        /* \"#utility.yul\":3621:3645   */\n      tag_131\n      jump\t// in\n    tag_216:\n        /* \"#utility.yul\":3614:3619   */\n      dup2\n        /* \"#utility.yul\":3611:3646   */\n      eq\n        /* \"#utility.yul\":3601:3664   */\n      tag_217\n      jumpi\n        /* \"#utility.yul\":3660:3661   */\n      0x00\n        /* \"#utility.yul\":3657:3658   */\n      dup1\n        /* \"#utility.yul\":3650:3662   */\n      revert\n        /* \"#utility.yul\":3601:3664   */\n    tag_217:\n        /* \"#utility.yul\":3548:3670   */\n      pop\n      jump\t// out\n        /* \"#utility.yul\":3676:3815   */\n    tag_133:\n        /* \"#utility.yul\":3722:3727   */\n      0x00\n        /* \"#utility.yul\":3760:3766   */\n      dup2\n        /* \"#utility.yul\":3747:3767   */\n      calldataload\n        /* \"#utility.yul\":3738:3767   */\n      swap1\n      pop\n        /* \"#utility.yul\":3776:3809   */\n      tag_219\n        /* \"#utility.yul\":3803:3808   */\n      dup2\n        /* \"#utility.yul\":3776:3809   */\n      tag_132\n      jump\t// in\n    tag_219:\n        /* \"#utility.yul\":3676:3815   */\n      swap3\n      swap2\n      pop\n      pop\n      jump\t// out\n        /* \"#utility.yul\":3848:4590   */\n    tag_134:\n        /* \"#utility.yul\":3918:3923   */\n      0x00\n        /* \"#utility.yul\":3962:3966   */\n      0x40\n        /* \"#utility.yul\":3950:3959   */\n      dup3\n        /* \"#utility.yul\":3945:3948   */\n      dup5\n        /* \"#utility.yul\":3941:3960   */\n      sub\n        /* \"#utility.yul\":3937:3967   */\n      slt\n        /* \"#utility.yul\":3934:4051   */\n      iszero\n      tag_221\n      jumpi\n        /* \"#utility.yul\":3970:4049   */\n      tag_222\n      tag_128\n      jump\t// in\n    tag_222:\n        /* \"#utility.yul\":3934:4051   */\n    tag_221:\n        /* \"#utility.yul\":4069:4090   */\n      tag_223\n        /* \"#utility.yul\":4085:4089   */\n      0x40\n        /* \"#utility.yul\":4069:4090   */\n      tag_123\n      jump\t// in\n    tag_223:\n        /* \"#utility.yul\":4060:4090   */\n      swap1\n      pop\n        /* \"#utility.yul\":4147:4148   */\n      0x00\n        /* \"#utility.yul\":4187:4236   */\n      tag_224\n        /* \"#utility.yul\":4232:4235   */\n      dup5\n        /* \"#utility.yul\":4223:4229   */\n      dup3\n        /* \"#utility.yul\":4212:4221   */\n      dup6\n        /* \"#utility.yul\":4208:4230   */\n      add\n        /* \"#utility.yul\":4187:4236   */\n      tag_133\n      jump\t// in\n    tag_224:\n        /* \"#utility.yul\":4180:4184   */\n      0x00\n        /* \"#utility.yul\":4173:4178   */\n      dup4\n        /* \"#utility.yul\":4169:4185   */\n      add\n        /* \"#utility.yul\":4162:4237   */\n      mstore\n        /* \"#utility.yul\":4100:4248   */\n      pop\n        /* \"#utility.yul\":4339:4341   */\n      0x20\n        /* \"#utility.yul\":4328:4337   */\n      dup3\n        /* \"#utility.yul\":4324:4342   */\n      add\n        /* \"#utility.yul\":4311:4343   */\n      calldataload\n        /* \"#utility.yul\":4370:4388   */\n      0xffffffffffffffff\n        /* \"#utility.yul\":4362:4368   */\n      dup2\n        /* \"#utility.yul\":4359:4389   */\n      gt\n        /* \"#utility.yul\":4356:4473   */\n      iszero\n      tag_225\n      jumpi\n        /* \"#utility.yul\":4392:4471   */\n      tag_226\n      tag_129\n      jump\t// in\n    tag_226:\n        /* \"#utility.yul\":4356:4473   */\n    tag_225:\n        /* \"#utility.yul\":4512:4571   */\n      tag_227\n        /* \"#utility.yul\":4567:4570   */\n      dup5\n        /* \"#utility.yul\":4558:4564   */\n      dup3\n        /* \"#utility.yul\":4547:4556   */\n      dup6\n        /* \"#utility.yul\":4543:4565   */\n      add\n        /* \"#utility.yul\":4512:4571   */\n      tag_127\n      jump\t// in\n    tag_227:\n        /* \"#utility.yul\":4505:4509   */\n      0x20\n        /* \"#utility.yul\":4498:4503   */\n      dup4\n        /* \"#utility.yul\":4494:4510   */\n      add\n        /* \"#utility.yul\":4487:4572   */\n      mstore\n        /* \"#utility.yul\":4258:4583   */\n      pop\n        /* \"#utility.yul\":3848:4590   */\n      swap3\n      swap2\n      pop\n      pop\n      jump\t// out\n        /* \"#utility.yul\":4626:5208   */\n    tag_135:\n        /* \"#utility.yul\":4699:4704   */\n      0x00\n        /* \"#utility.yul\":4743:4747   */\n      0x20\n        /* \"#utility.yul\":4731:4740   */\n      dup3\n        /* \"#utility.yul\":4726:4729   */\n      dup5\n        /* \"#utility.yul\":4722:4741   */\n      sub\n        /* \"#utility.yul\":4718:4748   */\n      slt\n        /* \"#utility.yul\":4715:4832   */\n      iszero\n      tag_229\n      jumpi\n        /* \"#utility.yul\":4751:4830   */\n      tag_230\n      tag_128\n      jump\t// in\n    tag_230:\n        /* \"#utility.yul\":4715:4832   */\n    tag_229:\n        /* \"#utility.yul\":4850:4871   */\n      tag_231\n        /* \"#utility.yul\":4866:4870   */\n      0x20\n        /* \"#utility.yul\":4850:4871   */\n      tag_123\n      jump\t// in\n    tag_231:\n        /* \"#utility.yul\":4841:4871   */\n      swap1\n      pop\n        /* \"#utility.yul\":4958:4959   */\n      0x00\n        /* \"#utility.yul\":4947:4956   */\n      dup3\n        /* \"#utility.yul\":4943:4960   */\n      add\n        /* \"#utility.yul\":4930:4961   */\n      calldataload\n        /* \"#utility.yul\":4988:5006   */\n      0xffffffffffffffff\n        /* \"#utility.yul\":4980:4986   */\n      dup2\n        /* \"#utility.yul\":4977:5007   */\n      gt\n        /* \"#utility.yul\":4974:5091   */\n      iszero\n      tag_232\n      jumpi\n        /* \"#utility.yul\":5010:5089   */\n      tag_233\n      tag_129\n      jump\t// in\n    tag_233:\n        /* \"#utility.yul\":4974:5091   */\n    tag_232:\n        /* \"#utility.yul\":5130:5189   */\n      tag_234\n        /* \"#utility.yul\":5185:5188   */\n      dup5\n        /* \"#utility.yul\":5176:5182   */\n      dup3\n        /* \"#utility.yul\":5165:5174   */\n      dup6\n        /* \"#utility.yul\":5161:5183   */\n      add\n        /* \"#utility.yul\":5130:5189   */\n      tag_127\n      jump\t// in\n    tag_234:\n        /* \"#utility.yul\":5123:5127   */\n      0x00\n        /* \"#utility.yul\":5116:5121   */\n      dup4\n        /* \"#utility.yul\":5112:5128   */\n      add\n        /* \"#utility.yul\":5105:5190   */\n      mstore\n        /* \"#utility.yul\":4881:5201   */\n      pop\n        /* \"#utility.yul\":4626:5208   */\n      swap3\n      swap2\n      pop\n      pop\n      jump\t// out\n        /* \"#utility.yul\":5214:5291   */\n    tag_136:\n        /* \"#utility.yul\":5251:5258   */\n      0x00\n        /* \"#utility.yul\":5280:5285   */\n      dup2\n        /* \"#utility.yul\":5269:5285   */\n      swap1\n      pop\n        /* \"#utility.yul\":5214:5291   */\n      swap2\n      swap1\n      pop\n      jump\t// out\n        /* \"#utility.yul\":5297:5419   */\n    tag_137:\n        /* \"#utility.yul\":5370:5394   */\n      tag_237\n        /* \"#utility.yul\":5388:5393   */\n      dup2\n        /* \"#utility.yul\":5370:5394   */\n      tag_136\n      jump\t// in\n    tag_237:\n        /* \"#utility.yul\":5363:5368   */\n      dup2\n        /* \"#utility.yul\":5360:5395   */\n      eq\n        /* \"#utility.yul\":5350:5413   */\n      tag_238\n      jumpi\n        /* \"#utility.yul\":5409:5410   */\n      0x00\n        /* \"#utility.yul\":5406:5407   */\n      dup1\n        /* \"#utility.yul\":5399:5411   */\n      revert\n        /* \"#utility.yul\":5350:5413   */\n    tag_238:\n        /* \"#utility.yul\":5297:5419   */\n      pop\n      jump\t// out\n        /* \"#utility.yul\":5425:5564   */\n    tag_138:\n        /* \"#utility.yul\":5471:5476   */\n      0x00\n        /* \"#utility.yul\":5509:5515   */\n      dup2\n        /* \"#utility.yul\":5496:5516   */\n      calldataload\n        /* \"#utility.yul\":5487:5516   */\n      swap1\n      pop\n        /* \"#utility.yul\":5525:5558   */\n      tag_240\n        /* \"#utility.yul\":5552:5557   */\n      dup2\n        /* \"#utility.yul\":5525:5558   */\n      tag_137\n      jump\t// in\n    tag_240:\n        /* \"#utility.yul\":5425:5564   */\n      swap3\n      swap2\n      pop\n      pop\n      jump\t// out\n        /* \"#utility.yul\":5598:7376   */\n    tag_139:\n        /* \"#utility.yul\":5669:5674   */\n      0x00\n        /* \"#utility.yul\":5713:5717   */\n      0xa0\n        /* \"#utility.yul\":5701:5710   */\n      dup3\n        /* \"#utility.yul\":5696:5699   */\n      dup5\n        /* \"#utility.yul\":5692:5711   */\n      sub\n        /* \"#utility.yul\":5688:5718   */\n      slt\n        /* \"#utility.yul\":5685:5802   */\n      iszero\n      tag_242\n      jumpi\n        /* \"#utility.yul\":5721:5800   */\n      tag_243\n      tag_128\n      jump\t// in\n    tag_243:\n        /* \"#utility.yul\":5685:5802   */\n    tag_242:\n        /* \"#utility.yul\":5820:5841   */\n      tag_244\n        /* \"#utility.yul\":5836:5840   */\n      0xa0\n        /* \"#utility.yul\":5820:5841   */\n      tag_123\n      jump\t// in\n    tag_244:\n        /* \"#utility.yul\":5811:5841   */\n      swap1\n      pop\n        /* \"#utility.yul\":5929:5930   */\n      0x00\n        /* \"#utility.yul\":5918:5927   */\n      dup3\n        /* \"#utility.yul\":5914:5931   */\n      add\n        /* \"#utility.yul\":5901:5932   */\n      calldataload\n        /* \"#utility.yul\":5959:5977   */\n      0xffffffffffffffff\n        /* \"#utility.yul\":5951:5957   */\n      dup2\n        /* \"#utility.yul\":5948:5978   */\n      gt\n        /* \"#utility.yul\":5945:6062   */\n      iszero\n      tag_245\n      jumpi\n        /* \"#utility.yul\":5981:6060   */\n      tag_246\n      tag_129\n      jump\t// in\n    tag_246:\n        /* \"#utility.yul\":5945:6062   */\n    tag_245:\n        /* \"#utility.yul\":6101:6171   */\n      tag_247\n        /* \"#utility.yul\":6167:6170   */\n      dup5\n        /* \"#utility.yul\":6158:6164   */\n      dup3\n        /* \"#utility.yul\":6147:6156   */\n      dup6\n        /* \"#utility.yul\":6143:6165   */\n      add\n        /* \"#utility.yul\":6101:6171   */\n      tag_134\n      jump\t// in\n    tag_247:\n        /* \"#utility.yul\":6094:6098   */\n      0x00\n        /* \"#utility.yul\":6087:6092   */\n      dup4\n        /* \"#utility.yul\":6083:6099   */\n      add\n        /* \"#utility.yul\":6076:6172   */\n      mstore\n        /* \"#utility.yul\":5851:6183   */\n      pop\n        /* \"#utility.yul\":6274:6276   */\n      0x20\n        /* \"#utility.yul\":6263:6272   */\n      dup3\n        /* \"#utility.yul\":6259:6277   */\n      add\n        /* \"#utility.yul\":6246:6278   */\n      calldataload\n        /* \"#utility.yul\":6305:6323   */\n      0xffffffffffffffff\n        /* \"#utility.yul\":6297:6303   */\n      dup2\n        /* \"#utility.yul\":6294:6324   */\n      gt\n        /* \"#utility.yul\":6291:6408   */\n      iszero\n      tag_248\n      jumpi\n        /* \"#utility.yul\":6327:6406   */\n      tag_249\n      tag_129\n      jump\t// in\n    tag_249:\n        /* \"#utility.yul\":6291:6408   */\n    tag_248:\n        /* \"#utility.yul\":6447:6520   */\n      tag_250\n        /* \"#utility.yul\":6516:6519   */\n      dup5\n        /* \"#utility.yul\":6507:6513   */\n      dup3\n        /* \"#utility.yul\":6496:6505   */\n      dup6\n        /* \"#utility.yul\":6492:6514   */\n      add\n        /* \"#utility.yul\":6447:6520   */\n      tag_135\n      jump\t// in\n    tag_250:\n        /* \"#utility.yul\":6440:6444   */\n      0x20\n        /* \"#utility.yul\":6433:6438   */\n      dup4\n        /* \"#utility.yul\":6429:6445   */\n      add\n        /* \"#utility.yul\":6422:6521   */\n      mstore\n        /* \"#utility.yul\":6193:6532   */\n      pop\n        /* \"#utility.yul\":6622:6624   */\n      0x40\n        /* \"#utility.yul\":6611:6620   */\n      dup3\n        /* \"#utility.yul\":6607:6625   */\n      add\n        /* \"#utility.yul\":6594:6626   */\n      calldataload\n        /* \"#utility.yul\":6653:6671   */\n      0xffffffffffffffff\n        /* \"#utility.yul\":6645:6651   */\n      dup2\n        /* \"#utility.yul\":6642:6672   */\n      gt\n        /* \"#utility.yul\":6639:6756   */\n      iszero\n      tag_251\n      jumpi\n        /* \"#utility.yul\":6675:6754   */\n      tag_252\n      tag_129\n      jump\t// in\n    tag_252:\n        /* \"#utility.yul\":6639:6756   */\n    tag_251:\n        /* \"#utility.yul\":6795:6854   */\n      tag_253\n        /* \"#utility.yul\":6850:6853   */\n      dup5\n        /* \"#utility.yul\":6841:6847   */\n      dup3\n        /* \"#utility.yul\":6830:6839   */\n      dup6\n        /* \"#utility.yul\":6826:6848   */\n      add\n        /* \"#utility.yul\":6795:6854   */\n      tag_127\n      jump\t// in\n    tag_253:\n        /* \"#utility.yul\":6788:6792   */\n      0x40\n        /* \"#utility.yul\":6781:6786   */\n      dup4\n        /* \"#utility.yul\":6777:6793   */\n      add\n        /* \"#utility.yul\":6770:6855   */\n      mstore\n        /* \"#utility.yul\":6542:6866   */\n      pop\n        /* \"#utility.yul\":6956:6958   */\n      0x60\n        /* \"#utility.yul\":6945:6954   */\n      dup3\n        /* \"#utility.yul\":6941:6959   */\n      add\n        /* \"#utility.yul\":6928:6960   */\n      calldataload\n        /* \"#utility.yul\":6987:7005   */\n      0xffffffffffffffff\n        /* \"#utility.yul\":6979:6985   */\n      dup2\n        /* \"#utility.yul\":6976:7006   */\n      gt\n        /* \"#utility.yul\":6973:7090   */\n      iszero\n      tag_254\n      jumpi\n        /* \"#utility.yul\":7009:7088   */\n      tag_255\n      tag_129\n      jump\t// in\n    tag_255:\n        /* \"#utility.yul\":6973:7090   */\n    tag_254:\n        /* \"#utility.yul\":7129:7188   */\n      tag_256\n        /* \"#utility.yul\":7184:7187   */\n      dup5\n        /* \"#utility.yul\":7175:7181   */\n      dup3\n        /* \"#utility.yul\":7164:7173   */\n      dup6\n        /* \"#utility.yul\":7160:7182   */\n      add\n        /* \"#utility.yul\":7129:7188   */\n      tag_127\n      jump\t// in\n    tag_256:\n        /* \"#utility.yul\":7122:7126   */\n      0x60\n        /* \"#utility.yul\":7115:7120   */\n      dup4\n        /* \"#utility.yul\":7111:7127   */\n      add\n        /* \"#utility.yul\":7104:7189   */\n      mstore\n        /* \"#utility.yul\":6876:7200   */\n      pop\n        /* \"#utility.yul\":7266:7269   */\n      0x80\n        /* \"#utility.yul\":7308:7357   */\n      tag_257\n        /* \"#utility.yul\":7353:7356   */\n      dup5\n        /* \"#utility.yul\":7344:7350   */\n      dup3\n        /* \"#utility.yul\":7333:7342   */\n      dup6\n        /* \"#utility.yul\":7329:7351   */\n      add\n        /* \"#utility.yul\":7308:7357   */\n      tag_138\n      jump\t// in\n    tag_257:\n        /* \"#utility.yul\":7301:7305   */\n      0x80\n        /* \"#utility.yul\":7294:7299   */\n      dup4\n        /* \"#utility.yul\":7290:7306   */\n      add\n        /* \"#utility.yul\":7283:7358   */\n      mstore\n        /* \"#utility.yul\":7210:7369   */\n      pop\n        /* \"#utility.yul\":5598:7376   */\n      swap3\n      swap2\n      pop\n      pop\n      jump\t// out\n        /* \"#utility.yul\":7382:7915   */\n    tag_17:\n        /* \"#utility.yul\":7463:7469   */\n      0x00\n        /* \"#utility.yul\":7512:7514   */\n      0x20\n        /* \"#utility.yul\":7500:7509   */\n      dup3\n        /* \"#utility.yul\":7491:7498   */\n      dup5\n        /* \"#utility.yul\":7487:7510   */\n      sub\n        /* \"#utility.yul\":7483:7515   */\n      slt\n        /* \"#utility.yul\":7480:7599   */\n      iszero\n      tag_259\n      jumpi\n        /* \"#utility.yul\":7518:7597   */\n      tag_260\n      tag_116\n      jump\t// in\n    tag_260:\n        /* \"#utility.yul\":7480:7599   */\n    tag_259:\n        /* \"#utility.yul\":7666:7667   */\n      0x00\n        /* \"#utility.yul\":7655:7664   */\n      dup3\n        /* \"#utility.yul\":7651:7668   */\n      add\n        /* \"#utility.yul\":7638:7669   */\n      calldataload\n        /* \"#utility.yul\":7696:7714   */\n      0xffffffffffffffff\n        /* \"#utility.yul\":7688:7694   */\n      dup2\n        /* \"#utility.yul\":7685:7715   */\n      gt\n        /* \"#utility.yul\":7682:7799   */\n      iszero\n      tag_261\n      jumpi\n        /* \"#utility.yul\":7718:7797   */\n      tag_262\n      tag_117\n      jump\t// in\n    tag_262:\n        /* \"#utility.yul\":7682:7799   */\n    tag_261:\n        /* \"#utility.yul\":7823:7898   */\n      tag_263\n        /* \"#utility.yul\":7890:7897   */\n      dup5\n        /* \"#utility.yul\":7881:7887   */\n      dup3\n        /* \"#utility.yul\":7870:7879   */\n      dup6\n        /* \"#utility.yul\":7866:7888   */\n      add\n        /* \"#utility.yul\":7823:7898   */\n      tag_139\n      jump\t// in\n    tag_263:\n        /* \"#utility.yul\":7813:7898   */\n      swap2\n      pop\n        /* \"#utility.yul\":7609:7908   */\n      pop\n        /* \"#utility.yul\":7382:7915   */\n      swap3\n      swap2\n      pop\n      pop\n      jump\t// out\n        /* \"#utility.yul\":7921:8250   */\n    tag_21:\n        /* \"#utility.yul\":7980:7986   */\n      0x00\n        /* \"#utility.yul\":8029:8031   */\n      0x20\n        /* \"#utility.yul\":8017:8026   */\n      dup3\n        /* \"#utility.yul\":8008:8015   */\n      dup5\n        /* \"#utility.yul\":8004:8027   */\n      sub\n        /* \"#utility.yul\":8000:8032   */\n      slt\n        /* \"#utility.yul\":7997:8116   */\n      iszero\n      tag_265\n      jumpi\n        /* \"#utility.yul\":8035:8114   */\n      tag_266\n      tag_116\n      jump\t// in\n    tag_266:\n        /* \"#utility.yul\":7997:8116   */\n    tag_265:\n        /* \"#utility.yul\":8155:8156   */\n      0x00\n        /* \"#utility.yul\":8180:8233   */\n      tag_267\n        /* \"#utility.yul\":8225:8232   */\n      dup5\n        /* \"#utility.yul\":8216:8222   */\n      dup3\n        /* \"#utility.yul\":8205:8214   */\n      dup6\n        /* \"#utility.yul\":8201:8223   */\n      add\n        /* \"#utility.yul\":8180:8233   */\n      tag_133\n      jump\t// in\n    tag_267:\n        /* \"#utility.yul\":8170:8233   */\n      swap2\n      pop\n        /* \"#utility.yul\":8126:8243   */\n      pop\n        /* \"#utility.yul\":7921:8250   */\n      swap3\n      swap2\n      pop\n      pop\n      jump\t// out\n        /* \"#utility.yul\":8256:8355   */\n    tag_140:\n        /* \"#utility.yul\":8308:8314   */\n      0x00\n        /* \"#utility.yul\":8342:8347   */\n      dup2\n        /* \"#utility.yul\":8336:8348   */\n      mload\n        /* \"#utility.yul\":8326:8348   */\n      swap1\n      pop\n        /* \"#utility.yul\":8256:8355   */\n      swap2\n      swap1\n      pop\n      jump\t// out\n        /* \"#utility.yul\":8361:8530   */\n    tag_141:\n        /* \"#utility.yul\":8445:8456   */\n      0x00\n        /* \"#utility.yul\":8479:8485   */\n      dup3\n        /* \"#utility.yul\":8474:8477   */\n      dup3\n        /* \"#utility.yul\":8467:8486   */\n      mstore\n        /* \"#utility.yul\":8519:8523   */\n      0x20\n        /* \"#utility.yul\":8514:8517   */\n      dup3\n        /* \"#utility.yul\":8510:8524   */\n      add\n        /* \"#utility.yul\":8495:8524   */\n      swap1\n      pop\n        /* \"#utility.yul\":8361:8530   */\n      swap3\n      swap2\n      pop\n      pop\n      jump\t// out\n        /* \"#utility.yul\":8536:8782   */\n    tag_142:\n        /* \"#utility.yul\":8617:8618   */\n      0x00\n        /* \"#utility.yul\":8627:8740   */\n    tag_271:\n        /* \"#utility.yul\":8641:8647   */\n      dup4\n        /* \"#utility.yul\":8638:8639   */\n      dup2\n        /* \"#utility.yul\":8635:8648   */\n      lt\n        /* \"#utility.yul\":8627:8740   */\n      iszero\n      tag_273\n      jumpi\n        /* \"#utility.yul\":8726:8727   */\n      dup1\n        /* \"#utility.yul\":8721:8724   */\n      dup3\n        /* \"#utility.yul\":8717:8728   */\n      add\n        /* \"#utility.yul\":8711:8729   */\n      mload\n        /* \"#utility.yul\":8707:8708   */\n      dup2\n        /* \"#utility.yul\":8702:8705   */\n      dup5\n        /* \"#utility.yul\":8698:8709   */\n      add\n        /* \"#utility.yul\":8691:8730   */\n      mstore\n        /* \"#utility.yul\":8663:8665   */\n      0x20\n        /* \"#utility.yul\":8660:8661   */\n      dup2\n        /* \"#utility.yul\":8656:8666   */\n      add\n        /* \"#utility.yul\":8651:8666   */\n      swap1\n      pop\n        /* \"#utility.yul\":8627:8740   */\n      jump(tag_271)\n    tag_273:\n        /* \"#utility.yul\":8774:8775   */\n      0x00\n        /* \"#utility.yul\":8765:8771   */\n      dup5\n        /* \"#utility.yul\":8760:8763   */\n      dup5\n        /* \"#utility.yul\":8756:8772   */\n      add\n        /* \"#utility.yul\":8749:8776   */\n      mstore\n        /* \"#utility.yul\":8598:8782   */\n      pop\n        /* \"#utility.yul\":8536:8782   */\n      pop\n      pop\n      pop\n      jump\t// out\n        /* \"#utility.yul\":8788:9165   */\n    tag_143:\n        /* \"#utility.yul\":8876:8879   */\n      0x00\n        /* \"#utility.yul\":8904:8943   */\n      tag_275\n        /* \"#utility.yul\":8937:8942   */\n      dup3\n        /* \"#utility.yul\":8904:8943   */\n      tag_140\n      jump\t// in\n    tag_275:\n        /* \"#utility.yul\":8959:9030   */\n      tag_276\n        /* \"#utility.yul\":9023:9029   */\n      dup2\n        /* \"#utility.yul\":9018:9021   */\n      dup6\n        /* \"#utility.yul\":8959:9030   */\n      tag_141\n      jump\t// in\n    tag_276:\n        /* \"#utility.yul\":8952:9030   */\n      swap4\n      pop\n        /* \"#utility.yul\":9039:9104   */\n      tag_277\n        /* \"#utility.yul\":9097:9103   */\n      dup2\n        /* \"#utility.yul\":9092:9095   */\n      dup6\n        /* \"#utility.yul\":9085:9089   */\n      0x20\n        /* \"#utility.yul\":9078:9083   */\n      dup7\n        /* \"#utility.yul\":9074:9090   */\n      add\n        /* \"#utility.yul\":9039:9104   */\n      tag_142\n      jump\t// in\n    tag_277:\n        /* \"#utility.yul\":9129:9158   */\n      tag_278\n        /* \"#utility.yul\":9151:9157   */\n      dup2\n        /* \"#utility.yul\":9129:9158   */\n      tag_120\n      jump\t// in\n    tag_278:\n        /* \"#utility.yul\":9124:9127   */\n      dup5\n        /* \"#utility.yul\":9120:9159   */\n      add\n        /* \"#utility.yul\":9113:9159   */\n      swap2\n      pop\n        /* \"#utility.yul\":8880:9165   */\n      pop\n        /* \"#utility.yul\":8788:9165   */\n      swap3\n      swap2\n      pop\n      pop\n      jump\t// out\n        /* \"#utility.yul\":9171:9484   */\n    tag_24:\n        /* \"#utility.yul\":9284:9288   */\n      0x00\n        /* \"#utility.yul\":9322:9324   */\n      0x20\n        /* \"#utility.yul\":9311:9320   */\n      dup3\n        /* \"#utility.yul\":9307:9325   */\n      add\n        /* \"#utility.yul\":9299:9325   */\n      swap1\n      pop\n        /* \"#utility.yul\":9371:9380   */\n      dup2\n        /* \"#utility.yul\":9365:9369   */\n      dup2\n        /* \"#utility.yul\":9361:9381   */\n      sub\n        /* \"#utility.yul\":9357:9358   */\n      0x00\n        /* \"#utility.yul\":9346:9355   */\n      dup4\n        /* \"#utility.yul\":9342:9359   */\n      add\n        /* \"#utility.yul\":9335:9382   */\n      mstore\n        /* \"#utility.yul\":9399:9477   */\n      tag_280\n        /* \"#utility.yul\":9472:9476   */\n      dup2\n        /* \"#utility.yul\":9463:9469   */\n      dup5\n        /* \"#utility.yul\":9399:9477   */\n      tag_143\n      jump\t// in\n    tag_280:\n        /* \"#utility.yul\":9391:9477   */\n      swap1\n      pop\n        /* \"#utility.yul\":9171:9484   */\n      swap3\n      swap2\n      pop\n      pop\n      jump\t// out\n        /* \"#utility.yul\":9490:9819   */\n    tag_27:\n        /* \"#utility.yul\":9549:9555   */\n      0x00\n        /* \"#utility.yul\":9598:9600   */\n      0x20\n        /* \"#utility.yul\":9586:9595   */\n      dup3\n        /* \"#utility.yul\":9577:9584   */\n      dup5\n        /* \"#utility.yul\":9573:9596   */\n      sub\n        /* \"#utility.yul\":9569:9601   */\n      slt\n        /* \"#utility.yul\":9566:9685   */\n      iszero\n      tag_282\n      jumpi\n        /* \"#utility.yul\":9604:9683   */\n      tag_283\n      tag_116\n      jump\t// in\n    tag_283:\n        /* \"#utility.yul\":9566:9685   */\n    tag_282:\n        /* \"#utility.yul\":9724:9725   */\n      0x00\n        /* \"#utility.yul\":9749:9802   */\n      tag_284\n        /* \"#utility.yul\":9794:9801   */\n      dup5\n        /* \"#utility.yul\":9785:9791   */\n      dup3\n        /* \"#utility.yul\":9774:9783   */\n      dup6\n        /* \"#utility.yul\":9770:9792   */\n      add\n        /* \"#utility.yul\":9749:9802   */\n      tag_138\n      jump\t// in\n    tag_284:\n        /* \"#utility.yul\":9739:9802   */\n      swap2\n      pop\n        /* \"#utility.yul\":9695:9812   */\n      pop\n        /* \"#utility.yul\":9490:9819   */\n      swap3\n      swap2\n      pop\n      pop\n      jump\t// out\n        /* \"#utility.yul\":9825:9943   */\n    tag_144:\n        /* \"#utility.yul\":9912:9936   */\n      tag_286\n        /* \"#utility.yul\":9930:9935   */\n      dup2\n        /* \"#utility.yul\":9912:9936   */\n      tag_136\n      jump\t// in\n    tag_286:\n        /* \"#utility.yul\":9907:9910   */\n      dup3\n        /* \"#utility.yul\":9900:9937   */\n      mstore\n        /* \"#utility.yul\":9825:9943   */\n      pop\n      pop\n      jump\t// out\n        /* \"#utility.yul\":9949:10171   */\n    tag_33:\n        /* \"#utility.yul\":10042:10046   */\n      0x00\n        /* \"#utility.yul\":10080:10082   */\n      0x20\n        /* \"#utility.yul\":10069:10078   */\n      dup3\n        /* \"#utility.yul\":10065:10083   */\n      add\n        /* \"#utility.yul\":10057:10083   */\n      swap1\n      pop\n        /* \"#utility.yul\":10093:10164   */\n      tag_288\n        /* \"#utility.yul\":10161:10162   */\n      0x00\n        /* \"#utility.yul\":10150:10159   */\n      dup4\n        /* \"#utility.yul\":10146:10163   */\n      add\n        /* \"#utility.yul\":10137:10143   */\n      dup5\n        /* \"#utility.yul\":10093:10164   */\n      tag_144\n      jump\t// in\n    tag_288:\n        /* \"#utility.yul\":9949:10171   */\n      swap3\n      swap2\n      pop\n      pop\n      jump\t// out\n        /* \"#utility.yul\":10177:10285   */\n    tag_145:\n        /* \"#utility.yul\":10254:10278   */\n      tag_290\n        /* \"#utility.yul\":10272:10277   */\n      dup2\n        /* \"#utility.yul\":10254:10278   */\n      tag_131\n      jump\t// in\n    tag_290:\n        /* \"#utility.yul\":10249:10252   */\n      dup3\n        /* \"#utility.yul\":10242:10279   */\n      mstore\n        /* \"#utility.yul\":10177:10285   */\n      pop\n      pop\n      jump\t// out\n        /* \"#utility.yul\":10291:10450   */\n    tag_146:\n        /* \"#utility.yul\":10365:10376   */\n      0x00\n        /* \"#utility.yul\":10399:10405   */\n      dup3\n        /* \"#utility.yul\":10394:10397   */\n      dup3\n        /* \"#utility.yul\":10387:10406   */\n      mstore\n        /* \"#utility.yul\":10439:10443   */\n      0x20\n        /* \"#utility.yul\":10434:10437   */\n      dup3\n        /* \"#utility.yul\":10430:10444   */\n      add\n        /* \"#utility.yul\":10415:10444   */\n      swap1\n      pop\n        /* \"#utility.yul\":10291:10450   */\n      swap3\n      swap2\n      pop\n      pop\n      jump\t// out\n        /* \"#utility.yul\":10456:10813   */\n    tag_147:\n        /* \"#utility.yul\":10534:10537   */\n      0x00\n        /* \"#utility.yul\":10562:10601   */\n      tag_293\n        /* \"#utility.yul\":10595:10600   */\n      dup3\n        /* \"#utility.yul\":10562:10601   */\n      tag_140\n      jump\t// in\n    tag_293:\n        /* \"#utility.yul\":10617:10678   */\n      tag_294\n        /* \"#utility.yul\":10671:10677   */\n      dup2\n        /* \"#utility.yul\":10666:10669   */\n      dup6\n        /* \"#utility.yul\":10617:10678   */\n      tag_146\n      jump\t// in\n    tag_294:\n        /* \"#utility.yul\":10610:10678   */\n      swap4\n      pop\n        /* \"#utility.yul\":10687:10752   */\n      tag_295\n        /* \"#utility.yul\":10745:10751   */\n      dup2\n        /* \"#utility.yul\":10740:10743   */\n      dup6\n        /* \"#utility.yul\":10733:10737   */\n      0x20\n        /* \"#utility.yul\":10726:10731   */\n      dup7\n        /* \"#utility.yul\":10722:10738   */\n      add\n        /* \"#utility.yul\":10687:10752   */\n      tag_142\n      jump\t// in\n    tag_295:\n        /* \"#utility.yul\":10777:10806   */\n      tag_296\n        /* \"#utility.yul\":10799:10805   */\n      dup2\n        /* \"#utility.yul\":10777:10806   */\n      tag_120\n      jump\t// in\n    tag_296:\n        /* \"#utility.yul\":10772:10775   */\n      dup5\n        /* \"#utility.yul\":10768:10807   */\n      add\n        /* \"#utility.yul\":10761:10807   */\n      swap2\n      pop\n        /* \"#utility.yul\":10538:10813   */\n      pop\n        /* \"#utility.yul\":10456:10813   */\n      swap3\n      swap2\n      pop\n      pop\n      jump\t// out\n        /* \"#utility.yul\":10869:11459   */\n    tag_148:\n        /* \"#utility.yul\":10970:10973   */\n      0x00\n        /* \"#utility.yul\":11006:11010   */\n      0x40\n        /* \"#utility.yul\":11001:11004   */\n      dup4\n        /* \"#utility.yul\":10997:11011   */\n      add\n        /* \"#utility.yul\":11091:11095   */\n      0x00\n        /* \"#utility.yul\":11084:11089   */\n      dup4\n        /* \"#utility.yul\":11080:11096   */\n      add\n        /* \"#utility.yul\":11074:11097   */\n      mload\n        /* \"#utility.yul\":11110:11173   */\n      tag_298\n        /* \"#utility.yul\":11167:11171   */\n      0x00\n        /* \"#utility.yul\":11162:11165   */\n      dup7\n        /* \"#utility.yul\":11158:11172   */\n      add\n        /* \"#utility.yul\":11144:11156   */\n      dup3\n        /* \"#utility.yul\":11110:11173   */\n      tag_145\n      jump\t// in\n    tag_298:\n        /* \"#utility.yul\":11021:11183   */\n      pop\n        /* \"#utility.yul\":11269:11273   */\n      0x20\n        /* \"#utility.yul\":11262:11267   */\n      dup4\n        /* \"#utility.yul\":11258:11274   */\n      add\n        /* \"#utility.yul\":11252:11275   */\n      mload\n        /* \"#utility.yul\":11322:11325   */\n      dup5\n        /* \"#utility.yul\":11316:11320   */\n      dup3\n        /* \"#utility.yul\":11312:11326   */\n      sub\n        /* \"#utility.yul\":11305:11309   */\n      0x20\n        /* \"#utility.yul\":11300:11303   */\n      dup7\n        /* \"#utility.yul\":11296:11310   */\n      add\n        /* \"#utility.yul\":11289:11327   */\n      mstore\n        /* \"#utility.yul\":11348:11421   */\n      tag_299\n        /* \"#utility.yul\":11416:11420   */\n      dup3\n        /* \"#utility.yul\":11402:11414   */\n      dup3\n        /* \"#utility.yul\":11348:11421   */\n      tag_147\n      jump\t// in\n    tag_299:\n        /* \"#utility.yul\":11340:11421   */\n      swap2\n      pop\n        /* \"#utility.yul\":11193:11432   */\n      pop\n        /* \"#utility.yul\":11449:11453   */\n      dup1\n        /* \"#utility.yul\":11442:11453   */\n      swap2\n      pop\n        /* \"#utility.yul\":10975:11459   */\n      pop\n        /* \"#utility.yul\":10869:11459   */\n      swap3\n      swap2\n      pop\n      pop\n      jump\t// out\n        /* \"#utility.yul\":11517:12109   */\n    tag_149:\n        /* \"#utility.yul\":11620:11623   */\n      0x00\n        /* \"#utility.yul\":11656:11660   */\n      0x40\n        /* \"#utility.yul\":11651:11654   */\n      dup4\n        /* \"#utility.yul\":11647:11661   */\n      add\n        /* \"#utility.yul\":11741:11745   */\n      0x00\n        /* \"#utility.yul\":11734:11739   */\n      dup4\n        /* \"#utility.yul\":11730:11746   */\n      add\n        /* \"#utility.yul\":11724:11747   */\n      mload\n        /* \"#utility.yul\":11760:11823   */\n      tag_301\n        /* \"#utility.yul\":11817:11821   */\n      0x00\n        /* \"#utility.yul\":11812:11815   */\n      dup7\n        /* \"#utility.yul\":11808:11822   */\n      add\n        /* \"#utility.yul\":11794:11806   */\n      dup3\n        /* \"#utility.yul\":11760:11823   */\n      tag_145\n      jump\t// in\n    tag_301:\n        /* \"#utility.yul\":11671:11833   */\n      pop\n        /* \"#utility.yul\":11919:11923   */\n      0x20\n        /* \"#utility.yul\":11912:11917   */\n      dup4\n        /* \"#utility.yul\":11908:11924   */\n      add\n        /* \"#utility.yul\":11902:11925   */\n      mload\n        /* \"#utility.yul\":11972:11975   */\n      dup5\n        /* \"#utility.yul\":11966:11970   */\n      dup3\n        /* \"#utility.yul\":11962:11976   */\n      sub\n        /* \"#utility.yul\":11955:11959   */\n      0x20\n        /* \"#utility.yul\":11950:11953   */\n      dup7\n        /* \"#utility.yul\":11946:11960   */\n      add\n        /* \"#utility.yul\":11939:11977   */\n      mstore\n        /* \"#utility.yul\":11998:12071   */\n      tag_302\n        /* \"#utility.yul\":12066:12070   */\n      dup3\n        /* \"#utility.yul\":12052:12064   */\n      dup3\n        /* \"#utility.yul\":11998:12071   */\n      tag_147\n      jump\t// in\n    tag_302:\n        /* \"#utility.yul\":11990:12071   */\n      swap2\n      pop\n        /* \"#utility.yul\":11843:12082   */\n      pop\n        /* \"#utility.yul\":12099:12103   */\n      dup1\n        /* \"#utility.yul\":12092:12103   */\n      swap2\n      pop\n        /* \"#utility.yul\":11625:12109   */\n      pop\n        /* \"#utility.yul\":11517:12109   */\n      swap3\n      swap2\n      pop\n      pop\n      jump\t// out\n        /* \"#utility.yul\":12169:13075   */\n    tag_150:\n        /* \"#utility.yul\":12284:12287   */\n      0x00\n        /* \"#utility.yul\":12320:12324   */\n      0x60\n        /* \"#utility.yul\":12315:12318   */\n      dup4\n        /* \"#utility.yul\":12311:12325   */\n      add\n        /* \"#utility.yul\":12408:12412   */\n      0x00\n        /* \"#utility.yul\":12401:12406   */\n      dup4\n        /* \"#utility.yul\":12397:12413   */\n      add\n        /* \"#utility.yul\":12391:12414   */\n      mload\n        /* \"#utility.yul\":12461:12464   */\n      dup5\n        /* \"#utility.yul\":12455:12459   */\n      dup3\n        /* \"#utility.yul\":12451:12465   */\n      sub\n        /* \"#utility.yul\":12444:12448   */\n      0x00\n        /* \"#utility.yul\":12439:12442   */\n      dup7\n        /* \"#utility.yul\":12435:12449   */\n      add\n        /* \"#utility.yul\":12428:12466   */\n      mstore\n        /* \"#utility.yul\":12487:12582   */\n      tag_304\n        /* \"#utility.yul\":12577:12581   */\n      dup3\n        /* \"#utility.yul\":12563:12575   */\n      dup3\n        /* \"#utility.yul\":12487:12582   */\n      tag_148\n      jump\t// in\n    tag_304:\n        /* \"#utility.yul\":12479:12582   */\n      swap2\n      pop\n        /* \"#utility.yul\":12335:12593   */\n      pop\n        /* \"#utility.yul\":12685:12689   */\n      0x20\n        /* \"#utility.yul\":12678:12683   */\n      dup4\n        /* \"#utility.yul\":12674:12690   */\n      add\n        /* \"#utility.yul\":12668:12691   */\n      mload\n        /* \"#utility.yul\":12704:12767   */\n      tag_305\n        /* \"#utility.yul\":12761:12765   */\n      0x20\n        /* \"#utility.yul\":12756:12759   */\n      dup7\n        /* \"#utility.yul\":12752:12766   */\n      add\n        /* \"#utility.yul\":12738:12750   */\n      dup3\n        /* \"#utility.yul\":12704:12767   */\n      tag_145\n      jump\t// in\n    tag_305:\n        /* \"#utility.yul\":12603:12777   */\n      pop\n        /* \"#utility.yul\":12861:12865   */\n      0x40\n        /* \"#utility.yul\":12854:12859   */\n      dup4\n        /* \"#utility.yul\":12850:12866   */\n      add\n        /* \"#utility.yul\":12844:12867   */\n      mload\n        /* \"#utility.yul\":12914:12917   */\n      dup5\n        /* \"#utility.yul\":12908:12912   */\n      dup3\n        /* \"#utility.yul\":12904:12918   */\n      sub\n        /* \"#utility.yul\":12897:12901   */\n      0x40\n        /* \"#utility.yul\":12892:12895   */\n      dup7\n        /* \"#utility.yul\":12888:12902   */\n      add\n        /* \"#utility.yul\":12881:12919   */\n      mstore\n        /* \"#utility.yul\":12940:13037   */\n      tag_306\n        /* \"#utility.yul\":13032:13036   */\n      dup3\n        /* \"#utility.yul\":13018:13030   */\n      dup3\n        /* \"#utility.yul\":12940:13037   */\n      tag_149\n      jump\t// in\n    tag_306:\n        /* \"#utility.yul\":12932:13037   */\n      swap2\n      pop\n        /* \"#utility.yul\":12787:13048   */\n      pop\n        /* \"#utility.yul\":13065:13069   */\n      dup1\n        /* \"#utility.yul\":13058:13069   */\n      swap2\n      pop\n        /* \"#utility.yul\":12289:13075   */\n      pop\n        /* \"#utility.yul\":12169:13075   */\n      swap3\n      swap2\n      pop\n      pop\n      jump\t// out\n        /* \"#utility.yul\":13081:13777   */\n    tag_38:\n        /* \"#utility.yul\":13304:13308   */\n      0x00\n        /* \"#utility.yul\":13342:13345   */\n      0x80\n        /* \"#utility.yul\":13331:13340   */\n      dup3\n        /* \"#utility.yul\":13327:13346   */\n      add\n        /* \"#utility.yul\":13319:13346   */\n      swap1\n      pop\n        /* \"#utility.yul\":13356:13427   */\n      tag_308\n        /* \"#utility.yul\":13424:13425   */\n      0x00\n        /* \"#utility.yul\":13413:13422   */\n      dup4\n        /* \"#utility.yul\":13409:13426   */\n      add\n        /* \"#utility.yul\":13400:13406   */\n      dup8\n        /* \"#utility.yul\":13356:13427   */\n      tag_144\n      jump\t// in\n    tag_308:\n        /* \"#utility.yul\":13474:13483   */\n      dup2\n        /* \"#utility.yul\":13468:13472   */\n      dup2\n        /* \"#utility.yul\":13464:13484   */\n      sub\n        /* \"#utility.yul\":13459:13461   */\n      0x20\n        /* \"#utility.yul\":13448:13457   */\n      dup4\n        /* \"#utility.yul\":13444:13462   */\n      add\n        /* \"#utility.yul\":13437:13485   */\n      mstore\n        /* \"#utility.yul\":13502:13606   */\n      tag_309\n        /* \"#utility.yul\":13601:13605   */\n      dup2\n        /* \"#utility.yul\":13592:13598   */\n      dup7\n        /* \"#utility.yul\":13502:13606   */\n      tag_150\n      jump\t// in\n    tag_309:\n        /* \"#utility.yul\":13494:13606   */\n      swap1\n      pop\n        /* \"#utility.yul\":13616:13688   */\n      tag_310\n        /* \"#utility.yul\":13684:13686   */\n      0x40\n        /* \"#utility.yul\":13673:13682   */\n      dup4\n        /* \"#utility.yul\":13669:13687   */\n      add\n        /* \"#utility.yul\":13660:13666   */\n      dup6\n        /* \"#utility.yul\":13616:13688   */\n      tag_144\n      jump\t// in\n    tag_310:\n        /* \"#utility.yul\":13698:13770   */\n      tag_311\n        /* \"#utility.yul\":13766:13768   */\n      0x60\n        /* \"#utility.yul\":13755:13764   */\n      dup4\n        /* \"#utility.yul\":13751:13769   */\n      add\n        /* \"#utility.yul\":13742:13748   */\n      dup5\n        /* \"#utility.yul\":13698:13770   */\n      tag_144\n      jump\t// in\n    tag_311:\n        /* \"#utility.yul\":13081:13777   */\n      swap6\n      swap5\n      pop\n      pop\n      pop\n      pop\n      pop\n      jump\t// out\n        /* \"#utility.yul\":13811:14554   */\n    tag_151:\n        /* \"#utility.yul\":13882:13887   */\n      0x00\n        /* \"#utility.yul\":13926:13930   */\n      0x40\n        /* \"#utility.yul\":13914:13923   */\n      dup3\n        /* \"#utility.yul\":13909:13912   */\n      dup5\n        /* \"#utility.yul\":13905:13924   */\n      sub\n        /* \"#utility.yul\":13901:13931   */\n      slt\n        /* \"#utility.yul\":13898:14015   */\n      iszero\n      tag_313\n      jumpi\n        /* \"#utility.yul\":13934:14013   */\n      tag_314\n      tag_128\n      jump\t// in\n    tag_314:\n        /* \"#utility.yul\":13898:14015   */\n    tag_313:\n        /* \"#utility.yul\":14033:14054   */\n      tag_315\n        /* \"#utility.yul\":14049:14053   */\n      0x40\n        /* \"#utility.yul\":14033:14054   */\n      tag_123\n      jump\t// in\n    tag_315:\n        /* \"#utility.yul\":14024:14054   */\n      swap1\n      pop\n        /* \"#utility.yul\":14111:14112   */\n      0x00\n        /* \"#utility.yul\":14151:14200   */\n      tag_316\n        /* \"#utility.yul\":14196:14199   */\n      dup5\n        /* \"#utility.yul\":14187:14193   */\n      dup3\n        /* \"#utility.yul\":14176:14185   */\n      dup6\n        /* \"#utility.yul\":14172:14194   */\n      add\n        /* \"#utility.yul\":14151:14200   */\n      tag_133\n      jump\t// in\n    tag_316:\n        /* \"#utility.yul\":14144:14148   */\n      0x00\n        /* \"#utility.yul\":14137:14142   */\n      dup4\n        /* \"#utility.yul\":14133:14149   */\n      add\n        /* \"#utility.yul\":14126:14201   */\n      mstore\n        /* \"#utility.yul\":14064:14212   */\n      pop\n        /* \"#utility.yul\":14303:14305   */\n      0x20\n        /* \"#utility.yul\":14292:14301   */\n      dup3\n        /* \"#utility.yul\":14288:14306   */\n      add\n        /* \"#utility.yul\":14275:14307   */\n      calldataload\n        /* \"#utility.yul\":14334:14352   */\n      0xffffffffffffffff\n        /* \"#utility.yul\":14326:14332   */\n      dup2\n        /* \"#utility.yul\":14323:14353   */\n      gt\n        /* \"#utility.yul\":14320:14437   */\n      iszero\n      tag_317\n      jumpi\n        /* \"#utility.yul\":14356:14435   */\n      tag_318\n      tag_129\n      jump\t// in\n    tag_318:\n        /* \"#utility.yul\":14320:14437   */\n    tag_317:\n        /* \"#utility.yul\":14476:14535   */\n      tag_319\n        /* \"#utility.yul\":14531:14534   */\n      dup5\n        /* \"#utility.yul\":14522:14528   */\n      dup3\n        /* \"#utility.yul\":14511:14520   */\n      dup6\n        /* \"#utility.yul\":14507:14529   */\n      add\n        /* \"#utility.yul\":14476:14535   */\n      tag_127\n      jump\t// in\n    tag_319:\n        /* \"#utility.yul\":14469:14473   */\n      0x20\n        /* \"#utility.yul\":14462:14467   */\n      dup4\n        /* \"#utility.yul\":14458:14474   */\n      add\n        /* \"#utility.yul\":14451:14536   */\n      mstore\n        /* \"#utility.yul\":14222:14547   */\n      pop\n        /* \"#utility.yul\":13811:14554   */\n      swap3\n      swap2\n      pop\n      pop\n      jump\t// out\n        /* \"#utility.yul\":14589:15698   */\n    tag_152:\n        /* \"#utility.yul\":14661:14666   */\n      0x00\n        /* \"#utility.yul\":14705:14709   */\n      0x60\n        /* \"#utility.yul\":14693:14702   */\n      dup3\n        /* \"#utility.yul\":14688:14691   */\n      dup5\n        /* \"#utility.yul\":14684:14703   */\n      sub\n        /* \"#utility.yul\":14680:14710   */\n      slt\n        /* \"#utility.yul\":14677:14794   */\n      iszero\n      tag_321\n      jumpi\n        /* \"#utility.yul\":14713:14792   */\n      tag_322\n      tag_128\n      jump\t// in\n    tag_322:\n        /* \"#utility.yul\":14677:14794   */\n    tag_321:\n        /* \"#utility.yul\":14812:14833   */\n      tag_323\n        /* \"#utility.yul\":14828:14832   */\n      0x60\n        /* \"#utility.yul\":14812:14833   */\n      tag_123\n      jump\t// in\n    tag_323:\n        /* \"#utility.yul\":14803:14833   */\n      swap1\n      pop\n        /* \"#utility.yul\":14921:14922   */\n      0x00\n        /* \"#utility.yul\":14910:14919   */\n      dup3\n        /* \"#utility.yul\":14906:14923   */\n      add\n        /* \"#utility.yul\":14893:14924   */\n      calldataload\n        /* \"#utility.yul\":14951:14969   */\n      0xffffffffffffffff\n        /* \"#utility.yul\":14943:14949   */\n      dup2\n        /* \"#utility.yul\":14940:14970   */\n      gt\n        /* \"#utility.yul\":14937:15054   */\n      iszero\n      tag_324\n      jumpi\n        /* \"#utility.yul\":14973:15052   */\n      tag_325\n      tag_129\n      jump\t// in\n    tag_325:\n        /* \"#utility.yul\":14937:15054   */\n    tag_324:\n        /* \"#utility.yul\":15093:15163   */\n      tag_326\n        /* \"#utility.yul\":15159:15162   */\n      dup5\n        /* \"#utility.yul\":15150:15156   */\n      dup3\n        /* \"#utility.yul\":15139:15148   */\n      dup6\n        /* \"#utility.yul\":15135:15157   */\n      add\n        /* \"#utility.yul\":15093:15163   */\n      tag_134\n      jump\t// in\n    tag_326:\n        /* \"#utility.yul\":15086:15090   */\n      0x00\n        /* \"#utility.yul\":15079:15084   */\n      dup4\n        /* \"#utility.yul\":15075:15091   */\n      add\n        /* \"#utility.yul\":15068:15164   */\n      mstore\n        /* \"#utility.yul\":14843:15175   */\n      pop\n        /* \"#utility.yul\":15244:15246   */\n      0x20\n        /* \"#utility.yul\":15285:15334   */\n      tag_327\n        /* \"#utility.yul\":15330:15333   */\n      dup5\n        /* \"#utility.yul\":15321:15327   */\n      dup3\n        /* \"#utility.yul\":15310:15319   */\n      dup6\n        /* \"#utility.yul\":15306:15328   */\n      add\n        /* \"#utility.yul\":15285:15334   */\n      tag_133\n      jump\t// in\n    tag_327:\n        /* \"#utility.yul\":15278:15282   */\n      0x20\n        /* \"#utility.yul\":15271:15276   */\n      dup4\n        /* \"#utility.yul\":15267:15283   */\n      add\n        /* \"#utility.yul\":15260:15335   */\n      mstore\n        /* \"#utility.yul\":15185:15346   */\n      pop\n        /* \"#utility.yul\":15435:15437   */\n      0x40\n        /* \"#utility.yul\":15424:15433   */\n      dup3\n        /* \"#utility.yul\":15420:15438   */\n      add\n        /* \"#utility.yul\":15407:15439   */\n      calldataload\n        /* \"#utility.yul\":15466:15484   */\n      0xffffffffffffffff\n        /* \"#utility.yul\":15458:15464   */\n      dup2\n        /* \"#utility.yul\":15455:15485   */\n      gt\n        /* \"#utility.yul\":15452:15569   */\n      iszero\n      tag_328\n      jumpi\n        /* \"#utility.yul\":15488:15567   */\n      tag_329\n      tag_129\n      jump\t// in\n    tag_329:\n        /* \"#utility.yul\":15452:15569   */\n    tag_328:\n        /* \"#utility.yul\":15608:15679   */\n      tag_330\n        /* \"#utility.yul\":15675:15678   */\n      dup5\n        /* \"#utility.yul\":15666:15672   */\n      dup3\n        /* \"#utility.yul\":15655:15664   */\n      dup6\n        /* \"#utility.yul\":15651:15673   */\n      add\n        /* \"#utility.yul\":15608:15679   */\n      tag_151\n      jump\t// in\n    tag_330:\n        /* \"#utility.yul\":15601:15605   */\n      0x40\n        /* \"#utility.yul\":15594:15599   */\n      dup4\n        /* \"#utility.yul\":15590:15606   */\n      add\n        /* \"#utility.yul\":15583:15680   */\n      mstore\n        /* \"#utility.yul\":15356:15691   */\n      pop\n        /* \"#utility.yul\":14589:15698   */\n      swap3\n      swap2\n      pop\n      pop\n      jump\t// out\n        /* \"#utility.yul\":15735:16823   */\n    tag_153:\n        /* \"#utility.yul\":15809:15814   */\n      0x00\n        /* \"#utility.yul\":15853:15857   */\n      0x80\n        /* \"#utility.yul\":15841:15850   */\n      dup3\n        /* \"#utility.yul\":15836:15839   */\n      dup5\n        /* \"#utility.yul\":15832:15851   */\n      sub\n        /* \"#utility.yul\":15828:15858   */\n      slt\n        /* \"#utility.yul\":15825:15942   */\n      iszero\n      tag_332\n      jumpi\n        /* \"#utility.yul\":15861:15940   */\n      tag_333\n      tag_128\n      jump\t// in\n    tag_333:\n        /* \"#utility.yul\":15825:15942   */\n    tag_332:\n        /* \"#utility.yul\":15960:15981   */\n      tag_334\n        /* \"#utility.yul\":15976:15980   */\n      0x80\n        /* \"#utility.yul\":15960:15981   */\n      tag_123\n      jump\t// in\n    tag_334:\n        /* \"#utility.yul\":15951:15981   */\n      swap1\n      pop\n        /* \"#utility.yul\":16038:16039   */\n      0x00\n        /* \"#utility.yul\":16078:16127   */\n      tag_335\n        /* \"#utility.yul\":16123:16126   */\n      dup5\n        /* \"#utility.yul\":16114:16120   */\n      dup3\n        /* \"#utility.yul\":16103:16112   */\n      dup6\n        /* \"#utility.yul\":16099:16121   */\n      add\n        /* \"#utility.yul\":16078:16127   */\n      tag_138\n      jump\t// in\n    tag_335:\n        /* \"#utility.yul\":16071:16075   */\n      0x00\n        /* \"#utility.yul\":16064:16069   */\n      dup4\n        /* \"#utility.yul\":16060:16076   */\n      add\n        /* \"#utility.yul\":16053:16128   */\n      mstore\n        /* \"#utility.yul\":15991:16139   */\n      pop\n        /* \"#utility.yul\":16229:16231   */\n      0x20\n        /* \"#utility.yul\":16218:16227   */\n      dup3\n        /* \"#utility.yul\":16214:16232   */\n      add\n        /* \"#utility.yul\":16201:16233   */\n      calldataload\n        /* \"#utility.yul\":16260:16278   */\n      0xffffffffffffffff\n        /* \"#utility.yul\":16252:16258   */\n      dup2\n        /* \"#utility.yul\":16249:16279   */\n      gt\n        /* \"#utility.yul\":16246:16363   */\n      iszero\n      tag_336\n      jumpi\n        /* \"#utility.yul\":16282:16361   */\n      tag_337\n      tag_129\n      jump\t// in\n    tag_337:\n        /* \"#utility.yul\":16246:16363   */\n    tag_336:\n        /* \"#utility.yul\":16402:16474   */\n      tag_338\n        /* \"#utility.yul\":16470:16473   */\n      dup5\n        /* \"#utility.yul\":16461:16467   */\n      dup3\n        /* \"#utility.yul\":16450:16459   */\n      dup6\n        /* \"#utility.yul\":16446:16468   */\n      add\n        /* \"#utility.yul\":16402:16474   */\n      tag_152\n      jump\t// in\n    tag_338:\n        /* \"#utility.yul\":16395:16399   */\n      0x20\n        /* \"#utility.yul\":16388:16393   */\n      dup4\n        /* \"#utility.yul\":16384:16400   */\n      add\n        /* \"#utility.yul\":16377:16475   */\n      mstore\n        /* \"#utility.yul\":16149:16486   */\n      pop\n        /* \"#utility.yul\":16550:16552   */\n      0x40\n        /* \"#utility.yul\":16591:16640   */\n      tag_339\n        /* \"#utility.yul\":16636:16639   */\n      dup5\n        /* \"#utility.yul\":16627:16633   */\n      dup3\n        /* \"#utility.yul\":16616:16625   */\n      dup6\n        /* \"#utility.yul\":16612:16634   */\n      add\n        /* \"#utility.yul\":16591:16640   */\n      tag_138\n      jump\t// in\n    tag_339:\n        /* \"#utility.yul\":16584:16588   */\n      0x40\n        /* \"#utility.yul\":16577:16582   */\n      dup4\n        /* \"#utility.yul\":16573:16589   */\n      add\n        /* \"#utility.yul\":16566:16641   */\n      mstore\n        /* \"#utility.yul\":16496:16652   */\n      pop\n        /* \"#utility.yul\":16714:16716   */\n      0x60\n        /* \"#utility.yul\":16755:16804   */\n      tag_340\n        /* \"#utility.yul\":16800:16803   */\n      dup5\n        /* \"#utility.yul\":16791:16797   */\n      dup3\n        /* \"#utility.yul\":16780:16789   */\n      dup6\n        /* \"#utility.yul\":16776:16798   */\n      add\n        /* \"#utility.yul\":16755:16804   */\n      tag_138\n      jump\t// in\n    tag_340:\n        /* \"#utility.yul\":16748:16752   */\n      0x60\n        /* \"#utility.yul\":16741:16746   */\n      dup4\n        /* \"#utility.yul\":16737:16753   */\n      add\n        /* \"#utility.yul\":16730:16805   */\n      mstore\n        /* \"#utility.yul\":16662:16816   */\n      pop\n        /* \"#utility.yul\":15735:16823   */\n      swap3\n      swap2\n      pop\n      pop\n      jump\t// out\n        /* \"#utility.yul\":16829:17368   */\n    tag_41:\n        /* \"#utility.yul\":16913:16919   */\n      0x00\n        /* \"#utility.yul\":16962:16964   */\n      0x20\n        /* \"#utility.yul\":16950:16959   */\n      dup3\n        /* \"#utility.yul\":16941:16948   */\n      dup5\n        /* \"#utility.yul\":16937:16960   */\n      sub\n        /* \"#utility.yul\":16933:16965   */\n      slt\n        /* \"#utility.yul\":16930:17049   */\n      iszero\n      tag_342\n      jumpi\n        /* \"#utility.yul\":16968:17047   */\n      tag_343\n      tag_116\n      jump\t// in\n    tag_343:\n        /* \"#utility.yul\":16930:17049   */\n    tag_342:\n        /* \"#utility.yul\":17116:17117   */\n      0x00\n        /* \"#utility.yul\":17105:17114   */\n      dup3\n        /* \"#utility.yul\":17101:17118   */\n      add\n        /* \"#utility.yul\":17088:17119   */\n      calldataload\n        /* \"#utility.yul\":17146:17164   */\n      0xffffffffffffffff\n        /* \"#utility.yul\":17138:17144   */\n      dup2\n        /* \"#utility.yul\":17135:17165   */\n      gt\n        /* \"#utility.yul\":17132:17249   */\n      iszero\n      tag_344\n      jumpi\n        /* \"#utility.yul\":17168:17247   */\n      tag_345\n      tag_117\n      jump\t// in\n    tag_345:\n        /* \"#utility.yul\":17132:17249   */\n    tag_344:\n        /* \"#utility.yul\":17273:17351   */\n      tag_346\n        /* \"#utility.yul\":17343:17350   */\n      dup5\n        /* \"#utility.yul\":17334:17340   */\n      dup3\n        /* \"#utility.yul\":17323:17332   */\n      dup6\n        /* \"#utility.yul\":17319:17341   */\n      add\n        /* \"#utility.yul\":17273:17351   */\n      tag_153\n      jump\t// in\n    tag_346:\n        /* \"#utility.yul\":17263:17351   */\n      swap2\n      pop\n        /* \"#utility.yul\":17059:17361   */\n      pop\n        /* \"#utility.yul\":16829:17368   */\n      swap3\n      swap2\n      pop\n      pop\n      jump\t// out\n        /* \"#utility.yul\":17374:17554   */\n    tag_154:\n        /* \"#utility.yul\":17422:17499   */\n      0x4e487b7100000000000000000000000000000000000000000000000000000000\n        /* \"#utility.yul\":17419:17420   */\n      0x00\n        /* \"#utility.yul\":17412:17500   */\n      mstore\n        /* \"#utility.yul\":17519:17523   */\n      0x22\n        /* \"#utility.yul\":17516:17517   */\n      0x04\n        /* \"#utility.yul\":17509:17524   */\n      mstore\n        /* \"#utility.yul\":17543:17547   */\n      0x24\n        /* \"#utility.yul\":17540:17541   */\n      0x00\n        /* \"#utility.yul\":17533:17548   */\n      revert\n        /* \"#utility.yul\":17560:17880   */\n    tag_59:\n        /* \"#utility.yul\":17604:17610   */\n      0x00\n        /* \"#utility.yul\":17641:17642   */\n      0x02\n        /* \"#utility.yul\":17635:17639   */\n      dup3\n        /* \"#utility.yul\":17631:17643   */\n      div\n        /* \"#utility.yul\":17621:17643   */\n      swap1\n      pop\n        /* \"#utility.yul\":17688:17689   */\n      0x01\n        /* \"#utility.yul\":17682:17686   */\n      dup3\n        /* \"#utility.yul\":17678:17690   */\n      and\n        /* \"#utility.yul\":17709:17727   */\n      dup1\n        /* \"#utility.yul\":17699:17780   */\n      tag_349\n      jumpi\n        /* \"#utility.yul\":17765:17769   */\n      0x7f\n        /* \"#utility.yul\":17757:17763   */\n      dup3\n        /* \"#utility.yul\":17753:17770   */\n      and\n        /* \"#utility.yul\":17743:17770   */\n      swap2\n      pop\n        /* \"#utility.yul\":17699:17780   */\n    tag_349:\n        /* \"#utility.yul\":17827:17829   */\n      0x20\n        /* \"#utility.yul\":17819:17825   */\n      dup3\n        /* \"#utility.yul\":17816:17830   */\n      lt\n        /* \"#utility.yul\":17796:17814   */\n      dup2\n        /* \"#utility.yul\":17793:17831   */\n      sub\n        /* \"#utility.yul\":17790:17874   */\n      tag_350\n      jumpi\n        /* \"#utility.yul\":17846:17864   */\n      tag_351\n      tag_154\n      jump\t// in\n    tag_351:\n        /* \"#utility.yul\":17790:17874   */\n    tag_350:\n        /* \"#utility.yul\":17611:17880   */\n      pop\n        /* \"#utility.yul\":17560:17880   */\n      swap2\n      swap1\n      pop\n      jump\t// out\n        /* \"#utility.yul\":17886:18027   */\n    tag_155:\n        /* \"#utility.yul\":17935:17939   */\n      0x00\n        /* \"#utility.yul\":17958:17961   */\n      dup2\n        /* \"#utility.yul\":17950:17961   */\n      swap1\n      pop\n        /* \"#utility.yul\":17981:17984   */\n      dup2\n        /* \"#utility.yul\":17978:17979   */\n      0x00\n        /* \"#utility.yul\":17971:17985   */\n      mstore\n        /* \"#utility.yul\":18015:18019   */\n      0x20\n        /* \"#utility.yul\":18012:18013   */\n      0x00\n        /* \"#utility.yul\":18002:18020   */\n      keccak256\n        /* \"#utility.yul\":17994:18020   */\n      swap1\n      pop\n        /* \"#utility.yul\":17886:18027   */\n      swap2\n      swap1\n      pop\n      jump\t// out\n        /* \"#utility.yul\":18033:18126   */\n    tag_156:\n        /* \"#utility.yul\":18070:18076   */\n      0x00\n        /* \"#utility.yul\":18117:18119   */\n      0x20\n        /* \"#utility.yul\":18112:18114   */\n      0x1f\n        /* \"#utility.yul\":18105:18110   */\n      dup4\n        /* \"#utility.yul\":18101:18115   */\n      add\n        /* \"#utility.yul\":18097:18120   */\n      div\n        /* \"#utility.yul\":18087:18120   */\n      swap1\n      pop\n        /* \"#utility.yul\":18033:18126   */\n      swap2\n      swap1\n      pop\n      jump\t// out\n        /* \"#utility.yul\":18132:18239   */\n    tag_157:\n        /* \"#utility.yul\":18176:18184   */\n      0x00\n        /* \"#utility.yul\":18226:18231   */\n      dup3\n        /* \"#utility.yul\":18220:18224   */\n      dup3\n        /* \"#utility.yul\":18216:18232   */\n      shl\n        /* \"#utility.yul\":18195:18232   */\n      swap1\n      pop\n        /* \"#utility.yul\":18132:18239   */\n      swap3\n      swap2\n      pop\n      pop\n      jump\t// out\n        /* \"#utility.yul\":18245:18638   */\n    tag_158:\n        /* \"#utility.yul\":18314:18320   */\n      0x00\n        /* \"#utility.yul\":18364:18365   */\n      0x08\n        /* \"#utility.yul\":18352:18362   */\n      dup4\n        /* \"#utility.yul\":18348:18366   */\n      mul\n        /* \"#utility.yul\":18387:18484   */\n      tag_356\n        /* \"#utility.yul\":18417:18483   */\n      0xffffffffffffffffffffffffffffffffffffffffffffffffffffffffffffffff\n        /* \"#utility.yul\":18406:18415   */\n      dup3\n        /* \"#utility.yul\":18387:18484   */\n      tag_157\n      jump\t// in\n    tag_356:\n        /* \"#utility.yul\":18505:18544   */\n      tag_357\n        /* \"#utility.yul\":18535:18543   */\n      dup7\n        /* \"#utility.yul\":18524:18533   */\n      dup4\n        /* \"#utility.yul\":18505:18544   */\n      tag_157\n      jump\t// in\n    tag_357:\n        /* \"#utility.yul\":18493:18544   */\n      swap6\n      pop\n        /* \"#utility.yul\":18577:18581   */\n      dup1\n        /* \"#utility.yul\":18573:18582   */\n      not\n        /* \"#utility.yul\":18566:18571   */\n      dup5\n        /* \"#utility.yul\":18562:18583   */\n      and\n        /* \"#utility.yul\":18553:18583   */\n      swap4\n      pop\n        /* \"#utility.yul\":18626:18630   */\n      dup1\n        /* \"#utility.yul\":18616:18624   */\n      dup7\n        /* \"#utility.yul\":18612:18631   */\n      and\n        /* \"#utility.yul\":18605:18610   */\n      dup5\n        /* \"#utility.yul\":18602:18632   */\n      or\n        /* \"#utility.yul\":18592:18632   */\n      swap3\n      pop\n        /* \"#utility.yul\":18321:18638   */\n      pop\n      pop\n        /* \"#utility.yul\":18245:18638   */\n      swap4\n      swap3\n      pop\n      pop\n      pop\n      jump\t// out\n        /* \"#utility.yul\":18644:18704   */\n    tag_159:\n        /* \"#utility.yul\":18672:18675   */\n      0x00\n        /* \"#utility.yul\":18693:18698   */\n      dup2\n        /* \"#utility.yul\":18686:18698   */\n      swap1\n      pop\n        /* \"#utility.yul\":18644:18704   */\n      swap2\n      swap1\n      pop\n      jump\t// out\n        /* \"#utility.yul\":18710:18852   */\n    tag_160:\n        /* \"#utility.yul\":18760:18769   */\n      0x00\n        /* \"#utility.yul\":18793:18846   */\n      tag_360\n        /* \"#utility.yul\":18811:18845   */\n      tag_361\n        /* \"#utility.yul\":18820:18844   */\n      tag_362\n        /* \"#utility.yul\":18838:18843   */\n      dup5\n        /* \"#utility.yul\":18820:18844   */\n      tag_136\n      jump\t// in\n    tag_362:\n        /* \"#utility.yul\":18811:18845   */\n      tag_159\n      jump\t// in\n    tag_361:\n        /* \"#utility.yul\":18793:18846   */\n      tag_136\n      jump\t// in\n    tag_360:\n        /* \"#utility.yul\":18780:18846   */\n      swap1\n      pop\n        /* \"#utility.yul\":18710:18852   */\n      swap2\n      swap1\n      pop\n      jump\t// out\n        /* \"#utility.yul\":18858:18933   */\n    tag_161:\n        /* \"#utility.yul\":18901:18904   */\n      0x00\n        /* \"#utility.yul\":18922:18927   */\n      dup2\n        /* \"#utility.yul\":18915:18927   */\n      swap1\n      pop\n        /* \"#utility.yul\":18858:18933   */\n      swap2\n      swap1\n      pop\n      jump\t// out\n        /* \"#utility.yul\":18939:19208   */\n    tag_162:\n        /* \"#utility.yul\":19049:19088   */\n      tag_365\n        /* \"#utility.yul\":19080:19087   */\n      dup4\n        /* \"#utility.yul\":19049:19088   */\n      tag_160\n      jump\t// in\n    tag_365:\n        /* \"#utility.yul\":19110:19201   */\n      tag_366\n        /* \"#utility.yul\":19159:19200   */\n      tag_367\n        /* \"#utility.yul\":19183:19199   */\n      dup3\n        /* \"#utility.yul\":19159:19200   */\n      tag_161\n      jump\t// in\n    tag_367:\n        /* \"#utility.yul\":19151:19157   */\n      dup5\n        /* \"#utility.yul\":19144:19148   */\n      dup5\n        /* \"#utility.yul\":19138:19149   */\n      sload\n        /* \"#utility.yul\":19110:19201   */\n      tag_158\n      jump\t// in\n    tag_366:\n        /* \"#utility.yul\":19104:19108   */\n      dup3\n        /* \"#utility.yul\":19097:19202   */\n      sstore\n        /* \"#utility.yul\":19015:19208   */\n      pop\n        /* \"#utility.yul\":18939:19208   */\n      pop\n      pop\n      pop\n      jump\t// out\n        /* \"#utility.yul\":19214:19287   */\n    tag_163:\n        /* \"#utility.yul\":19259:19262   */\n      0x00\n        /* \"#utility.yul\":19214:19287   */\n      swap1\n      jump\t// out\n        /* \"#utility.yul\":19293:19482   */\n    tag_164:\n        /* \"#utility.yul\":19370:19402   */\n      tag_370\n      tag_163\n      jump\t// in\n    tag_370:\n        /* \"#utility.yul\":19411:19476   */\n      tag_371\n        /* \"#utility.yul\":19469:19475   */\n      dup2\n        /* \"#utility.yul\":19461:19467   */\n      dup5\n        /* \"#utility.yul\":19455:19459   */\n      dup5\n        /* \"#utility.yul\":19411:19476   */\n      tag_162\n      jump\t// in\n    tag_371:\n        /* \"#utility.yul\":19346:19482   */\n      pop\n        /* \"#utility.yul\":19293:19482   */\n      pop\n      pop\n      jump\t// out\n        /* \"#utility.yul\":19488:19674   */\n    tag_165:\n        /* \"#utility.yul\":19548:19668   */\n    tag_373:\n        /* \"#utility.yul\":19565:19568   */\n      dup2\n        /* \"#utility.yul\":19558:19563   */\n      dup2\n        /* \"#utility.yul\":19555:19569   */\n      lt\n        /* \"#utility.yul\":19548:19668   */\n      iszero\n      tag_375\n      jumpi\n        /* \"#utility.yul\":19619:19658   */\n      tag_376\n        /* \"#utility.yul\":19656:19657   */\n      0x00\n        /* \"#utility.yul\":19649:19654   */\n      dup3\n        /* \"#utility.yul\":19619:19658   */\n      tag_164\n      jump\t// in\n    tag_376:\n        /* \"#utility.yul\":19592:19593   */\n      0x01\n        /* \"#utility.yul\":19585:19590   */\n      dup2\n        /* \"#utility.yul\":19581:19594   */\n      add\n        /* \"#utility.yul\":19572:19594   */\n      swap1\n      pop\n        /* \"#utility.yul\":19548:19668   */\n      jump(tag_373)\n    tag_375:\n        /* \"#utility.yul\":19488:19674   */\n      pop\n      pop\n      jump\t// out\n        /* \"#utility.yul\":19680:20223   */\n    tag_166:\n        /* \"#utility.yul\":19781:19783   */\n      0x1f\n        /* \"#utility.yul\":19776:19779   */\n      dup3\n        /* \"#utility.yul\":19773:19784   */\n      gt\n        /* \"#utility.yul\":19770:20216   */\n      iszero\n      tag_378\n      jumpi\n        /* \"#utility.yul\":19815:19853   */\n      tag_379\n        /* \"#utility.yul\":19847:19852   */\n      dup2\n        /* \"#utility.yul\":19815:19853   */\n      tag_155\n      jump\t// in\n    tag_379:\n        /* \"#utility.yul\":19899:19928   */\n      tag_380\n        /* \"#utility.yul\":19917:19927   */\n      dup5\n        /* \"#utility.yul\":19899:19928   */\n      tag_156\n      jump\t// in\n    tag_380:\n        /* \"#utility.yul\":19889:19897   */\n      dup2\n        /* \"#utility.yul\":19885:19929   */\n      add\n        /* \"#utility.yul\":20082:20084   */\n      0x20\n        /* \"#utility.yul\":20070:20080   */\n      dup6\n        /* \"#utility.yul\":20067:20085   */\n      lt\n        /* \"#utility.yul\":20064:20113   */\n      iszero\n      tag_381\n      jumpi\n        /* \"#utility.yul\":20103:20111   */\n      dup2\n        /* \"#utility.yul\":20088:20111   */\n      swap1\n      pop\n        /* \"#utility.yul\":20064:20113   */\n    tag_381:\n        /* \"#utility.yul\":20126:20206   */\n      tag_382\n        /* \"#utility.yul\":20182:20204   */\n      tag_383\n        /* \"#utility.yul\":20200:20203   */\n      dup6\n        /* \"#utility.yul\":20182:20204   */\n      tag_156\n      jump\t// in\n    tag_383:\n        /* \"#utility.yul\":20172:20180   */\n      dup4\n        /* \"#utility.yul\":20168:20205   */\n      add\n        /* \"#utility.yul\":20155:20166   */\n      dup3\n        /* \"#utility.yul\":20126:20206   */\n      tag_165\n      jump\t// in\n    tag_382:\n        /* \"#utility.yul\":19785:20216   */\n      pop\n      pop\n        /* \"#utility.yul\":19770:20216   */\n    tag_378:\n        /* \"#utility.yul\":19680:20223   */\n      pop\n      pop\n      pop\n      jump\t// out\n        /* \"#utility.yul\":20229:20346   */\n    tag_167:\n        /* \"#utility.yul\":20283:20291   */\n      0x00\n        /* \"#utility.yul\":20333:20338   */\n      dup3\n        /* \"#utility.yul\":20327:20331   */\n      dup3\n        /* \"#utility.yul\":20323:20339   */\n      shr\n        /* \"#utility.yul\":20302:20339   */\n      swap1\n      pop\n        /* \"#utility.yul\":20229:20346   */\n      swap3\n      swap2\n      pop\n      pop\n      jump\t// out\n        /* \"#utility.yul\":20352:20521   */\n    tag_168:\n        /* \"#utility.yul\":20396:20402   */\n      0x00\n        /* \"#utility.yul\":20429:20480   */\n      tag_386\n        /* \"#utility.yul\":20477:20478   */\n      0x00\n        /* \"#utility.yul\":20473:20479   */\n      not\n        /* \"#utility.yul\":20465:20470   */\n      dup5\n        /* \"#utility.yul\":20462:20463   */\n      0x08\n        /* \"#utility.yul\":20458:20471   */\n      mul\n        /* \"#utility.yul\":20429:20480   */\n      tag_167\n      jump\t// in\n    tag_386:\n        /* \"#utility.yul\":20425:20481   */\n      not\n        /* \"#utility.yul\":20510:20514   */\n      dup1\n        /* \"#utility.yul\":20504:20508   */\n      dup4\n        /* \"#utility.yul\":20500:20515   */\n      and\n        /* \"#utility.yul\":20490:20515   */\n      swap2\n      pop\n        /* \"#utility.yul\":20403:20521   */\n      pop\n        /* \"#utility.yul\":20352:20521   */\n      swap3\n      swap2\n      pop\n      pop\n      jump\t// out\n        /* \"#utility.yul\":20526:20821   */\n    tag_169:\n        /* \"#utility.yul\":20602:20606   */\n      0x00\n        /* \"#utility.yul\":20748:20777   */\n      tag_388\n        /* \"#utility.yul\":20773:20776   */\n      dup4\n        /* \"#utility.yul\":20767:20771   */\n      dup4\n        /* \"#utility.yul\":20748:20777   */\n      tag_168\n      jump\t// in\n    tag_388:\n        /* \"#utility.yul\":20740:20777   */\n      swap2\n      pop\n        /* \"#utility.yul\":20810:20813   */\n      dup3\n        /* \"#utility.yul\":20807:20808   */\n      0x02\n        /* \"#utility.yul\":20803:20814   */\n      mul\n        /* \"#utility.yul\":20797:20801   */\n      dup3\n        /* \"#utility.yul\":20794:20815   */\n      or\n        /* \"#utility.yul\":20786:20815   */\n      swap1\n      pop\n        /* \"#utility.yul\":20526:20821   */\n      swap3\n      swap2\n      pop\n      pop\n      jump\t// out\n        /* \"#utility.yul\":20826:22221   */\n    tag_48:\n        /* \"#utility.yul\":20943:20980   */\n      tag_390\n        /* \"#utility.yul\":20976:20979   */\n      dup3\n        /* \"#utility.yul\":20943:20980   */\n      tag_140\n      jump\t// in\n    tag_390:\n        /* \"#utility.yul\":21045:21063   */\n      0xffffffffffffffff\n        /* \"#utility.yul\":21037:21043   */\n      dup2\n        /* \"#utility.yul\":21034:21064   */\n      gt\n        /* \"#utility.yul\":21031:21087   */\n      iszero\n      tag_391\n      jumpi\n        /* \"#utility.yul\":21067:21085   */\n      tag_392\n      tag_121\n      jump\t// in\n    tag_392:\n        /* \"#utility.yul\":21031:21087   */\n    tag_391:\n        /* \"#utility.yul\":21111:21149   */\n      tag_393\n        /* \"#utility.yul\":21143:21147   */\n      dup3\n        /* \"#utility.yul\":21137:21148   */\n      sload\n        /* \"#utility.yul\":21111:21149   */\n      tag_59\n      jump\t// in\n    tag_393:\n        /* \"#utility.yul\":21196:21263   */\n      tag_394\n        /* \"#utility.yul\":21256:21262   */\n      dup3\n        /* \"#utility.yul\":21248:21254   */\n      dup3\n        /* \"#utility.yul\":21242:21246   */\n      dup6\n        /* \"#utility.yul\":21196:21263   */\n      tag_166\n      jump\t// in\n    tag_394:\n        /* \"#utility.yul\":21290:21291   */\n      0x00\n        /* \"#utility.yul\":21314:21318   */\n      0x20\n        /* \"#utility.yul\":21301:21318   */\n      swap1\n      pop\n        /* \"#utility.yul\":21346:21348   */\n      0x1f\n        /* \"#utility.yul\":21338:21344   */\n      dup4\n        /* \"#utility.yul\":21335:21349   */\n      gt\n        /* \"#utility.yul\":21363:21364   */\n      0x01\n        /* \"#utility.yul\":21358:21976   */\n      dup2\n      eq\n      tag_396\n      jumpi\n        /* \"#utility.yul\":22020:22021   */\n      0x00\n        /* \"#utility.yul\":22037:22043   */\n      dup5\n        /* \"#utility.yul\":22034:22111   */\n      iszero\n      tag_397\n      jumpi\n        /* \"#utility.yul\":22086:22095   */\n      dup3\n        /* \"#utility.yul\":22081:22084   */\n      dup8\n        /* \"#utility.yul\":22077:22096   */\n      add\n        /* \"#utility.yul\":22071:22097   */\n      mload\n        /* \"#utility.yul\":22062:22097   */\n      swap1\n      pop\n        /* \"#utility.yul\":22034:22111   */\n    tag_397:\n        /* \"#utility.yul\":22137:22204   */\n      tag_398\n        /* \"#utility.yul\":22197:22203   */\n      dup6\n        /* \"#utility.yul\":22190:22195   */\n      dup3\n        /* \"#utility.yul\":22137:22204   */\n      tag_169\n      jump\t// in\n    tag_398:\n        /* \"#utility.yul\":22131:22135   */\n      dup7\n        /* \"#utility.yul\":22124:22205   */\n      sstore\n        /* \"#utility.yul\":21993:22215   */\n      pop\n        /* \"#utility.yul\":21328:22215   */\n      jump(tag_395)\n        /* \"#utility.yul\":21358:21976   */\n    tag_396:\n        /* \"#utility.yul\":21410:21414   */\n      0x1f\n        /* \"#utility.yul\":21406:21415   */\n      not\n        /* \"#utility.yul\":21398:21404   */\n      dup5\n        /* \"#utility.yul\":21394:21416   */\n      and\n        /* \"#utility.yul\":21444:21481   */\n      tag_399\n        /* \"#utility.yul\":21476:21480   */\n      dup7\n        /* \"#utility.yul\":21444:21481   */\n      tag_155\n      jump\t// in\n    tag_399:\n        /* \"#utility.yul\":21503:21504   */\n      0x00\n        /* \"#utility.yul\":21517:21725   */\n    tag_400:\n        /* \"#utility.yul\":21531:21538   */\n      dup3\n        /* \"#utility.yul\":21528:21529   */\n      dup2\n        /* \"#utility.yul\":21525:21539   */\n      lt\n        /* \"#utility.yul\":21517:21725   */\n      iszero\n      tag_402\n      jumpi\n        /* \"#utility.yul\":21610:21619   */\n      dup5\n        /* \"#utility.yul\":21605:21608   */\n      dup10\n        /* \"#utility.yul\":21601:21620   */\n      add\n        /* \"#utility.yul\":21595:21621   */\n      mload\n        /* \"#utility.yul\":21587:21593   */\n      dup3\n        /* \"#utility.yul\":21580:21622   */\n      sstore\n        /* \"#utility.yul\":21661:21662   */\n      0x01\n        /* \"#utility.yul\":21653:21659   */\n      dup3\n        /* \"#utility.yul\":21649:21663   */\n      add\n        /* \"#utility.yul\":21639:21663   */\n      swap2\n      pop\n        /* \"#utility.yul\":21708:21710   */\n      0x20\n        /* \"#utility.yul\":21697:21706   */\n      dup6\n        /* \"#utility.yul\":21693:21711   */\n      add\n        /* \"#utility.yul\":21680:21711   */\n      swap5\n      pop\n        /* \"#utility.yul\":21554:21558   */\n      0x20\n        /* \"#utility.yul\":21551:21552   */\n      dup2\n        /* \"#utility.yul\":21547:21559   */\n      add\n        /* \"#utility.yul\":21542:21559   */\n      swap1\n      pop\n        /* \"#utility.yul\":21517:21725   */\n      jump(tag_400)\n    tag_402:\n        /* \"#utility.yul\":21753:21759   */\n      dup7\n        /* \"#utility.yul\":21744:21751   */\n      dup4\n        /* \"#utility.yul\":21741:21760   */\n      lt\n        /* \"#utility.yul\":21738:21917   */\n      iszero\n      tag_403\n      jumpi\n        /* \"#utility.yul\":21811:21820   */\n      dup5\n        /* \"#utility.yul\":21806:21809   */\n      dup10\n        /* \"#utility.yul\":21802:21821   */\n      add\n        /* \"#utility.yul\":21796:21822   */\n      mload\n        /* \"#utility.yul\":21854:21902   */\n      tag_404\n        /* \"#utility.yul\":21896:21900   */\n      0x1f\n        /* \"#utility.yul\":21888:21894   */\n      dup10\n        /* \"#utility.yul\":21884:21901   */\n      and\n        /* \"#utility.yul\":21873:21882   */\n      dup3\n        /* \"#utility.yul\":21854:21902   */\n      tag_168\n      jump\t// in\n    tag_404:\n        /* \"#utility.yul\":21846:21852   */\n      dup4\n        /* \"#utility.yul\":21839:21903   */\n      sstore\n        /* \"#utility.yul\":21761:21917   */\n      pop\n        /* \"#utility.yul\":21738:21917   */\n    tag_403:\n        /* \"#utility.yul\":21963:21964   */\n      0x01\n        /* \"#utility.yul\":21959:21960   */\n      0x02\n        /* \"#utility.yul\":21951:21957   */\n      dup9\n        /* \"#utility.yul\":21947:21961   */\n      mul\n        /* \"#utility.yul\":21943:21965   */\n      add\n        /* \"#utility.yul\":21937:21941   */\n      dup9\n        /* \"#utility.yul\":21930:21966   */\n      sstore\n        /* \"#utility.yul\":21365:21976   */\n      pop\n      pop\n      pop\n        /* \"#utility.yul\":21328:22215   */\n    tag_395:\n      pop\n        /* \"#utility.yul\":20918:22221   */\n      pop\n      pop\n      pop\n        /* \"#utility.yul\":20826:22221   */\n      pop\n      pop\n      jump\t// out\n        /* \"#utility.yul\":22283:22703   */\n    tag_170:\n        /* \"#utility.yul\":22390:22393   */\n      0x00\n        /* \"#utility.yul\":22426:22430   */\n      0x20\n        /* \"#utility.yul\":22421:22424   */\n      dup4\n        /* \"#utility.yul\":22417:22431   */\n      add\n        /* \"#utility.yul\":22513:22517   */\n      0x00\n        /* \"#utility.yul\":22506:22511   */\n      dup4\n        /* \"#utility.yul\":22502:22518   */\n      add\n        /* \"#utility.yul\":22496:22519   */\n      mload\n        /* \"#utility.yul\":22566:22569   */\n      dup5\n        /* \"#utility.yul\":22560:22564   */\n      dup3\n        /* \"#utility.yul\":22556:22570   */\n      sub\n        /* \"#utility.yul\":22549:22553   */\n      0x00\n        /* \"#utility.yul\":22544:22547   */\n      dup7\n        /* \"#utility.yul\":22540:22554   */\n      add\n        /* \"#utility.yul\":22533:22571   */\n      mstore\n        /* \"#utility.yul\":22592:22665   */\n      tag_406\n        /* \"#utility.yul\":22660:22664   */\n      dup3\n        /* \"#utility.yul\":22646:22658   */\n      dup3\n        /* \"#utility.yul\":22592:22665   */\n      tag_147\n      jump\t// in\n    tag_406:\n        /* \"#utility.yul\":22584:22665   */\n      swap2\n      pop\n        /* \"#utility.yul\":22441:22676   */\n      pop\n        /* \"#utility.yul\":22693:22697   */\n      dup1\n        /* \"#utility.yul\":22686:22697   */\n      swap2\n      pop\n        /* \"#utility.yul\":22395:22703   */\n      pop\n        /* \"#utility.yul\":22283:22703   */\n      swap3\n      swap2\n      pop\n      pop\n      jump\t// out\n        /* \"#utility.yul\":22709:22817   */\n    tag_171:\n        /* \"#utility.yul\":22786:22810   */\n      tag_408\n        /* \"#utility.yul\":22804:22809   */\n      dup2\n        /* \"#utility.yul\":22786:22810   */\n      tag_136\n      jump\t// in\n    tag_408:\n        /* \"#utility.yul\":22781:22784   */\n      dup3\n        /* \"#utility.yul\":22774:22811   */\n      mstore\n        /* \"#utility.yul\":22709:22817   */\n      pop\n      pop\n      jump\t// out\n        /* \"#utility.yul\":22875:24278   */\n    tag_172:\n        /* \"#utility.yul\":22988:22991   */\n      0x00\n        /* \"#utility.yul\":23024:23028   */\n      0xa0\n        /* \"#utility.yul\":23019:23022   */\n      dup4\n        /* \"#utility.yul\":23015:23029   */\n      add\n        /* \"#utility.yul\":23112:23116   */\n      0x00\n        /* \"#utility.yul\":23105:23110   */\n      dup4\n        /* \"#utility.yul\":23101:23117   */\n      add\n        /* \"#utility.yul\":23095:23118   */\n      mload\n        /* \"#utility.yul\":23165:23168   */\n      dup5\n        /* \"#utility.yul\":23159:23163   */\n      dup3\n        /* \"#utility.yul\":23155:23169   */\n      sub\n        /* \"#utility.yul\":23148:23152   */\n      0x00\n        /* \"#utility.yul\":23143:23146   */\n      dup7\n        /* \"#utility.yul\":23139:23153   */\n      add\n        /* \"#utility.yul\":23132:23170   */\n      mstore\n        /* \"#utility.yul\":23191:23286   */\n      tag_410\n        /* \"#utility.yul\":23281:23285   */\n      dup3\n        /* \"#utility.yul\":23267:23279   */\n      dup3\n        /* \"#utility.yul\":23191:23286   */\n      tag_148\n      jump\t// in\n    tag_410:\n        /* \"#utility.yul\":23183:23286   */\n      swap2\n      pop\n        /* \"#utility.yul\":23039:23297   */\n      pop\n        /* \"#utility.yul\":23383:23387   */\n      0x20\n        /* \"#utility.yul\":23376:23381   */\n      dup4\n        /* \"#utility.yul\":23372:23388   */\n      add\n        /* \"#utility.yul\":23366:23389   */\n      mload\n        /* \"#utility.yul\":23436:23439   */\n      dup5\n        /* \"#utility.yul\":23430:23434   */\n      dup3\n        /* \"#utility.yul\":23426:23440   */\n      sub\n        /* \"#utility.yul\":23419:23423   */\n      0x20\n        /* \"#utility.yul\":23414:23417   */\n      dup7\n        /* \"#utility.yul\":23410:23424   */\n      add\n        /* \"#utility.yul\":23403:23441   */\n      mstore\n        /* \"#utility.yul\":23462:23563   */\n      tag_411\n        /* \"#utility.yul\":23558:23562   */\n      dup3\n        /* \"#utility.yul\":23544:23556   */\n      dup3\n        /* \"#utility.yul\":23462:23563   */\n      tag_170\n      jump\t// in\n    tag_411:\n        /* \"#utility.yul\":23454:23563   */\n      swap2\n      pop\n        /* \"#utility.yul\":23307:23574   */\n      pop\n        /* \"#utility.yul\":23659:23663   */\n      0x40\n        /* \"#utility.yul\":23652:23657   */\n      dup4\n        /* \"#utility.yul\":23648:23664   */\n      add\n        /* \"#utility.yul\":23642:23665   */\n      mload\n        /* \"#utility.yul\":23712:23715   */\n      dup5\n        /* \"#utility.yul\":23706:23710   */\n      dup3\n        /* \"#utility.yul\":23702:23716   */\n      sub\n        /* \"#utility.yul\":23695:23699   */\n      0x40\n        /* \"#utility.yul\":23690:23693   */\n      dup7\n        /* \"#utility.yul\":23686:23700   */\n      add\n        /* \"#utility.yul\":23679:23717   */\n      mstore\n        /* \"#utility.yul\":23738:23811   */\n      tag_412\n        /* \"#utility.yul\":23806:23810   */\n      dup3\n        /* \"#utility.yul\":23792:23804   */\n      dup3\n        /* \"#utility.yul\":23738:23811   */\n      tag_147\n      jump\t// in\n    tag_412:\n        /* \"#utility.yul\":23730:23811   */\n      swap2\n      pop\n        /* \"#utility.yul\":23584:23822   */\n      pop\n        /* \"#utility.yul\":23907:23911   */\n      0x60\n        /* \"#utility.yul\":23900:23905   */\n      dup4\n        /* \"#utility.yul\":23896:23912   */\n      add\n        /* \"#utility.yul\":23890:23913   */\n      mload\n        /* \"#utility.yul\":23960:23963   */\n      dup5\n        /* \"#utility.yul\":23954:23958   */\n      dup3\n        /* \"#utility.yul\":23950:23964   */\n      sub\n        /* \"#utility.yul\":23943:23947   */\n      0x60\n        /* \"#utility.yul\":23938:23941   */\n      dup7\n        /* \"#utility.yul\":23934:23948   */\n      add\n        /* \"#utility.yul\":23927:23965   */\n      mstore\n        /* \"#utility.yul\":23986:24059   */\n      tag_413\n        /* \"#utility.yul\":24054:24058   */\n      dup3\n        /* \"#utility.yul\":24040:24052   */\n      dup3\n        /* \"#utility.yul\":23986:24059   */\n      tag_147\n      jump\t// in\n    tag_413:\n        /* \"#utility.yul\":23978:24059   */\n      swap2\n      pop\n        /* \"#utility.yul\":23832:24070   */\n      pop\n        /* \"#utility.yul\":24159:24163   */\n      0x80\n        /* \"#utility.yul\":24152:24157   */\n      dup4\n        /* \"#utility.yul\":24148:24164   */\n      add\n        /* \"#utility.yul\":24142:24165   */\n      mload\n        /* \"#utility.yul\":24178:24241   */\n      tag_414\n        /* \"#utility.yul\":24235:24239   */\n      0x80\n        /* \"#utility.yul\":24230:24233   */\n      dup7\n        /* \"#utility.yul\":24226:24240   */\n      add\n        /* \"#utility.yul\":24212:24224   */\n      dup3\n        /* \"#utility.yul\":24178:24241   */\n      tag_171\n      jump\t// in\n    tag_414:\n        /* \"#utility.yul\":24080:24251   */\n      pop\n        /* \"#utility.yul\":24268:24272   */\n      dup1\n        /* \"#utility.yul\":24261:24272   */\n      swap2\n      pop\n        /* \"#utility.yul\":22993:24278   */\n      pop\n        /* \"#utility.yul\":22875:24278   */\n      swap3\n      swap2\n      pop\n      pop\n      jump\t// out\n        /* \"#utility.yul\":24284:24645   */\n    tag_52:\n        /* \"#utility.yul\":24421:24425   */\n      0x00\n        /* \"#utility.yul\":24459:24461   */\n      0x20\n        /* \"#utility.yul\":24448:24457   */\n      dup3\n        /* \"#utility.yul\":24444:24462   */\n      add\n        /* \"#utility.yul\":24436:24462   */\n      swap1\n      pop\n        /* \"#utility.yul\":24508:24517   */\n      dup2\n        /* \"#utility.yul\":24502:24506   */\n      dup2\n        /* \"#utility.yul\":24498:24518   */\n      sub\n        /* \"#utility.yul\":24494:24495   */\n      0x00\n        /* \"#utility.yul\":24483:24492   */\n      dup4\n        /* \"#utility.yul\":24479:24496   */\n      add\n        /* \"#utility.yul\":24472:24519   */\n      mstore\n        /* \"#utility.yul\":24536:24638   */\n      tag_416\n        /* \"#utility.yul\":24633:24637   */\n      dup2\n        /* \"#utility.yul\":24624:24630   */\n      dup5\n        /* \"#utility.yul\":24536:24638   */\n      tag_172\n      jump\t// in\n    tag_416:\n        /* \"#utility.yul\":24528:24638   */\n      swap1\n      pop\n        /* \"#utility.yul\":24284:24645   */\n      swap3\n      swap2\n      pop\n      pop\n      jump\t// out\n        /* \"#utility.yul\":24651:24831   */\n    tag_74:\n        /* \"#utility.yul\":24699:24776   */\n      0x4e487b7100000000000000000000000000000000000000000000000000000000\n        /* \"#utility.yul\":24696:24697   */\n      0x00\n        /* \"#utility.yul\":24689:24777   */\n      mstore\n        /* \"#utility.yul\":24796:24800   */\n      0x32\n        /* \"#utility.yul\":24793:24794   */\n      0x04\n        /* \"#utility.yul\":24786:24801   */\n      mstore\n        /* \"#utility.yul\":24820:24824   */\n      0x24\n        /* \"#utility.yul\":24817:24818   */\n      0x00\n        /* \"#utility.yul\":24810:24825   */\n      revert\n        /* \"#utility.yul\":24837:25017   */\n    tag_173:\n        /* \"#utility.yul\":24885:24962   */\n      0x4e487b7100000000000000000000000000000000000000000000000000000000\n        /* \"#utility.yul\":24882:24883   */\n      0x00\n        /* \"#utility.yul\":24875:24963   */\n      mstore\n        /* \"#utility.yul\":24982:24986   */\n      0x11\n        /* \"#utility.yul\":24979:24980   */\n      0x04\n        /* \"#utility.yul\":24972:24987   */\n      mstore\n        /* \"#utility.yul\":25006:25010   */\n      0x24\n        /* \"#utility.yul\":25003:25004   */\n      0x00\n        /* \"#utility.yul\":24996:25011   */\n      revert\n        /* \"#utility.yul\":25023:25217   */\n    tag_78:\n        /* \"#utility.yul\":25063:25067   */\n      0x00\n        /* \"#utility.yul\":25083:25103   */\n      tag_420\n        /* \"#utility.yul\":25101:25102   */\n      dup3\n        /* \"#utility.yul\":25083:25103   */\n      tag_136\n      jump\t// in\n    tag_420:\n        /* \"#utility.yul\":25078:25103   */\n      swap2\n      pop\n        /* \"#utility.yul\":25117:25137   */\n      tag_421\n        /* \"#utility.yul\":25135:25136   */\n      dup4\n        /* \"#utility.yul\":25117:25137   */\n      tag_136\n      jump\t// in\n    tag_421:\n        /* \"#utility.yul\":25112:25137   */\n      swap3\n      pop\n        /* \"#utility.yul\":25161:25162   */\n      dup3\n        /* \"#utility.yul\":25158:25159   */\n      dup3\n        /* \"#utility.yul\":25154:25163   */\n      sub\n        /* \"#utility.yul\":25146:25163   */\n      swap1\n      pop\n        /* \"#utility.yul\":25185:25186   */\n      dup2\n        /* \"#utility.yul\":25179:25183   */\n      dup2\n        /* \"#utility.yul\":25176:25187   */\n      gt\n        /* \"#utility.yul\":25173:25210   */\n      iszero\n      tag_422\n      jumpi\n        /* \"#utility.yul\":25190:25208   */\n      tag_423\n      tag_173\n      jump\t// in\n    tag_423:\n        /* \"#utility.yul\":25173:25210   */\n    tag_422:\n        /* \"#utility.yul\":25023:25217   */\n      swap3\n      swap2\n      pop\n      pop\n      jump\t// out\n        /* \"#utility.yul\":25223:25403   */\n    tag_87:\n        /* \"#utility.yul\":25271:25348   */\n      0x4e487b7100000000000000000000000000000000000000000000000000000000\n        /* \"#utility.yul\":25268:25269   */\n      0x00\n        /* \"#utility.yul\":25261:25349   */\n      mstore\n        /* \"#utility.yul\":25368:25372   */\n      0x31\n        /* \"#utility.yul\":25365:25366   */\n      0x04\n        /* \"#utility.yul\":25358:25373   */\n      mstore\n        /* \"#utility.yul\":25392:25396   */\n      0x24\n        /* \"#utility.yul\":25389:25390   */\n      0x00\n        /* \"#utility.yul\":25382:25397   */\n      revert\n        /* \"#utility.yul\":25409:25642   */\n    tag_90:\n        /* \"#utility.yul\":25448:25451   */\n      0x00\n        /* \"#utility.yul\":25471:25495   */\n      tag_426\n        /* \"#utility.yul\":25489:25494   */\n      dup3\n        /* \"#utility.yul\":25471:25495   */\n      tag_136\n      jump\t// in\n    tag_426:\n        /* \"#utility.yul\":25462:25495   */\n      swap2\n      pop\n        /* \"#utility.yul\":25517:25583   */\n      0xffffffffffffffffffffffffffffffffffffffffffffffffffffffffffffffff\n        /* \"#utility.yul\":25510:25515   */\n      dup3\n        /* \"#utility.yul\":25507:25584   */\n      sub\n        /* \"#utility.yul\":25504:25607   */\n      tag_427\n      jumpi\n        /* \"#utility.yul\":25587:25605   */\n      tag_428\n      tag_173\n      jump\t// in\n    tag_428:\n        /* \"#utility.yul\":25504:25607   */\n    tag_427:\n        /* \"#utility.yul\":25634:25635   */\n      0x01\n        /* \"#utility.yul\":25627:25632   */\n      dup3\n        /* \"#utility.yul\":25623:25636   */\n      add\n        /* \"#utility.yul\":25616:25636   */\n      swap1\n      pop\n        /* \"#utility.yul\":25409:25642   */\n      swap2\n      swap1\n      pop\n      jump\t// out\n\n    auxdata: 0xa26469706673582212200686fc28f40cdc1a11c74a545fe44480c50f880e88d71c19547eba649d68601e64736f6c63430008120033\n}\n",
				"bytecode": {
					"linkReferences": {},
					"object": "608060405234801561001057600080fd5b506117ed806100206000396000f3fe608060405234801561001057600080fd5b506004361061007d5760003560e01c80639405a7ba1161005b5780639405a7ba146100ea5780639c315c7114610106578063bd14de9614610136578063bd64c361146101695761007d565b806337cf4c12146100825780635b915a931461009e578063805fd26e146100ba575b600080fd5b61009c60048036038101906100979190610b7a565b610185565b005b6100b860048036038101906100b39190610e21565b6101f2565b005b6100d460048036038101906100cf9190610e6a565b610330565b6040516100e19190610f16565b60405180910390f35b61010460048036038101906100ff9190610f38565b6103d6565b005b610120600480360381019061011b9190610f38565b610579565b60405161012d9190610f74565b60405180910390f35b610150600480360381019061014b9190610f38565b61059d565b60405161016094939291906110b9565b60405180910390f35b610183600480360381019061017e91906112a1565b610825565b005b61018d6109b0565b818160000181905250806000803373ffffffffffffffffffffffffffffffffffffffff1673ffffffffffffffffffffffffffffffffffffffff16815260200190815260200160002060008201518160000190816101ea91906114f6565b509050505050565b3373ffffffffffffffffffffffffffffffffffffffff167f37c8bcda6e873896d322e49030ebc0ea81155fb8b0251659d7b34a673bdd0cfb82604051610238919061168c565b60405180910390a2600381908060018154018082558091505060019003906000526020600020906006020160009091909190915060008201518160000160008201518160000160006101000a81548173ffffffffffffffffffffffffffffffffffffffff021916908373ffffffffffffffffffffffffffffffffffffffff16021790555060208201518160010190816102d191906114f6565b50505060208201518160020160008201518160000190816102f291906114f6565b505050604082015181600301908161030a91906114f6565b50606082015181600401908161032091906114f6565b5060808201518160050155505050565b600060205280600052604060002060009150905080600001805461035390611319565b80601f016020809104026020016040519081016040528092919081815260200182805461037f90611319565b80156103cc5780601f106103a1576101008083540402835291602001916103cc565b820191906000526020600020905b8154815290600101906020018083116103af57829003601f168201915b5050505050905081565b60016000828152602001908152602001600020600080820160009055600182016000808201600080820160006101000a81549073ffffffffffffffffffffffffffffffffffffffff021916905560018201600061043391906109c3565b50506002820160006101000a81549073ffffffffffffffffffffffffffffffffffffffff021916905560038201600080820160006101000a81549073ffffffffffffffffffffffffffffffffffffffff021916905560018201600061049891906109c3565b5050505060068201600090556007820160009055505060005b6002805490508110156105755781600282815481106104d3576104d26116ae565b5b90600052602060002001540361056257600260016002805490506104f7919061170c565b81548110610508576105076116ae565b5b906000526020600020015460028281548110610527576105266116ae565b5b9060005260206000200181905550600280548061054757610546611740565b5b60019003818190600052602060002001600090559055610575565b808061056d9061176f565b9150506104b1565b5050565b6002818154811061058957600080fd5b906000526020600020016000915090505481565b600160205280600052604060002060009150905080600001549080600101604051806060016040529081600082016040518060400160405290816000820160009054906101000a900473ffffffffffffffffffffffffffffffffffffffff1673ffffffffffffffffffffffffffffffffffffffff1673ffffffffffffffffffffffffffffffffffffffff16815260200160018201805461063c90611319565b80601f016020809104026020016040519081016040528092919081815260200182805461066890611319565b80156106b55780601f1061068a576101008083540402835291602001916106b5565b820191906000526020600020905b81548152906001019060200180831161069857829003601f168201915b50505050508152505081526020016002820160009054906101000a900473ffffffffffffffffffffffffffffffffffffffff1673ffffffffffffffffffffffffffffffffffffffff1673ffffffffffffffffffffffffffffffffffffffff168152602001600382016040518060400160405290816000820160009054906101000a900473ffffffffffffffffffffffffffffffffffffffff1673ffffffffffffffffffffffffffffffffffffffff1673ffffffffffffffffffffffffffffffffffffffff16815260200160018201805461078e90611319565b80601f01602080910402602001604051908101604052809291908181526020018280546107ba90611319565b80156108075780601f106107dc57610100808354040283529160200191610807565b820191906000526020600020905b8154815290600101906020018083116107ea57829003601f168201915b50505050508152505081525050908060060154908060070154905084565b8060016000836000015181526020019081526020016000206000820151816000015560208201518160010160008201518160000160008201518160000160006101000a81548173ffffffffffffffffffffffffffffffffffffffff021916908373ffffffffffffffffffffffffffffffffffffffff16021790555060208201518160010190816108b591906114f6565b50505060208201518160020160006101000a81548173ffffffffffffffffffffffffffffffffffffffff021916908373ffffffffffffffffffffffffffffffffffffffff16021790555060408201518160030160008201518160000160006101000a81548173ffffffffffffffffffffffffffffffffffffffff021916908373ffffffffffffffffffffffffffffffffffffffff160217905550602082015181600101908161096491906114f6565b5050505050604082015181600601556060820151816007015590505060028160000151908060018154018082558091505060019003906000526020600020016000909190919091505550565b6040518060200160405280606081525090565b5080546109cf90611319565b6000825580601f106109e15750610a00565b601f0160209004906000526020600020908101906109ff9190610a03565b5b50565b5b80821115610a1c576000816000905550600101610a04565b5090565b6000604051905090565b600080fd5b600080fd5b600080fd5b600080fd5b6000601f19601f8301169050919050565b7f4e487b7100000000000000000000000000000000000000000000000000000000600052604160045260246000fd5b610a8782610a3e565b810181811067ffffffffffffffff82111715610aa657610aa5610a4f565b5b80604052505050565b6000610ab9610a20565b9050610ac58282610a7e565b919050565b600067ffffffffffffffff821115610ae557610ae4610a4f565b5b610aee82610a3e565b9050602081019050919050565b82818337600083830152505050565b6000610b1d610b1884610aca565b610aaf565b905082815260208101848484011115610b3957610b38610a39565b5b610b44848285610afb565b509392505050565b600082601f830112610b6157610b60610a34565b5b8135610b71848260208601610b0a565b91505092915050565b600060208284031215610b9057610b8f610a2a565b5b600082013567ffffffffffffffff811115610bae57610bad610a2f565b5b610bba84828501610b4c565b91505092915050565b600080fd5b600080fd5b600073ffffffffffffffffffffffffffffffffffffffff82169050919050565b6000610bf882610bcd565b9050919050565b610c0881610bed565b8114610c1357600080fd5b50565b600081359050610c2581610bff565b92915050565b600060408284031215610c4157610c40610bc3565b5b610c4b6040610aaf565b90506000610c5b84828501610c16565b600083015250602082013567ffffffffffffffff811115610c7f57610c7e610bc8565b5b610c8b84828501610b4c565b60208301525092915050565b600060208284031215610cad57610cac610bc3565b5b610cb76020610aaf565b9050600082013567ffffffffffffffff811115610cd757610cd6610bc8565b5b610ce384828501610b4c565b60008301525092915050565b6000819050919050565b610d0281610cef565b8114610d0d57600080fd5b50565b600081359050610d1f81610cf9565b92915050565b600060a08284031215610d3b57610d3a610bc3565b5b610d4560a0610aaf565b9050600082013567ffffffffffffffff811115610d6557610d64610bc8565b5b610d7184828501610c2b565b600083015250602082013567ffffffffffffffff811115610d9557610d94610bc8565b5b610da184828501610c97565b602083015250604082013567ffffffffffffffff811115610dc557610dc4610bc8565b5b610dd184828501610b4c565b604083015250606082013567ffffffffffffffff811115610df557610df4610bc8565b5b610e0184828501610b4c565b6060830152506080610e1584828501610d10565b60808301525092915050565b600060208284031215610e3757610e36610a2a565b5b600082013567ffffffffffffffff811115610e5557610e54610a2f565b5b610e6184828501610d25565b91505092915050565b600060208284031215610e8057610e7f610a2a565b5b6000610e8e84828501610c16565b91505092915050565b600081519050919050565b600082825260208201905092915050565b60005b83811015610ed1578082015181840152602081019050610eb6565b60008484015250505050565b6000610ee882610e97565b610ef28185610ea2565b9350610f02818560208601610eb3565b610f0b81610a3e565b840191505092915050565b60006020820190508181036000830152610f308184610edd565b905092915050565b600060208284031215610f4e57610f4d610a2a565b5b6000610f5c84828501610d10565b91505092915050565b610f6e81610cef565b82525050565b6000602082019050610f896000830184610f65565b92915050565b610f9881610bed565b82525050565b600082825260208201905092915050565b6000610fba82610e97565b610fc48185610f9e565b9350610fd4818560208601610eb3565b610fdd81610a3e565b840191505092915050565b60006040830160008301516110006000860182610f8f565b50602083015184820360208601526110188282610faf565b9150508091505092915050565b600060408301600083015161103d6000860182610f8f565b50602083015184820360208601526110558282610faf565b9150508091505092915050565b6000606083016000830151848203600086015261107f8282610fe8565b91505060208301516110946020860182610f8f565b50604083015184820360408601526110ac8282611025565b9150508091505092915050565b60006080820190506110ce6000830187610f65565b81810360208301526110e08186611062565b90506110ef6040830185610f65565b6110fc6060830184610f65565b95945050505050565b60006040828403121561111b5761111a610bc3565b5b6111256040610aaf565b9050600061113584828501610c16565b600083015250602082013567ffffffffffffffff81111561115957611158610bc8565b5b61116584828501610b4c565b60208301525092915050565b60006060828403121561118757611186610bc3565b5b6111916060610aaf565b9050600082013567ffffffffffffffff8111156111b1576111b0610bc8565b5b6111bd84828501610c2b565b60008301525060206111d184828501610c16565b602083015250604082013567ffffffffffffffff8111156111f5576111f4610bc8565b5b61120184828501611105565b60408301525092915050565b60006080828403121561122357611222610bc3565b5b61122d6080610aaf565b9050600061123d84828501610d10565b600083015250602082013567ffffffffffffffff81111561126157611260610bc8565b5b61126d84828501611171565b602083015250604061128184828501610d10565b604083015250606061129584828501610d10565b60608301525092915050565b6000602082840312156112b7576112b6610a2a565b5b600082013567ffffffffffffffff8111156112d5576112d4610a2f565b5b6112e18482850161120d565b91505092915050565b7f4e487b7100000000000000000000000000000000000000000000000000000000600052602260045260246000fd5b6000600282049050600182168061133157607f821691505b602082108103611344576113436112ea565b5b50919050565b60008190508160005260206000209050919050565b60006020601f8301049050919050565b600082821b905092915050565b6000600883026113ac7fffffffffffffffffffffffffffffffffffffffffffffffffffffffffffffffff8261136f565b6113b6868361136f565b95508019841693508086168417925050509392505050565b6000819050919050565b60006113f36113ee6113e984610cef565b6113ce565b610cef565b9050919050565b6000819050919050565b61140d836113d8565b611421611419826113fa565b84845461137c565b825550505050565b600090565b611436611429565b611441818484611404565b505050565b5b818110156114655761145a60008261142e565b600181019050611447565b5050565b601f8211156114aa5761147b8161134a565b6114848461135f565b81016020851015611493578190505b6114a761149f8561135f565b830182611446565b50505b505050565b600082821c905092915050565b60006114cd600019846008026114af565b1980831691505092915050565b60006114e683836114bc565b9150826002028217905092915050565b6114ff82610e97565b67ffffffffffffffff81111561151857611517610a4f565b5b6115228254611319565b61152d828285611469565b600060209050601f831160018114611560576000841561154e578287015190505b61155885826114da565b8655506115c0565b601f19841661156e8661134a565b60005b8281101561159657848901518255600182019150602085019450602081019050611571565b868310156115b357848901516115af601f8916826114bc565b8355505b6001600288020188555050505b505050505050565b600060208301600083015184820360008601526115e58282610faf565b9150508091505092915050565b6115fb81610cef565b82525050565b600060a083016000830151848203600086015261161e8282610fe8565b9150506020830151848203602086015261163882826115c8565b915050604083015184820360408601526116528282610faf565b9150506060830151848203606086015261166c8282610faf565b915050608083015161168160808601826115f2565b508091505092915050565b600060208201905081810360008301526116a68184611601565b905092915050565b7f4e487b7100000000000000000000000000000000000000000000000000000000600052603260045260246000fd5b7f4e487b7100000000000000000000000000000000000000000000000000000000600052601160045260246000fd5b600061171782610cef565b915061172283610cef565b925082820390508181111561173a576117396116dd565b5b92915050565b7f4e487b7100000000000000000000000000000000000000000000000000000000600052603160045260246000fd5b600061177a82610cef565b91507fffffffffffffffffffffffffffffffffffffffffffffffffffffffffffffffff82036117ac576117ab6116dd565b5b60018201905091905056fea26469706673582212200686fc28f40cdc1a11c74a545fe44480c50f880e88d71c19547eba649d68601e64736f6c63430008120033",
					"opcodes": "PUSH1 0x80 PUSH1 0x40 MSTORE CALLVALUE DUP1 ISZERO PUSH2 0x10 JUMPI PUSH1 0x0 DUP1 REVERT JUMPDEST POP PUSH2 0x17ED DUP1 PUSH2 0x20 PUSH1 0x0 CODECOPY PUSH1 0x0 RETURN INVALID PUSH1 0x80 PUSH1 0x40 MSTORE CALLVALUE DUP1 ISZERO PUSH2 0x10 JUMPI PUSH1 0x0 DUP1 REVERT JUMPDEST POP PUSH1 0x4 CALLDATASIZE LT PUSH2 0x7D JUMPI PUSH1 0x0 CALLDATALOAD PUSH1 0xE0 SHR DUP1 PUSH4 0x9405A7BA GT PUSH2 0x5B JUMPI DUP1 PUSH4 0x9405A7BA EQ PUSH2 0xEA JUMPI DUP1 PUSH4 0x9C315C71 EQ PUSH2 0x106 JUMPI DUP1 PUSH4 0xBD14DE96 EQ PUSH2 0x136 JUMPI DUP1 PUSH4 0xBD64C361 EQ PUSH2 0x169 JUMPI PUSH2 0x7D JUMP JUMPDEST DUP1 PUSH4 0x37CF4C12 EQ PUSH2 0x82 JUMPI DUP1 PUSH4 0x5B915A93 EQ PUSH2 0x9E JUMPI DUP1 PUSH4 0x805FD26E EQ PUSH2 0xBA JUMPI JUMPDEST PUSH1 0x0 DUP1 REVERT JUMPDEST PUSH2 0x9C PUSH1 0x4 DUP1 CALLDATASIZE SUB DUP2 ADD SWAP1 PUSH2 0x97 SWAP2 SWAP1 PUSH2 0xB7A JUMP JUMPDEST PUSH2 0x185 JUMP JUMPDEST STOP JUMPDEST PUSH2 0xB8 PUSH1 0x4 DUP1 CALLDATASIZE SUB DUP2 ADD SWAP1 PUSH2 0xB3 SWAP2 SWAP1 PUSH2 0xE21 JUMP JUMPDEST PUSH2 0x1F2 JUMP JUMPDEST STOP JUMPDEST PUSH2 0xD4 PUSH1 0x4 DUP1 CALLDATASIZE SUB DUP2 ADD SWAP1 PUSH2 0xCF SWAP2 SWAP1 PUSH2 0xE6A JUMP JUMPDEST PUSH2 0x330 JUMP JUMPDEST PUSH1 0x40 MLOAD PUSH2 0xE1 SWAP2 SWAP1 PUSH2 0xF16 JUMP JUMPDEST PUSH1 0x40 MLOAD DUP1 SWAP2 SUB SWAP1 RETURN JUMPDEST PUSH2 0x104 PUSH1 0x4 DUP1 CALLDATASIZE SUB DUP2 ADD SWAP1 PUSH2 0xFF SWAP2 SWAP1 PUSH2 0xF38 JUMP JUMPDEST PUSH2 0x3D6 JUMP JUMPDEST STOP JUMPDEST PUSH2 0x120 PUSH1 0x4 DUP1 CALLDATASIZE SUB DUP2 ADD SWAP1 PUSH2 0x11B SWAP2 SWAP1 PUSH2 0xF38 JUMP JUMPDEST PUSH2 0x579 JUMP JUMPDEST PUSH1 0x40 MLOAD PUSH2 0x12D SWAP2 SWAP1 PUSH2 0xF74 JUMP JUMPDEST PUSH1 0x40 MLOAD DUP1 SWAP2 SUB SWAP1 RETURN JUMPDEST PUSH2 0x150 PUSH1 0x4 DUP1 CALLDATASIZE SUB DUP2 ADD SWAP1 PUSH2 0x14B SWAP2 SWAP1 PUSH2 0xF38 JUMP JUMPDEST PUSH2 0x59D JUMP JUMPDEST PUSH1 0x40 MLOAD PUSH2 0x160 SWAP5 SWAP4 SWAP3 SWAP2 SWAP1 PUSH2 0x10B9 JUMP JUMPDEST PUSH1 0x40 MLOAD DUP1 SWAP2 SUB SWAP1 RETURN JUMPDEST PUSH2 0x183 PUSH1 0x4 DUP1 CALLDATASIZE SUB DUP2 ADD SWAP1 PUSH2 0x17E SWAP2 SWAP1 PUSH2 0x12A1 JUMP JUMPDEST PUSH2 0x825 JUMP JUMPDEST STOP JUMPDEST PUSH2 0x18D PUSH2 0x9B0 JUMP JUMPDEST DUP2 DUP2 PUSH1 0x0 ADD DUP2 SWAP1 MSTORE POP DUP1 PUSH1 0x0 DUP1 CALLER PUSH20 0xFFFFFFFFFFFFFFFFFFFFFFFFFFFFFFFFFFFFFFFF AND PUSH20 0xFFFFFFFFFFFFFFFFFFFFFFFFFFFFFFFFFFFFFFFF AND DUP2 MSTORE PUSH1 0x20 ADD SWAP1 DUP2 MSTORE PUSH1 0x20 ADD PUSH1 0x0 KECCAK256 PUSH1 0x0 DUP3 ADD MLOAD DUP2 PUSH1 0x0 ADD SWAP1 DUP2 PUSH2 0x1EA SWAP2 SWAP1 PUSH2 0x14F6 JUMP JUMPDEST POP SWAP1 POP POP POP POP JUMP JUMPDEST CALLER PUSH20 0xFFFFFFFFFFFFFFFFFFFFFFFFFFFFFFFFFFFFFFFF AND PUSH32 0x37C8BCDA6E873896D322E49030EBC0EA81155FB8B0251659D7B34A673BDD0CFB DUP3 PUSH1 0x40 MLOAD PUSH2 0x238 SWAP2 SWAP1 PUSH2 0x168C JUMP JUMPDEST PUSH1 0x40 MLOAD DUP1 SWAP2 SUB SWAP1 LOG2 PUSH1 0x3 DUP2 SWAP1 DUP1 PUSH1 0x1 DUP2 SLOAD ADD DUP1 DUP3 SSTORE DUP1 SWAP2 POP POP PUSH1 0x1 SWAP1 SUB SWAP1 PUSH1 0x0 MSTORE PUSH1 0x20 PUSH1 0x0 KECCAK256 SWAP1 PUSH1 0x6 MUL ADD PUSH1 0x0 SWAP1 SWAP2 SWAP1 SWAP2 SWAP1 SWAP2 POP PUSH1 0x0 DUP3 ADD MLOAD DUP2 PUSH1 0x0 ADD PUSH1 0x0 DUP3 ADD MLOAD DUP2 PUSH1 0x0 ADD PUSH1 0x0 PUSH2 0x100 EXP DUP2 SLOAD DUP2 PUSH20 0xFFFFFFFFFFFFFFFFFFFFFFFFFFFFFFFFFFFFFFFF MUL NOT AND SWAP1 DUP4 PUSH20 0xFFFFFFFFFFFFFFFFFFFFFFFFFFFFFFFFFFFFFFFF AND MUL OR SWAP1 SSTORE POP PUSH1 0x20 DUP3 ADD MLOAD DUP2 PUSH1 0x1 ADD SWAP1 DUP2 PUSH2 0x2D1 SWAP2 SWAP1 PUSH2 0x14F6 JUMP JUMPDEST POP POP POP PUSH1 0x20 DUP3 ADD MLOAD DUP2 PUSH1 0x2 ADD PUSH1 0x0 DUP3 ADD MLOAD DUP2 PUSH1 0x0 ADD SWAP1 DUP2 PUSH2 0x2F2 SWAP2 SWAP1 PUSH2 0x14F6 JUMP JUMPDEST POP POP POP PUSH1 0x40 DUP3 ADD MLOAD DUP2 PUSH1 0x3 ADD SWAP1 DUP2 PUSH2 0x30A SWAP2 SWAP1 PUSH2 0x14F6 JUMP JUMPDEST POP PUSH1 0x60 DUP3 ADD MLOAD DUP2 PUSH1 0x4 ADD SWAP1 DUP2 PUSH2 0x320 SWAP2 SWAP1 PUSH2 0x14F6 JUMP JUMPDEST POP PUSH1 0x80 DUP3 ADD MLOAD DUP2 PUSH1 0x5 ADD SSTORE POP POP POP JUMP JUMPDEST PUSH1 0x0 PUSH1 0x20 MSTORE DUP1 PUSH1 0x0 MSTORE PUSH1 0x40 PUSH1 0x0 KECCAK256 PUSH1 0x0 SWAP2 POP SWAP1 POP DUP1 PUSH1 0x0 ADD DUP1 SLOAD PUSH2 0x353 SWAP1 PUSH2 0x1319 JUMP JUMPDEST DUP1 PUSH1 0x1F ADD PUSH1 0x20 DUP1 SWAP2 DIV MUL PUSH1 0x20 ADD PUSH1 0x40 MLOAD SWAP1 DUP2 ADD PUSH1 0x40 MSTORE DUP1 SWAP3 SWAP2 SWAP1 DUP2 DUP2 MSTORE PUSH1 0x20 ADD DUP3 DUP1 SLOAD PUSH2 0x37F SWAP1 PUSH2 0x1319 JUMP JUMPDEST DUP1 ISZERO PUSH2 0x3CC JUMPI DUP1 PUSH1 0x1F LT PUSH2 0x3A1 JUMPI PUSH2 0x100 DUP1 DUP4 SLOAD DIV MUL DUP4 MSTORE SWAP2 PUSH1 0x20 ADD SWAP2 PUSH2 0x3CC JUMP JUMPDEST DUP3 ADD SWAP2 SWAP1 PUSH1 0x0 MSTORE PUSH1 0x20 PUSH1 0x0 KECCAK256 SWAP1 JUMPDEST DUP2 SLOAD DUP2 MSTORE SWAP1 PUSH1 0x1 ADD SWAP1 PUSH1 0x20 ADD DUP1 DUP4 GT PUSH2 0x3AF JUMPI DUP3 SWAP1 SUB PUSH1 0x1F AND DUP3 ADD SWAP2 JUMPDEST POP POP POP POP POP SWAP1 POP DUP2 JUMP JUMPDEST PUSH1 0x1 PUSH1 0x0 DUP3 DUP2 MSTORE PUSH1 0x20 ADD SWAP1 DUP2 MSTORE PUSH1 0x20 ADD PUSH1 0x0 KECCAK256 PUSH1 0x0 DUP1 DUP3 ADD PUSH1 0x0 SWAP1 SSTORE PUSH1 0x1 DUP3 ADD PUSH1 0x0 DUP1 DUP3 ADD PUSH1 0x0 DUP1 DUP3 ADD PUSH1 0x0 PUSH2 0x100 EXP DUP2 SLOAD SWAP1 PUSH20 0xFFFFFFFFFFFFFFFFFFFFFFFFFFFFFFFFFFFFFFFF MUL NOT AND SWAP1 SSTORE PUSH1 0x1 DUP3 ADD PUSH1 0x0 PUSH2 0x433 SWAP2 SWAP1 PUSH2 0x9C3 JUMP JUMPDEST POP POP PUSH1 0x2 DUP3 ADD PUSH1 0x0 PUSH2 0x100 EXP DUP2 SLOAD SWAP1 PUSH20 0xFFFFFFFFFFFFFFFFFFFFFFFFFFFFFFFFFFFFFFFF MUL NOT AND SWAP1 SSTORE PUSH1 0x3 DUP3 ADD PUSH1 0x0 DUP1 DUP3 ADD PUSH1 0x0 PUSH2 0x100 EXP DUP2 SLOAD SWAP1 PUSH20 0xFFFFFFFFFFFFFFFFFFFFFFFFFFFFFFFFFFFFFFFF MUL NOT AND SWAP1 SSTORE PUSH1 0x1 DUP3 ADD PUSH1 0x0 PUSH2 0x498 SWAP2 SWAP1 PUSH2 0x9C3 JUMP JUMPDEST POP POP POP POP PUSH1 0x6 DUP3 ADD PUSH1 0x0 SWAP1 SSTORE PUSH1 0x7 DUP3 ADD PUSH1 0x0 SWAP1 SSTORE POP POP PUSH1 0x0 JUMPDEST PUSH1 0x2 DUP1 SLOAD SWAP1 POP DUP2 LT ISZERO PUSH2 0x575 JUMPI DUP2 PUSH1 0x2 DUP3 DUP2 SLOAD DUP2 LT PUSH2 0x4D3 JUMPI PUSH2 0x4D2 PUSH2 0x16AE JUMP JUMPDEST JUMPDEST SWAP1 PUSH1 0x0 MSTORE PUSH1 0x20 PUSH1 0x0 KECCAK256 ADD SLOAD SUB PUSH2 0x562 JUMPI PUSH1 0x2 PUSH1 0x1 PUSH1 0x2 DUP1 SLOAD SWAP1 POP PUSH2 0x4F7 SWAP2 SWAP1 PUSH2 0x170C JUMP JUMPDEST DUP2 SLOAD DUP2 LT PUSH2 0x508 JUMPI PUSH2 0x507 PUSH2 0x16AE JUMP JUMPDEST JUMPDEST SWAP1 PUSH1 0x0 MSTORE PUSH1 0x20 PUSH1 0x0 KECCAK256 ADD SLOAD PUSH1 0x2 DUP3 DUP2 SLOAD DUP2 LT PUSH2 0x527 JUMPI PUSH2 0x526 PUSH2 0x16AE JUMP JUMPDEST JUMPDEST SWAP1 PUSH1 0x0 MSTORE PUSH1 0x20 PUSH1 0x0 KECCAK256 ADD DUP2 SWAP1 SSTORE POP PUSH1 0x2 DUP1 SLOAD DUP1 PUSH2 0x547 JUMPI PUSH2 0x546 PUSH2 0x1740 JUMP JUMPDEST JUMPDEST PUSH1 0x1 SWAP1 SUB DUP2 DUP2 SWAP1 PUSH1 0x0 MSTORE PUSH1 0x20 PUSH1 0x0 KECCAK256 ADD PUSH1 0x0 SWAP1 SSTORE SWAP1 SSTORE PUSH2 0x575 JUMP JUMPDEST DUP1 DUP1 PUSH2 0x56D SWAP1 PUSH2 0x176F JUMP JUMPDEST SWAP2 POP POP PUSH2 0x4B1 JUMP JUMPDEST POP POP JUMP JUMPDEST PUSH1 0x2 DUP2 DUP2 SLOAD DUP2 LT PUSH2 0x589 JUMPI PUSH1 0x0 DUP1 REVERT JUMPDEST SWAP1 PUSH1 0x0 MSTORE PUSH1 0x20 PUSH1 0x0 KECCAK256 ADD PUSH1 0x0 SWAP2 POP SWAP1 POP SLOAD DUP2 JUMP JUMPDEST PUSH1 0x1 PUSH1 0x20 MSTORE DUP1 PUSH1 0x0 MSTORE PUSH1 0x40 PUSH1 0x0 KECCAK256 PUSH1 0x0 SWAP2 POP SWAP1 POP DUP1 PUSH1 0x0 ADD SLOAD SWAP1 DUP1 PUSH1 0x1 ADD PUSH1 0x40 MLOAD DUP1 PUSH1 0x60 ADD PUSH1 0x40 MSTORE SWAP1 DUP2 PUSH1 0x0 DUP3 ADD PUSH1 0x40 MLOAD DUP1 PUSH1 0x40 ADD PUSH1 0x40 MSTORE SWAP1 DUP2 PUSH1 0x0 DUP3 ADD PUSH1 0x0 SWAP1 SLOAD SWAP1 PUSH2 0x100 EXP SWAP1 DIV PUSH20 0xFFFFFFFFFFFFFFFFFFFFFFFFFFFFFFFFFFFFFFFF AND PUSH20 0xFFFFFFFFFFFFFFFFFFFFFFFFFFFFFFFFFFFFFFFF AND PUSH20 0xFFFFFFFFFFFFFFFFFFFFFFFFFFFFFFFFFFFFFFFF AND DUP2 MSTORE PUSH1 0x20 ADD PUSH1 0x1 DUP3 ADD DUP1 SLOAD PUSH2 0x63C SWAP1 PUSH2 0x1319 JUMP JUMPDEST DUP1 PUSH1 0x1F ADD PUSH1 0x20 DUP1 SWAP2 DIV MUL PUSH1 0x20 ADD PUSH1 0x40 MLOAD SWAP1 DUP2 ADD PUSH1 0x40 MSTORE DUP1 SWAP3 SWAP2 SWAP1 DUP2 DUP2 MSTORE PUSH1 0x20 ADD DUP3 DUP1 SLOAD PUSH2 0x668 SWAP1 PUSH2 0x1319 JUMP JUMPDEST DUP1 ISZERO PUSH2 0x6B5 JUMPI DUP1 PUSH1 0x1F LT PUSH2 0x68A JUMPI PUSH2 0x100 DUP1 DUP4 SLOAD DIV MUL DUP4 MSTORE SWAP2 PUSH1 0x20 ADD SWAP2 PUSH2 0x6B5 JUMP JUMPDEST DUP3 ADD SWAP2 SWAP1 PUSH1 0x0 MSTORE PUSH1 0x20 PUSH1 0x0 KECCAK256 SWAP1 JUMPDEST DUP2 SLOAD DUP2 MSTORE SWAP1 PUSH1 0x1 ADD SWAP1 PUSH1 0x20 ADD DUP1 DUP4 GT PUSH2 0x698 JUMPI DUP3 SWAP1 SUB PUSH1 0x1F AND DUP3 ADD SWAP2 JUMPDEST POP POP POP POP POP DUP2 MSTORE POP POP DUP2 MSTORE PUSH1 0x20 ADD PUSH1 0x2 DUP3 ADD PUSH1 0x0 SWAP1 SLOAD SWAP1 PUSH2 0x100 EXP SWAP1 DIV PUSH20 0xFFFFFFFFFFFFFFFFFFFFFFFFFFFFFFFFFFFFFFFF AND PUSH20 0xFFFFFFFFFFFFFFFFFFFFFFFFFFFFFFFFFFFFFFFF AND PUSH20 0xFFFFFFFFFFFFFFFFFFFFFFFFFFFFFFFFFFFFFFFF AND DUP2 MSTORE PUSH1 0x20 ADD PUSH1 0x3 DUP3 ADD PUSH1 0x40 MLOAD DUP1 PUSH1 0x40 ADD PUSH1 0x40 MSTORE SWAP1 DUP2 PUSH1 0x0 DUP3 ADD PUSH1 0x0 SWAP1 SLOAD SWAP1 PUSH2 0x100 EXP SWAP1 DIV PUSH20 0xFFFFFFFFFFFFFFFFFFFFFFFFFFFFFFFFFFFFFFFF AND PUSH20 0xFFFFFFFFFFFFFFFFFFFFFFFFFFFFFFFFFFFFFFFF AND PUSH20 0xFFFFFFFFFFFFFFFFFFFFFFFFFFFFFFFFFFFFFFFF AND DUP2 MSTORE PUSH1 0x20 ADD PUSH1 0x1 DUP3 ADD DUP1 SLOAD PUSH2 0x78E SWAP1 PUSH2 0x1319 JUMP JUMPDEST DUP1 PUSH1 0x1F ADD PUSH1 0x20 DUP1 SWAP2 DIV MUL PUSH1 0x20 ADD PUSH1 0x40 MLOAD SWAP1 DUP2 ADD PUSH1 0x40 MSTORE DUP1 SWAP3 SWAP2 SWAP1 DUP2 DUP2 MSTORE PUSH1 0x20 ADD DUP3 DUP1 SLOAD PUSH2 0x7BA SWAP1 PUSH2 0x1319 JUMP JUMPDEST DUP1 ISZERO PUSH2 0x807 JUMPI DUP1 PUSH1 0x1F LT PUSH2 0x7DC JUMPI PUSH2 0x100 DUP1 DUP4 SLOAD DIV MUL DUP4 MSTORE SWAP2 PUSH1 0x20 ADD SWAP2 PUSH2 0x807 JUMP JUMPDEST DUP3 ADD SWAP2 SWAP1 PUSH1 0x0 MSTORE PUSH1 0x20 PUSH1 0x0 KECCAK256 SWAP1 JUMPDEST DUP2 SLOAD DUP2 MSTORE SWAP1 PUSH1 0x1 ADD SWAP1 PUSH1 0x20 ADD DUP1 DUP4 GT PUSH2 0x7EA JUMPI DUP3 SWAP1 SUB PUSH1 0x1F AND DUP3 ADD SWAP2 JUMPDEST POP POP POP POP POP DUP2 MSTORE POP POP DUP2 MSTORE POP POP SWAP1 DUP1 PUSH1 0x6 ADD SLOAD SWAP1 DUP1 PUSH1 0x7 ADD SLOAD SWAP1 POP DUP5 JUMP JUMPDEST DUP1 PUSH1 0x1 PUSH1 0x0 DUP4 PUSH1 0x0 ADD MLOAD DUP2 MSTORE PUSH1 0x20 ADD SWAP1 DUP2 MSTORE PUSH1 0x20 ADD PUSH1 0x0 KECCAK256 PUSH1 0x0 DUP3 ADD MLOAD DUP2 PUSH1 0x0 ADD SSTORE PUSH1 0x20 DUP3 ADD MLOAD DUP2 PUSH1 0x1 ADD PUSH1 0x0 DUP3 ADD MLOAD DUP2 PUSH1 0x0 ADD PUSH1 0x0 DUP3 ADD MLOAD DUP2 PUSH1 0x0 ADD PUSH1 0x0 PUSH2 0x100 EXP DUP2 SLOAD DUP2 PUSH20 0xFFFFFFFFFFFFFFFFFFFFFFFFFFFFFFFFFFFFFFFF MUL NOT AND SWAP1 DUP4 PUSH20 0xFFFFFFFFFFFFFFFFFFFFFFFFFFFFFFFFFFFFFFFF AND MUL OR SWAP1 SSTORE POP PUSH1 0x20 DUP3 ADD MLOAD DUP2 PUSH1 0x1 ADD SWAP1 DUP2 PUSH2 0x8B5 SWAP2 SWAP1 PUSH2 0x14F6 JUMP JUMPDEST POP POP POP PUSH1 0x20 DUP3 ADD MLOAD DUP2 PUSH1 0x2 ADD PUSH1 0x0 PUSH2 0x100 EXP DUP2 SLOAD DUP2 PUSH20 0xFFFFFFFFFFFFFFFFFFFFFFFFFFFFFFFFFFFFFFFF MUL NOT AND SWAP1 DUP4 PUSH20 0xFFFFFFFFFFFFFFFFFFFFFFFFFFFFFFFFFFFFFFFF AND MUL OR SWAP1 SSTORE POP PUSH1 0x40 DUP3 ADD MLOAD DUP2 PUSH1 0x3 ADD PUSH1 0x0 DUP3 ADD MLOAD DUP2 PUSH1 0x0 ADD PUSH1 0x0 PUSH2 0x100 EXP DUP2 SLOAD DUP2 PUSH20 0xFFFFFFFFFFFFFFFFFFFFFFFFFFFFFFFFFFFFFFFF MUL NOT AND SWAP1 DUP4 PUSH20 0xFFFFFFFFFFFFFFFFFFFFFFFFFFFFFFFFFFFFFFFF AND MUL OR SWAP1 SSTORE POP PUSH1 0x20 DUP3 ADD MLOAD DUP2 PUSH1 0x1 ADD SWAP1 DUP2 PUSH2 0x964 SWAP2 SWAP1 PUSH2 0x14F6 JUMP JUMPDEST POP POP POP POP POP PUSH1 0x40 DUP3 ADD MLOAD DUP2 PUSH1 0x6 ADD SSTORE PUSH1 0x60 DUP3 ADD MLOAD DUP2 PUSH1 0x7 ADD SSTORE SWAP1 POP POP PUSH1 0x2 DUP2 PUSH1 0x0 ADD MLOAD SWAP1 DUP1 PUSH1 0x1 DUP2 SLOAD ADD DUP1 DUP3 SSTORE DUP1 SWAP2 POP POP PUSH1 0x1 SWAP1 SUB SWAP1 PUSH1 0x0 MSTORE PUSH1 0x20 PUSH1 0x0 KECCAK256 ADD PUSH1 0x0 SWAP1 SWAP2 SWAP1 SWAP2 SWAP1 SWAP2 POP SSTORE POP JUMP JUMPDEST PUSH1 0x40 MLOAD DUP1 PUSH1 0x20 ADD PUSH1 0x40 MSTORE DUP1 PUSH1 0x60 DUP2 MSTORE POP SWAP1 JUMP JUMPDEST POP DUP1 SLOAD PUSH2 0x9CF SWAP1 PUSH2 0x1319 JUMP JUMPDEST PUSH1 0x0 DUP3 SSTORE DUP1 PUSH1 0x1F LT PUSH2 0x9E1 JUMPI POP PUSH2 0xA00 JUMP JUMPDEST PUSH1 0x1F ADD PUSH1 0x20 SWAP1 DIV SWAP1 PUSH1 0x0 MSTORE PUSH1 0x20 PUSH1 0x0 KECCAK256 SWAP1 DUP2 ADD SWAP1 PUSH2 0x9FF SWAP2 SWAP1 PUSH2 0xA03 JUMP JUMPDEST JUMPDEST POP JUMP JUMPDEST JUMPDEST DUP1 DUP3 GT ISZERO PUSH2 0xA1C JUMPI PUSH1 0x0 DUP2 PUSH1 0x0 SWAP1 SSTORE POP PUSH1 0x1 ADD PUSH2 0xA04 JUMP JUMPDEST POP SWAP1 JUMP JUMPDEST PUSH1 0x0 PUSH1 0x40 MLOAD SWAP1 POP SWAP1 JUMP JUMPDEST PUSH1 0x0 DUP1 REVERT JUMPDEST PUSH1 0x0 DUP1 REVERT JUMPDEST PUSH1 0x0 DUP1 REVERT JUMPDEST PUSH1 0x0 DUP1 REVERT JUMPDEST PUSH1 0x0 PUSH1 0x1F NOT PUSH1 0x1F DUP4 ADD AND SWAP1 POP SWAP2 SWAP1 POP JUMP JUMPDEST PUSH32 0x4E487B7100000000000000000000000000000000000000000000000000000000 PUSH1 0x0 MSTORE PUSH1 0x41 PUSH1 0x4 MSTORE PUSH1 0x24 PUSH1 0x0 REVERT JUMPDEST PUSH2 0xA87 DUP3 PUSH2 0xA3E JUMP JUMPDEST DUP2 ADD DUP2 DUP2 LT PUSH8 0xFFFFFFFFFFFFFFFF DUP3 GT OR ISZERO PUSH2 0xAA6 JUMPI PUSH2 0xAA5 PUSH2 0xA4F JUMP JUMPDEST JUMPDEST DUP1 PUSH1 0x40 MSTORE POP POP POP JUMP JUMPDEST PUSH1 0x0 PUSH2 0xAB9 PUSH2 0xA20 JUMP JUMPDEST SWAP1 POP PUSH2 0xAC5 DUP3 DUP3 PUSH2 0xA7E JUMP JUMPDEST SWAP2 SWAP1 POP JUMP JUMPDEST PUSH1 0x0 PUSH8 0xFFFFFFFFFFFFFFFF DUP3 GT ISZERO PUSH2 0xAE5 JUMPI PUSH2 0xAE4 PUSH2 0xA4F JUMP JUMPDEST JUMPDEST PUSH2 0xAEE DUP3 PUSH2 0xA3E JUMP JUMPDEST SWAP1 POP PUSH1 0x20 DUP2 ADD SWAP1 POP SWAP2 SWAP1 POP JUMP JUMPDEST DUP3 DUP2 DUP4 CALLDATACOPY PUSH1 0x0 DUP4 DUP4 ADD MSTORE POP POP POP JUMP JUMPDEST PUSH1 0x0 PUSH2 0xB1D PUSH2 0xB18 DUP5 PUSH2 0xACA JUMP JUMPDEST PUSH2 0xAAF JUMP JUMPDEST SWAP1 POP DUP3 DUP2 MSTORE PUSH1 0x20 DUP2 ADD DUP5 DUP5 DUP5 ADD GT ISZERO PUSH2 0xB39 JUMPI PUSH2 0xB38 PUSH2 0xA39 JUMP JUMPDEST JUMPDEST PUSH2 0xB44 DUP5 DUP3 DUP6 PUSH2 0xAFB JUMP JUMPDEST POP SWAP4 SWAP3 POP POP POP JUMP JUMPDEST PUSH1 0x0 DUP3 PUSH1 0x1F DUP4 ADD SLT PUSH2 0xB61 JUMPI PUSH2 0xB60 PUSH2 0xA34 JUMP JUMPDEST JUMPDEST DUP2 CALLDATALOAD PUSH2 0xB71 DUP5 DUP3 PUSH1 0x20 DUP7 ADD PUSH2 0xB0A JUMP JUMPDEST SWAP2 POP POP SWAP3 SWAP2 POP POP JUMP JUMPDEST PUSH1 0x0 PUSH1 0x20 DUP3 DUP5 SUB SLT ISZERO PUSH2 0xB90 JUMPI PUSH2 0xB8F PUSH2 0xA2A JUMP JUMPDEST JUMPDEST PUSH1 0x0 DUP3 ADD CALLDATALOAD PUSH8 0xFFFFFFFFFFFFFFFF DUP2 GT ISZERO PUSH2 0xBAE JUMPI PUSH2 0xBAD PUSH2 0xA2F JUMP JUMPDEST JUMPDEST PUSH2 0xBBA DUP5 DUP3 DUP6 ADD PUSH2 0xB4C JUMP JUMPDEST SWAP2 POP POP SWAP3 SWAP2 POP POP JUMP JUMPDEST PUSH1 0x0 DUP1 REVERT JUMPDEST PUSH1 0x0 DUP1 REVERT JUMPDEST PUSH1 0x0 PUSH20 0xFFFFFFFFFFFFFFFFFFFFFFFFFFFFFFFFFFFFFFFF DUP3 AND SWAP1 POP SWAP2 SWAP1 POP JUMP JUMPDEST PUSH1 0x0 PUSH2 0xBF8 DUP3 PUSH2 0xBCD JUMP JUMPDEST SWAP1 POP SWAP2 SWAP1 POP JUMP JUMPDEST PUSH2 0xC08 DUP2 PUSH2 0xBED JUMP JUMPDEST DUP2 EQ PUSH2 0xC13 JUMPI PUSH1 0x0 DUP1 REVERT JUMPDEST POP JUMP JUMPDEST PUSH1 0x0 DUP2 CALLDATALOAD SWAP1 POP PUSH2 0xC25 DUP2 PUSH2 0xBFF JUMP JUMPDEST SWAP3 SWAP2 POP POP JUMP JUMPDEST PUSH1 0x0 PUSH1 0x40 DUP3 DUP5 SUB SLT ISZERO PUSH2 0xC41 JUMPI PUSH2 0xC40 PUSH2 0xBC3 JUMP JUMPDEST JUMPDEST PUSH2 0xC4B PUSH1 0x40 PUSH2 0xAAF JUMP JUMPDEST SWAP1 POP PUSH1 0x0 PUSH2 0xC5B DUP5 DUP3 DUP6 ADD PUSH2 0xC16 JUMP JUMPDEST PUSH1 0x0 DUP4 ADD MSTORE POP PUSH1 0x20 DUP3 ADD CALLDATALOAD PUSH8 0xFFFFFFFFFFFFFFFF DUP2 GT ISZERO PUSH2 0xC7F JUMPI PUSH2 0xC7E PUSH2 0xBC8 JUMP JUMPDEST JUMPDEST PUSH2 0xC8B DUP5 DUP3 DUP6 ADD PUSH2 0xB4C JUMP JUMPDEST PUSH1 0x20 DUP4 ADD MSTORE POP SWAP3 SWAP2 POP POP JUMP JUMPDEST PUSH1 0x0 PUSH1 0x20 DUP3 DUP5 SUB SLT ISZERO PUSH2 0xCAD JUMPI PUSH2 0xCAC PUSH2 0xBC3 JUMP JUMPDEST JUMPDEST PUSH2 0xCB7 PUSH1 0x20 PUSH2 0xAAF JUMP JUMPDEST SWAP1 POP PUSH1 0x0 DUP3 ADD CALLDATALOAD PUSH8 0xFFFFFFFFFFFFFFFF DUP2 GT ISZERO PUSH2 0xCD7 JUMPI PUSH2 0xCD6 PUSH2 0xBC8 JUMP JUMPDEST JUMPDEST PUSH2 0xCE3 DUP5 DUP3 DUP6 ADD PUSH2 0xB4C JUMP JUMPDEST PUSH1 0x0 DUP4 ADD MSTORE POP SWAP3 SWAP2 POP POP JUMP JUMPDEST PUSH1 0x0 DUP2 SWAP1 POP SWAP2 SWAP1 POP JUMP JUMPDEST PUSH2 0xD02 DUP2 PUSH2 0xCEF JUMP JUMPDEST DUP2 EQ PUSH2 0xD0D JUMPI PUSH1 0x0 DUP1 REVERT JUMPDEST POP JUMP JUMPDEST PUSH1 0x0 DUP2 CALLDATALOAD SWAP1 POP PUSH2 0xD1F DUP2 PUSH2 0xCF9 JUMP JUMPDEST SWAP3 SWAP2 POP POP JUMP JUMPDEST PUSH1 0x0 PUSH1 0xA0 DUP3 DUP5 SUB SLT ISZERO PUSH2 0xD3B JUMPI PUSH2 0xD3A PUSH2 0xBC3 JUMP JUMPDEST JUMPDEST PUSH2 0xD45 PUSH1 0xA0 PUSH2 0xAAF JUMP JUMPDEST SWAP1 POP PUSH1 0x0 DUP3 ADD CALLDATALOAD PUSH8 0xFFFFFFFFFFFFFFFF DUP2 GT ISZERO PUSH2 0xD65 JUMPI PUSH2 0xD64 PUSH2 0xBC8 JUMP JUMPDEST JUMPDEST PUSH2 0xD71 DUP5 DUP3 DUP6 ADD PUSH2 0xC2B JUMP JUMPDEST PUSH1 0x0 DUP4 ADD MSTORE POP PUSH1 0x20 DUP3 ADD CALLDATALOAD PUSH8 0xFFFFFFFFFFFFFFFF DUP2 GT ISZERO PUSH2 0xD95 JUMPI PUSH2 0xD94 PUSH2 0xBC8 JUMP JUMPDEST JUMPDEST PUSH2 0xDA1 DUP5 DUP3 DUP6 ADD PUSH2 0xC97 JUMP JUMPDEST PUSH1 0x20 DUP4 ADD MSTORE POP PUSH1 0x40 DUP3 ADD CALLDATALOAD PUSH8 0xFFFFFFFFFFFFFFFF DUP2 GT ISZERO PUSH2 0xDC5 JUMPI PUSH2 0xDC4 PUSH2 0xBC8 JUMP JUMPDEST JUMPDEST PUSH2 0xDD1 DUP5 DUP3 DUP6 ADD PUSH2 0xB4C JUMP JUMPDEST PUSH1 0x40 DUP4 ADD MSTORE POP PUSH1 0x60 DUP3 ADD CALLDATALOAD PUSH8 0xFFFFFFFFFFFFFFFF DUP2 GT ISZERO PUSH2 0xDF5 JUMPI PUSH2 0xDF4 PUSH2 0xBC8 JUMP JUMPDEST JUMPDEST PUSH2 0xE01 DUP5 DUP3 DUP6 ADD PUSH2 0xB4C JUMP JUMPDEST PUSH1 0x60 DUP4 ADD MSTORE POP PUSH1 0x80 PUSH2 0xE15 DUP5 DUP3 DUP6 ADD PUSH2 0xD10 JUMP JUMPDEST PUSH1 0x80 DUP4 ADD MSTORE POP SWAP3 SWAP2 POP POP JUMP JUMPDEST PUSH1 0x0 PUSH1 0x20 DUP3 DUP5 SUB SLT ISZERO PUSH2 0xE37 JUMPI PUSH2 0xE36 PUSH2 0xA2A JUMP JUMPDEST JUMPDEST PUSH1 0x0 DUP3 ADD CALLDATALOAD PUSH8 0xFFFFFFFFFFFFFFFF DUP2 GT ISZERO PUSH2 0xE55 JUMPI PUSH2 0xE54 PUSH2 0xA2F JUMP JUMPDEST JUMPDEST PUSH2 0xE61 DUP5 DUP3 DUP6 ADD PUSH2 0xD25 JUMP JUMPDEST SWAP2 POP POP SWAP3 SWAP2 POP POP JUMP JUMPDEST PUSH1 0x0 PUSH1 0x20 DUP3 DUP5 SUB SLT ISZERO PUSH2 0xE80 JUMPI PUSH2 0xE7F PUSH2 0xA2A JUMP JUMPDEST JUMPDEST PUSH1 0x0 PUSH2 0xE8E DUP5 DUP3 DUP6 ADD PUSH2 0xC16 JUMP JUMPDEST SWAP2 POP POP SWAP3 SWAP2 POP POP JUMP JUMPDEST PUSH1 0x0 DUP2 MLOAD SWAP1 POP SWAP2 SWAP1 POP JUMP JUMPDEST PUSH1 0x0 DUP3 DUP3 MSTORE PUSH1 0x20 DUP3 ADD SWAP1 POP SWAP3 SWAP2 POP POP JUMP JUMPDEST PUSH1 0x0 JUMPDEST DUP4 DUP2 LT ISZERO PUSH2 0xED1 JUMPI DUP1 DUP3 ADD MLOAD DUP2 DUP5 ADD MSTORE PUSH1 0x20 DUP2 ADD SWAP1 POP PUSH2 0xEB6 JUMP JUMPDEST PUSH1 0x0 DUP5 DUP5 ADD MSTORE POP POP POP POP JUMP JUMPDEST PUSH1 0x0 PUSH2 0xEE8 DUP3 PUSH2 0xE97 JUMP JUMPDEST PUSH2 0xEF2 DUP2 DUP6 PUSH2 0xEA2 JUMP JUMPDEST SWAP4 POP PUSH2 0xF02 DUP2 DUP6 PUSH1 0x20 DUP7 ADD PUSH2 0xEB3 JUMP JUMPDEST PUSH2 0xF0B DUP2 PUSH2 0xA3E JUMP JUMPDEST DUP5 ADD SWAP2 POP POP SWAP3 SWAP2 POP POP JUMP JUMPDEST PUSH1 0x0 PUSH1 0x20 DUP3 ADD SWAP1 POP DUP2 DUP2 SUB PUSH1 0x0 DUP4 ADD MSTORE PUSH2 0xF30 DUP2 DUP5 PUSH2 0xEDD JUMP JUMPDEST SWAP1 POP SWAP3 SWAP2 POP POP JUMP JUMPDEST PUSH1 0x0 PUSH1 0x20 DUP3 DUP5 SUB SLT ISZERO PUSH2 0xF4E JUMPI PUSH2 0xF4D PUSH2 0xA2A JUMP JUMPDEST JUMPDEST PUSH1 0x0 PUSH2 0xF5C DUP5 DUP3 DUP6 ADD PUSH2 0xD10 JUMP JUMPDEST SWAP2 POP POP SWAP3 SWAP2 POP POP JUMP JUMPDEST PUSH2 0xF6E DUP2 PUSH2 0xCEF JUMP JUMPDEST DUP3 MSTORE POP POP JUMP JUMPDEST PUSH1 0x0 PUSH1 0x20 DUP3 ADD SWAP1 POP PUSH2 0xF89 PUSH1 0x0 DUP4 ADD DUP5 PUSH2 0xF65 JUMP JUMPDEST SWAP3 SWAP2 POP POP JUMP JUMPDEST PUSH2 0xF98 DUP2 PUSH2 0xBED JUMP JUMPDEST DUP3 MSTORE POP POP JUMP JUMPDEST PUSH1 0x0 DUP3 DUP3 MSTORE PUSH1 0x20 DUP3 ADD SWAP1 POP SWAP3 SWAP2 POP POP JUMP JUMPDEST PUSH1 0x0 PUSH2 0xFBA DUP3 PUSH2 0xE97 JUMP JUMPDEST PUSH2 0xFC4 DUP2 DUP6 PUSH2 0xF9E JUMP JUMPDEST SWAP4 POP PUSH2 0xFD4 DUP2 DUP6 PUSH1 0x20 DUP7 ADD PUSH2 0xEB3 JUMP JUMPDEST PUSH2 0xFDD DUP2 PUSH2 0xA3E JUMP JUMPDEST DUP5 ADD SWAP2 POP POP SWAP3 SWAP2 POP POP JUMP JUMPDEST PUSH1 0x0 PUSH1 0x40 DUP4 ADD PUSH1 0x0 DUP4 ADD MLOAD PUSH2 0x1000 PUSH1 0x0 DUP7 ADD DUP3 PUSH2 0xF8F JUMP JUMPDEST POP PUSH1 0x20 DUP4 ADD MLOAD DUP5 DUP3 SUB PUSH1 0x20 DUP7 ADD MSTORE PUSH2 0x1018 DUP3 DUP3 PUSH2 0xFAF JUMP JUMPDEST SWAP2 POP POP DUP1 SWAP2 POP POP SWAP3 SWAP2 POP POP JUMP JUMPDEST PUSH1 0x0 PUSH1 0x40 DUP4 ADD PUSH1 0x0 DUP4 ADD MLOAD PUSH2 0x103D PUSH1 0x0 DUP7 ADD DUP3 PUSH2 0xF8F JUMP JUMPDEST POP PUSH1 0x20 DUP4 ADD MLOAD DUP5 DUP3 SUB PUSH1 0x20 DUP7 ADD MSTORE PUSH2 0x1055 DUP3 DUP3 PUSH2 0xFAF JUMP JUMPDEST SWAP2 POP POP DUP1 SWAP2 POP POP SWAP3 SWAP2 POP POP JUMP JUMPDEST PUSH1 0x0 PUSH1 0x60 DUP4 ADD PUSH1 0x0 DUP4 ADD MLOAD DUP5 DUP3 SUB PUSH1 0x0 DUP7 ADD MSTORE PUSH2 0x107F DUP3 DUP3 PUSH2 0xFE8 JUMP JUMPDEST SWAP2 POP POP PUSH1 0x20 DUP4 ADD MLOAD PUSH2 0x1094 PUSH1 0x20 DUP7 ADD DUP3 PUSH2 0xF8F JUMP JUMPDEST POP PUSH1 0x40 DUP4 ADD MLOAD DUP5 DUP3 SUB PUSH1 0x40 DUP7 ADD MSTORE PUSH2 0x10AC DUP3 DUP3 PUSH2 0x1025 JUMP JUMPDEST SWAP2 POP POP DUP1 SWAP2 POP POP SWAP3 SWAP2 POP POP JUMP JUMPDEST PUSH1 0x0 PUSH1 0x80 DUP3 ADD SWAP1 POP PUSH2 0x10CE PUSH1 0x0 DUP4 ADD DUP8 PUSH2 0xF65 JUMP JUMPDEST DUP2 DUP2 SUB PUSH1 0x20 DUP4 ADD MSTORE PUSH2 0x10E0 DUP2 DUP7 PUSH2 0x1062 JUMP JUMPDEST SWAP1 POP PUSH2 0x10EF PUSH1 0x40 DUP4 ADD DUP6 PUSH2 0xF65 JUMP JUMPDEST PUSH2 0x10FC PUSH1 0x60 DUP4 ADD DUP5 PUSH2 0xF65 JUMP JUMPDEST SWAP6 SWAP5 POP POP POP POP POP JUMP JUMPDEST PUSH1 0x0 PUSH1 0x40 DUP3 DUP5 SUB SLT ISZERO PUSH2 0x111B JUMPI PUSH2 0x111A PUSH2 0xBC3 JUMP JUMPDEST JUMPDEST PUSH2 0x1125 PUSH1 0x40 PUSH2 0xAAF JUMP JUMPDEST SWAP1 POP PUSH1 0x0 PUSH2 0x1135 DUP5 DUP3 DUP6 ADD PUSH2 0xC16 JUMP JUMPDEST PUSH1 0x0 DUP4 ADD MSTORE POP PUSH1 0x20 DUP3 ADD CALLDATALOAD PUSH8 0xFFFFFFFFFFFFFFFF DUP2 GT ISZERO PUSH2 0x1159 JUMPI PUSH2 0x1158 PUSH2 0xBC8 JUMP JUMPDEST JUMPDEST PUSH2 0x1165 DUP5 DUP3 DUP6 ADD PUSH2 0xB4C JUMP JUMPDEST PUSH1 0x20 DUP4 ADD MSTORE POP SWAP3 SWAP2 POP POP JUMP JUMPDEST PUSH1 0x0 PUSH1 0x60 DUP3 DUP5 SUB SLT ISZERO PUSH2 0x1187 JUMPI PUSH2 0x1186 PUSH2 0xBC3 JUMP JUMPDEST JUMPDEST PUSH2 0x1191 PUSH1 0x60 PUSH2 0xAAF JUMP JUMPDEST SWAP1 POP PUSH1 0x0 DUP3 ADD CALLDATALOAD PUSH8 0xFFFFFFFFFFFFFFFF DUP2 GT ISZERO PUSH2 0x11B1 JUMPI PUSH2 0x11B0 PUSH2 0xBC8 JUMP JUMPDEST JUMPDEST PUSH2 0x11BD DUP5 DUP3 DUP6 ADD PUSH2 0xC2B JUMP JUMPDEST PUSH1 0x0 DUP4 ADD MSTORE POP PUSH1 0x20 PUSH2 0x11D1 DUP5 DUP3 DUP6 ADD PUSH2 0xC16 JUMP JUMPDEST PUSH1 0x20 DUP4 ADD MSTORE POP PUSH1 0x40 DUP3 ADD CALLDATALOAD PUSH8 0xFFFFFFFFFFFFFFFF DUP2 GT ISZERO PUSH2 0x11F5 JUMPI PUSH2 0x11F4 PUSH2 0xBC8 JUMP JUMPDEST JUMPDEST PUSH2 0x1201 DUP5 DUP3 DUP6 ADD PUSH2 0x1105 JUMP JUMPDEST PUSH1 0x40 DUP4 ADD MSTORE POP SWAP3 SWAP2 POP POP JUMP JUMPDEST PUSH1 0x0 PUSH1 0x80 DUP3 DUP5 SUB SLT ISZERO PUSH2 0x1223 JUMPI PUSH2 0x1222 PUSH2 0xBC3 JUMP JUMPDEST JUMPDEST PUSH2 0x122D PUSH1 0x80 PUSH2 0xAAF JUMP JUMPDEST SWAP1 POP PUSH1 0x0 PUSH2 0x123D DUP5 DUP3 DUP6 ADD PUSH2 0xD10 JUMP JUMPDEST PUSH1 0x0 DUP4 ADD MSTORE POP PUSH1 0x20 DUP3 ADD CALLDATALOAD PUSH8 0xFFFFFFFFFFFFFFFF DUP2 GT ISZERO PUSH2 0x1261 JUMPI PUSH2 0x1260 PUSH2 0xBC8 JUMP JUMPDEST JUMPDEST PUSH2 0x126D DUP5 DUP3 DUP6 ADD PUSH2 0x1171 JUMP JUMPDEST PUSH1 0x20 DUP4 ADD MSTORE POP PUSH1 0x40 PUSH2 0x1281 DUP5 DUP3 DUP6 ADD PUSH2 0xD10 JUMP JUMPDEST PUSH1 0x40 DUP4 ADD MSTORE POP PUSH1 0x60 PUSH2 0x1295 DUP5 DUP3 DUP6 ADD PUSH2 0xD10 JUMP JUMPDEST PUSH1 0x60 DUP4 ADD MSTORE POP SWAP3 SWAP2 POP POP JUMP JUMPDEST PUSH1 0x0 PUSH1 0x20 DUP3 DUP5 SUB SLT ISZERO PUSH2 0x12B7 JUMPI PUSH2 0x12B6 PUSH2 0xA2A JUMP JUMPDEST JUMPDEST PUSH1 0x0 DUP3 ADD CALLDATALOAD PUSH8 0xFFFFFFFFFFFFFFFF DUP2 GT ISZERO PUSH2 0x12D5 JUMPI PUSH2 0x12D4 PUSH2 0xA2F JUMP JUMPDEST JUMPDEST PUSH2 0x12E1 DUP5 DUP3 DUP6 ADD PUSH2 0x120D JUMP JUMPDEST SWAP2 POP POP SWAP3 SWAP2 POP POP JUMP JUMPDEST PUSH32 0x4E487B7100000000000000000000000000000000000000000000000000000000 PUSH1 0x0 MSTORE PUSH1 0x22 PUSH1 0x4 MSTORE PUSH1 0x24 PUSH1 0x0 REVERT JUMPDEST PUSH1 0x0 PUSH1 0x2 DUP3 DIV SWAP1 POP PUSH1 0x1 DUP3 AND DUP1 PUSH2 0x1331 JUMPI PUSH1 0x7F DUP3 AND SWAP2 POP JUMPDEST PUSH1 0x20 DUP3 LT DUP2 SUB PUSH2 0x1344 JUMPI PUSH2 0x1343 PUSH2 0x12EA JUMP JUMPDEST JUMPDEST POP SWAP2 SWAP1 POP JUMP JUMPDEST PUSH1 0x0 DUP2 SWAP1 POP DUP2 PUSH1 0x0 MSTORE PUSH1 0x20 PUSH1 0x0 KECCAK256 SWAP1 POP SWAP2 SWAP1 POP JUMP JUMPDEST PUSH1 0x0 PUSH1 0x20 PUSH1 0x1F DUP4 ADD DIV SWAP1 POP SWAP2 SWAP1 POP JUMP JUMPDEST PUSH1 0x0 DUP3 DUP3 SHL SWAP1 POP SWAP3 SWAP2 POP POP JUMP JUMPDEST PUSH1 0x0 PUSH1 0x8 DUP4 MUL PUSH2 0x13AC PUSH32 0xFFFFFFFFFFFFFFFFFFFFFFFFFFFFFFFFFFFFFFFFFFFFFFFFFFFFFFFFFFFFFFFF DUP3 PUSH2 0x136F JUMP JUMPDEST PUSH2 0x13B6 DUP7 DUP4 PUSH2 0x136F JUMP JUMPDEST SWAP6 POP DUP1 NOT DUP5 AND SWAP4 POP DUP1 DUP7 AND DUP5 OR SWAP3 POP POP POP SWAP4 SWAP3 POP POP POP JUMP JUMPDEST PUSH1 0x0 DUP2 SWAP1 POP SWAP2 SWAP1 POP JUMP JUMPDEST PUSH1 0x0 PUSH2 0x13F3 PUSH2 0x13EE PUSH2 0x13E9 DUP5 PUSH2 0xCEF JUMP JUMPDEST PUSH2 0x13CE JUMP JUMPDEST PUSH2 0xCEF JUMP JUMPDEST SWAP1 POP SWAP2 SWAP1 POP JUMP JUMPDEST PUSH1 0x0 DUP2 SWAP1 POP SWAP2 SWAP1 POP JUMP JUMPDEST PUSH2 0x140D DUP4 PUSH2 0x13D8 JUMP JUMPDEST PUSH2 0x1421 PUSH2 0x1419 DUP3 PUSH2 0x13FA JUMP JUMPDEST DUP5 DUP5 SLOAD PUSH2 0x137C JUMP JUMPDEST DUP3 SSTORE POP POP POP POP JUMP JUMPDEST PUSH1 0x0 SWAP1 JUMP JUMPDEST PUSH2 0x1436 PUSH2 0x1429 JUMP JUMPDEST PUSH2 0x1441 DUP2 DUP5 DUP5 PUSH2 0x1404 JUMP JUMPDEST POP POP POP JUMP JUMPDEST JUMPDEST DUP2 DUP2 LT ISZERO PUSH2 0x1465 JUMPI PUSH2 0x145A PUSH1 0x0 DUP3 PUSH2 0x142E JUMP JUMPDEST PUSH1 0x1 DUP2 ADD SWAP1 POP PUSH2 0x1447 JUMP JUMPDEST POP POP JUMP JUMPDEST PUSH1 0x1F DUP3 GT ISZERO PUSH2 0x14AA JUMPI PUSH2 0x147B DUP2 PUSH2 0x134A JUMP JUMPDEST PUSH2 0x1484 DUP5 PUSH2 0x135F JUMP JUMPDEST DUP2 ADD PUSH1 0x20 DUP6 LT ISZERO PUSH2 0x1493 JUMPI DUP2 SWAP1 POP JUMPDEST PUSH2 0x14A7 PUSH2 0x149F DUP6 PUSH2 0x135F JUMP JUMPDEST DUP4 ADD DUP3 PUSH2 0x1446 JUMP JUMPDEST POP POP JUMPDEST POP POP POP JUMP JUMPDEST PUSH1 0x0 DUP3 DUP3 SHR SWAP1 POP SWAP3 SWAP2 POP POP JUMP JUMPDEST PUSH1 0x0 PUSH2 0x14CD PUSH1 0x0 NOT DUP5 PUSH1 0x8 MUL PUSH2 0x14AF JUMP JUMPDEST NOT DUP1 DUP4 AND SWAP2 POP POP SWAP3 SWAP2 POP POP JUMP JUMPDEST PUSH1 0x0 PUSH2 0x14E6 DUP4 DUP4 PUSH2 0x14BC JUMP JUMPDEST SWAP2 POP DUP3 PUSH1 0x2 MUL DUP3 OR SWAP1 POP SWAP3 SWAP2 POP POP JUMP JUMPDEST PUSH2 0x14FF DUP3 PUSH2 0xE97 JUMP JUMPDEST PUSH8 0xFFFFFFFFFFFFFFFF DUP2 GT ISZERO PUSH2 0x1518 JUMPI PUSH2 0x1517 PUSH2 0xA4F JUMP JUMPDEST JUMPDEST PUSH2 0x1522 DUP3 SLOAD PUSH2 0x1319 JUMP JUMPDEST PUSH2 0x152D DUP3 DUP3 DUP6 PUSH2 0x1469 JUMP JUMPDEST PUSH1 0x0 PUSH1 0x20 SWAP1 POP PUSH1 0x1F DUP4 GT PUSH1 0x1 DUP2 EQ PUSH2 0x1560 JUMPI PUSH1 0x0 DUP5 ISZERO PUSH2 0x154E JUMPI DUP3 DUP8 ADD MLOAD SWAP1 POP JUMPDEST PUSH2 0x1558 DUP6 DUP3 PUSH2 0x14DA JUMP JUMPDEST DUP7 SSTORE POP PUSH2 0x15C0 JUMP JUMPDEST PUSH1 0x1F NOT DUP5 AND PUSH2 0x156E DUP7 PUSH2 0x134A JUMP JUMPDEST PUSH1 0x0 JUMPDEST DUP3 DUP2 LT ISZERO PUSH2 0x1596 JUMPI DUP5 DUP10 ADD MLOAD DUP3 SSTORE PUSH1 0x1 DUP3 ADD SWAP2 POP PUSH1 0x20 DUP6 ADD SWAP5 POP PUSH1 0x20 DUP2 ADD SWAP1 POP PUSH2 0x1571 JUMP JUMPDEST DUP7 DUP4 LT ISZERO PUSH2 0x15B3 JUMPI DUP5 DUP10 ADD MLOAD PUSH2 0x15AF PUSH1 0x1F DUP10 AND DUP3 PUSH2 0x14BC JUMP JUMPDEST DUP4 SSTORE POP JUMPDEST PUSH1 0x1 PUSH1 0x2 DUP9 MUL ADD DUP9 SSTORE POP POP POP JUMPDEST POP POP POP POP POP POP JUMP JUMPDEST PUSH1 0x0 PUSH1 0x20 DUP4 ADD PUSH1 0x0 DUP4 ADD MLOAD DUP5 DUP3 SUB PUSH1 0x0 DUP7 ADD MSTORE PUSH2 0x15E5 DUP3 DUP3 PUSH2 0xFAF JUMP JUMPDEST SWAP2 POP POP DUP1 SWAP2 POP POP SWAP3 SWAP2 POP POP JUMP JUMPDEST PUSH2 0x15FB DUP2 PUSH2 0xCEF JUMP JUMPDEST DUP3 MSTORE POP POP JUMP JUMPDEST PUSH1 0x0 PUSH1 0xA0 DUP4 ADD PUSH1 0x0 DUP4 ADD MLOAD DUP5 DUP3 SUB PUSH1 0x0 DUP7 ADD MSTORE PUSH2 0x161E DUP3 DUP3 PUSH2 0xFE8 JUMP JUMPDEST SWAP2 POP POP PUSH1 0x20 DUP4 ADD MLOAD DUP5 DUP3 SUB PUSH1 0x20 DUP7 ADD MSTORE PUSH2 0x1638 DUP3 DUP3 PUSH2 0x15C8 JUMP JUMPDEST SWAP2 POP POP PUSH1 0x40 DUP4 ADD MLOAD DUP5 DUP3 SUB PUSH1 0x40 DUP7 ADD MSTORE PUSH2 0x1652 DUP3 DUP3 PUSH2 0xFAF JUMP JUMPDEST SWAP2 POP POP PUSH1 0x60 DUP4 ADD MLOAD DUP5 DUP3 SUB PUSH1 0x60 DUP7 ADD MSTORE PUSH2 0x166C DUP3 DUP3 PUSH2 0xFAF JUMP JUMPDEST SWAP2 POP POP PUSH1 0x80 DUP4 ADD MLOAD PUSH2 0x1681 PUSH1 0x80 DUP7 ADD DUP3 PUSH2 0x15F2 JUMP JUMPDEST POP DUP1 SWAP2 POP POP SWAP3 SWAP2 POP POP JUMP JUMPDEST PUSH1 0x0 PUSH1 0x20 DUP3 ADD SWAP1 POP DUP2 DUP2 SUB PUSH1 0x0 DUP4 ADD MSTORE PUSH2 0x16A6 DUP2 DUP5 PUSH2 0x1601 JUMP JUMPDEST SWAP1 POP SWAP3 SWAP2 POP POP JUMP JUMPDEST PUSH32 0x4E487B7100000000000000000000000000000000000000000000000000000000 PUSH1 0x0 MSTORE PUSH1 0x32 PUSH1 0x4 MSTORE PUSH1 0x24 PUSH1 0x0 REVERT JUMPDEST PUSH32 0x4E487B7100000000000000000000000000000000000000000000000000000000 PUSH1 0x0 MSTORE PUSH1 0x11 PUSH1 0x4 MSTORE PUSH1 0x24 PUSH1 0x0 REVERT JUMPDEST PUSH1 0x0 PUSH2 0x1717 DUP3 PUSH2 0xCEF JUMP JUMPDEST SWAP2 POP PUSH2 0x1722 DUP4 PUSH2 0xCEF JUMP JUMPDEST SWAP3 POP DUP3 DUP3 SUB SWAP1 POP DUP2 DUP2 GT ISZERO PUSH2 0x173A JUMPI PUSH2 0x1739 PUSH2 0x16DD JUMP JUMPDEST JUMPDEST SWAP3 SWAP2 POP POP JUMP JUMPDEST PUSH32 0x4E487B7100000000000000000000000000000000000000000000000000000000 PUSH1 0x0 MSTORE PUSH1 0x31 PUSH1 0x4 MSTORE PUSH1 0x24 PUSH1 0x0 REVERT JUMPDEST PUSH1 0x0 PUSH2 0x177A DUP3 PUSH2 0xCEF JUMP JUMPDEST SWAP2 POP PUSH32 0xFFFFFFFFFFFFFFFFFFFFFFFFFFFFFFFFFFFFFFFFFFFFFFFFFFFFFFFFFFFFFFFF DUP3 SUB PUSH2 0x17AC JUMPI PUSH2 0x17AB PUSH2 0x16DD JUMP JUMPDEST JUMPDEST PUSH1 0x1 DUP3 ADD SWAP1 POP SWAP2 SWAP1 POP JUMP INVALID LOG2 PUSH5 0x6970667358 0x22 SLT KECCAK256 MOD DUP7 0xFC 0x28 DELEGATECALL 0xC 0xDC BYTE GT 0xC7 0x4A SLOAD 0x5F 0xE4 PREVRANDAO DUP1 0xC5 0xF DUP9 0xE DUP9 0xD7 SHR NOT SLOAD PUSH31 0xBA649D68601E64736F6C634300081200330000000000000000000000000000 "
				},
				"gasEstimates": {
					"creation": {
						"codeDepositCost": "1225000",
						"executionCost": "1275",
						"totalCost": "1226275"
					},
					"external": {
						"agreementIds(uint256)": "infinite",
						"agreements(uint256)": "infinite",
						"enterProperty(string)": "infinite",
						"finishRent(uint256)": "infinite",
						"propertiesOfUsers(address)": "infinite",
						"rent((uint256,((address,string),address,(address,string)),uint256,uint256))": "infinite",
						"sendReportToRenter(((address,string),(string),string,string,uint256))": "infinite"
					}
				},
				"methodIdentifiers": {
					"agreementIds(uint256)": "9c315c71",
					"agreements(uint256)": "bd14de96",
					"enterProperty(string)": "37cf4c12",
					"finishRent(uint256)": "9405a7ba",
					"propertiesOfUsers(address)": "805fd26e",
					"rent((uint256,((address,string),address,(address,string)),uint256,uint256))": "bd64c361",
					"sendReportToRenter(((address,string),(string),string,string,uint256))": "5b915a93"
				}
			},
			"storageLayout": {
				"storage": [
					{
						"astId": 13,
						"contract": "contracts/RentalContract.sol:Rental",
						"label": "propertiesOfUsers",
						"offset": 0,
						"slot": "0",
						"type": "t_mapping(t_address,t_struct(Property)31_storage)"
					},
					{
						"astId": 18,
						"contract": "contracts/RentalContract.sol:Rental",
						"label": "agreements",
						"offset": 0,
						"slot": "1",
						"type": "t_mapping(t_uint256,t_struct(Agreement)60_storage)"
					},
					{
						"astId": 21,
						"contract": "contracts/RentalContract.sol:Rental",
						"label": "agreementIds",
						"offset": 0,
						"slot": "2",
						"type": "t_array(t_uint256)dyn_storage"
					},
					{
						"astId": 25,
						"contract": "contracts/RentalContract.sol:Rental",
						"label": "reports",
						"offset": 0,
						"slot": "3",
						"type": "t_array(t_struct(Report)73_storage)dyn_storage"
					}
				],
				"types": {
					"t_address": {
						"encoding": "inplace",
						"label": "address",
						"numberOfBytes": "20"
					},
					"t_array(t_struct(Report)73_storage)dyn_storage": {
						"base": "t_struct(Report)73_storage",
						"encoding": "dynamic_array",
						"label": "struct Rental.Report[]",
						"numberOfBytes": "32"
					},
					"t_array(t_uint256)dyn_storage": {
						"base": "t_uint256",
						"encoding": "dynamic_array",
						"label": "uint256[]",
						"numberOfBytes": "32"
					},
					"t_mapping(t_address,t_struct(Property)31_storage)": {
						"encoding": "mapping",
						"key": "t_address",
						"label": "mapping(address => struct Rental.Property)",
						"numberOfBytes": "32",
						"value": "t_struct(Property)31_storage"
					},
					"t_mapping(t_uint256,t_struct(Agreement)60_storage)": {
						"encoding": "mapping",
						"key": "t_uint256",
						"label": "mapping(uint256 => struct Rental.Agreement)",
						"numberOfBytes": "32",
						"value": "t_struct(Agreement)60_storage"
					},
					"t_string_storage": {
						"encoding": "bytes",
						"label": "string",
						"numberOfBytes": "32"
					},
					"t_struct(Agreement)60_storage": {
						"encoding": "inplace",
						"label": "struct Rental.Agreement",
						"members": [
							{
								"astId": 52,
								"contract": "contracts/RentalContract.sol:Rental",
								"label": "id",
								"offset": 0,
								"slot": "0",
								"type": "t_uint256"
							},
							{
								"astId": 55,
								"contract": "contracts/RentalContract.sol:Rental",
								"label": "tenancy",
								"offset": 0,
								"slot": "1",
								"type": "t_struct(Tenancy)50_storage"
							},
							{
								"astId": 57,
								"contract": "contracts/RentalContract.sol:Rental",
								"label": "startDate",
								"offset": 0,
								"slot": "6",
								"type": "t_uint256"
							},
							{
								"astId": 59,
								"contract": "contracts/RentalContract.sol:Rental",
								"label": "endDate",
								"offset": 0,
								"slot": "7",
								"type": "t_uint256"
							}
						],
						"numberOfBytes": "256"
					},
					"t_struct(Hirer)36_storage": {
						"encoding": "inplace",
						"label": "struct Rental.Hirer",
						"members": [
							{
								"astId": 33,
								"contract": "contracts/RentalContract.sol:Rental",
								"label": "id",
								"offset": 0,
								"slot": "0",
								"type": "t_address"
							},
							{
								"astId": 35,
								"contract": "contracts/RentalContract.sol:Rental",
								"label": "fullName",
								"offset": 0,
								"slot": "1",
								"type": "t_string_storage"
							}
						],
						"numberOfBytes": "64"
					},
					"t_struct(Property)31_storage": {
						"encoding": "inplace",
						"label": "struct Rental.Property",
						"members": [
							{
								"astId": 30,
								"contract": "contracts/RentalContract.sol:Rental",
								"label": "name",
								"offset": 0,
								"slot": "0",
								"type": "t_string_storage"
							}
						],
						"numberOfBytes": "32"
					},
					"t_struct(Renter)41_storage": {
						"encoding": "inplace",
						"label": "struct Rental.Renter",
						"members": [
							{
								"astId": 38,
								"contract": "contracts/RentalContract.sol:Rental",
								"label": "id",
								"offset": 0,
								"slot": "0",
								"type": "t_address"
							},
							{
								"astId": 40,
								"contract": "contracts/RentalContract.sol:Rental",
								"label": "fullName",
								"offset": 0,
								"slot": "1",
								"type": "t_string_storage"
							}
						],
						"numberOfBytes": "64"
					},
					"t_struct(Report)73_storage": {
						"encoding": "inplace",
						"label": "struct Rental.Report",
						"members": [
							{
								"astId": 63,
								"contract": "contracts/RentalContract.sol:Rental",
								"label": "hirer",
								"offset": 0,
								"slot": "0",
								"type": "t_struct(Hirer)36_storage"
							},
							{
								"astId": 66,
								"contract": "contracts/RentalContract.sol:Rental",
								"label": "property",
								"offset": 0,
								"slot": "2",
								"type": "t_struct(Property)31_storage"
							},
							{
								"astId": 68,
								"contract": "contracts/RentalContract.sol:Rental",
								"label": "subject",
								"offset": 0,
								"slot": "3",
								"type": "t_string_storage"
							},
							{
								"astId": 70,
								"contract": "contracts/RentalContract.sol:Rental",
								"label": "message",
								"offset": 0,
								"slot": "4",
								"type": "t_string_storage"
							},
							{
								"astId": 72,
								"contract": "contracts/RentalContract.sol:Rental",
								"label": "createdDate",
								"offset": 0,
								"slot": "5",
								"type": "t_uint256"
							}
						],
						"numberOfBytes": "192"
					},
					"t_struct(Tenancy)50_storage": {
						"encoding": "inplace",
						"label": "struct Rental.Tenancy",
						"members": [
							{
								"astId": 44,
								"contract": "contracts/RentalContract.sol:Rental",
								"label": "hirer",
								"offset": 0,
								"slot": "0",
								"type": "t_struct(Hirer)36_storage"
							},
							{
								"astId": 46,
								"contract": "contracts/RentalContract.sol:Rental",
								"label": "tenancyAddress",
								"offset": 0,
								"slot": "2",
								"type": "t_address"
							},
							{
								"astId": 49,
								"contract": "contracts/RentalContract.sol:Rental",
								"label": "renter",
								"offset": 0,
								"slot": "3",
								"type": "t_struct(Renter)41_storage"
							}
						],
						"numberOfBytes": "160"
					},
					"t_uint256": {
						"encoding": "inplace",
						"label": "uint256",
						"numberOfBytes": "32"
					}
				}
			},
			"userdoc": {
				"kind": "user",
				"methods": {},
				"version": 1
			}
		}
	}
}